:020000040800F2
:1000000038180020D5000008F19100086587000825
:1000100000000000000000000000000000000000E0
:100020000000000000000000000000008D990008A2
:10003000000000000000000099920008499A0008A2
:10004000E7000008E7000008E7000008E7000008F4
:10005000E7000008E7000008E7000008A93C0008E6
:10006000E7000008352D0008452D00085D2D00082B
:10007000E7000008E7000008E7000008E7000008C4
:10008000E70000080000000000000000619A00087E
:1000900000000000E7000008E7000008E700000893
:1000A000E7000008E7000008E700000831AB00089F
:1000B0003DAB000800000000000000000000000050
:1000C0000348854600F054FE00480047A9AD0008EB
:1000D000381800200448804704480047FEE7FEE740
:1000E000FEE7FEE7FEE7FEE7519A0008C1000008C0
:1000F00000487047FCB8000810B50446FFF7F8FF49
:100100000068005DC007C00F10BD014661391929A4
:1001100000D82038704703460B439B0703D009E003
:1001200008C9121F08C0042AFAD203E00B78037032
:10013000401C491C521EF9D27047D2B201E0027035
:10014000401C491EFBD270470022F6E710B513464B
:100150000A4604461946FFF7F0FF204610BD10B5C9
:10016000044605E00B780370401C002B00D0491CAE
:10017000521EF7D2204610BDCAB2401E4178401C24
:100180008A4202D00029F9D100207047421C017830
:10019000401C0029FBD1801A704710B5002200E0F6
:1001A000521C835C8C5CA34201D1002BF8D1D8B2E5
:1001B000E1B2401A10BD03460A780270401C491C87
:1001C000002AF9D118467047F8B50E4605460024B6
:1001D00000E0641C285D00F0A3FB0746305D00F0E2
:1001E0009FFB381A02D1295D0029F2D1F8BD000029
:1001F0000FB400B58DB009900B9010A900200091AC
:10020000C0430A9000200C900648069006480790CC
:100210006A4609A80F9900F09FFB0DB008BC04B016
:10022000184700007909000899090008FFB5002760
:10023000FF4383B000205C6801909E681D46A96959
:100240007F1C049888470090296A88470028F6D1C7
:100250000098401C0CD0032040028443002E19DD7E
:10026000600614D500982B2809D02D280FD103E063
:100270000020C04307B0F0BD012080020443A969FB
:100280007F1C04988847761E0090002E02DD00989F
:10029000302803D00598002825D035E00120400201
:1002A0000443A969761E7F1C049888470090002E9D
:1002B00003DD782805D0582803D00598002810D0F1
:1002C00022E00598002801D010281DD1012040020D
:1002D0008443A969761E7F1C0498884700901020EB
:1002E00002E0082000E00A2005900DE0012149020B
:1002F0000C43059A0199761E514308180190A9698B
:100300007F1C049888470090002E05DD0599009811
:1003100000F00CFB0028E9DAE96904988847A00599
:1003200002D40120C043A5E7E00722D1600611D521
:100330006005019800D5404229680A1D2A600968B5
:10034000220501D5087014E0220701D5088010E0CD
:1003500008600EE02868011D29600068210502D5AB
:100360000199017005E02107019901D5018000E0A4
:10037000016038467EE70000F7B5009C0F46002676
:100380002578641C002D05D0FFF7B2FE0068405DA3
:10039000C007F5D12B2D02D02D2D18D0641E394663
:1003A0002046029A00F00AFB002F04D03968A142CF
:1003B00001D1009939607105022400290BDA40420D
:1003C000002803DD0AF0CEFD0460A007FEBD012079
:1003D00080020643E3E70028F8DA0AF0C3FD046070
:1003E0000048FEBDFFFFFF7F70B506460AF0BAFD6C
:1003F000046805460A2200213046FFF7BDFF2C6045
:1004000070BD70B506460AF0ADFD046805460A22C7
:1004100000213046FFF7B0FF2C6070BDF8B50246F2
:100420004A40D40F42004B0052085B089A4202D265
:100430000246084611464A0023D0C30D4A00DDB2E9
:10044000120EAD1A202D35DA49020126490AF605A9
:100450008A19002C00D0524220214F1B1146B9406E
:100460002A411018C20D9A4221D0002C17D0012D1C
:1004700008DCDA05801AD20F8019D207DBB200F04F
:10048000F8FAF8BDDA05801A012340001B06C018EF
:1004900080185A428018CA0F1043490007E04908E3
:1004A000C2071143DA05801A80194008801800F04D
:1004B000D8FAF8BD61000122511A001BF7E70122AA
:1004C000D2075140AAE70122D2075040A6E70246D0
:1004D00070B54A40D30FDB0740002DD04A002AD028
:1004E000010E140E000212020919400A520A841861
:1004F000E50104465443000A120A2E045043A4198D
:100500004219200CC543AA18120C0125AD03521C38
:10051000521912047F39240400D0521C104301D414
:100520004000491EC2B20C06C0092018401C4008F9
:10053000802A02D003E0002070BD4008400000295E
:1005400000DA0020184370BD70B502464A40D50F4E
:1005500040004A00ED0740085208002814D0002A45
:1005600012D0C40DD30D41020120C0055202490A28
:10057000520AE41A091812187D34914201D3641CFE
:1005800000E04900002C01DA002070BD00239142F8
:1005900001D3891A0343400849000028F7D10029F4
:1005A0000AD0914202D10121C90705E0914201D24E
:1005B000012101E00121C943E005C018401900F004
:1005C00050FA70BDF0B51FB488B00B99099800249B
:1005D00048400999C00F490049080991C0070B9983
:1005E0000090490049080B9109990898A6460843CC
:1005F0001CD00B990A98084318D009980124400090
:10060000420D4800410D099824050003000B2043CA
:1006100009900B980003000B20430B9050181C49C5
:100620004018002201901446104605E000200146C3
:100630000DB0F0BD032801DA034600E003239C4619
:10064000C11A0AAE0AE05F0008ADED5B4F00F75B30
:100650007D430027AA187C41491C5B1E6145F2DDE1
:10066000410004AB5A522104120C0A43240C401CD2
:100670000828DFDB019802900099704601910090F4
:10068000059B049A0799069800F039FAD0E7000014
:100690000DFCFFFFF0B50C465C4085B0E40FE407AD
:1006A00003944C0000266408590094464908024609
:1006B0000296224321D062460A431ED06200570DA3
:1006C0004A000E032303550D012402462C4924053C
:1006D000781B1B0B360B40182343264361460090C2
:1006E0001C46501AB44103D30098401C009002E00D
:1006F000921800985B41002803DA0020014605B0FB
:10070000F0BD0020012109050746864611E0644638
:100710001D46141BB54106D36546521BB3417446B2
:1007200007430C43A646CD074008490828439218C2
:100730005B4105460D43EAD11046184313D060468D
:10074000194650407140084306D06046101AB34124
:1007500006D20122002306E000220123DB0702E08B
:100760000122D2435310009874460105381C6141A0
:10077000029C039D0019694100F0B4F9BFE7000035
:10078000FD0300000122D207002800DB101A002917
:1007900000DB511A814201D20120704700207047CE
:1007A0000122D207002800DB101A002900DB511AB1
:1007B000814201D90120704700207047C217C10F44
:1007C000504010B54018CA079623002100F051F997
:1007D00010BD10B500229623114600F04AF910BD55
:1007E0000EB5C217C10F5040CA0740180021054B73
:1007F0000293019200910A460B4600F080F903B083
:1008000000BD000033040000C20F4100400201237C
:10081000400ADB05D207090EC0187F2901DA002043
:100820007047962903DC9623591AC84001E096398F
:100830008840002AF4D040427047C20FD2074000DF
:1008400040080BD0C10D0723DB01C9184002090580
:10085000400A1143C2084007114370470020014677
:10086000704770B50446002903D0002020220123E0
:1008700010E0002801D00020C043C046C0460DE073
:100880002546D5408D4205D30D469540641B1D4637
:10089000954040191546521E002DF1DC214670BDD1
:1008A000F0B51FB40646002082B0054640240191F1
:1008B00000901BE0019922460F46304600F070FA86
:1008C000049A059B801A994110D310461946224676
:1008D00000F016F8361A8F410197224601200021B8
:1008E000009F00F00DF838184D4100902046641E1E
:1008F0000028DFDC019B00982946324607B0F0BD96
:1009000010B5202A04DB0146203A9140002010BD9A
:10091000914020239C1A0346E3401943904010BDA8
:1009200001464139192900D8203070473A2800D2B1
:100930003038202302469A43412A01D310463738E3
:10094000884201D30020C04370470000026813783A
:10095000511801601846704710B5D16004495161C3
:100960000449116200211161114600F03DFA10BDE9
:100970004D090008F90000084268002A08D0016803
:100980000B78491C002B03D0521E06C01846704736
:100990000121C160881E70474268002A0BD0C368DD
:1009A0000168002B07D183688B4204D0491E521C7A
:1009B00006C0002070470020C0437047F7B582B0E2
:1009C000029C00272078641C15460197302802D02D
:1009D000002D15D015E020780127641C782804D05C
:1009E000582802D0002D09D00BE0002D01D0102D89
:1009F00007D1002710252078641C02E0082500E0BC
:100A00000A250026009610E000990127694308187E
:100A1000020C294680B2714300908E183804864239
:100A200001D3012001902078641C2946FFF77EFF46
:100A30000028E9DA0398002805D0002F01D0641EB1
:100A400000E0029C04600198002806D00AF08AFAAF
:100A500002210160C81E05B0F0BD009930040843B2
:100A6000F9E7002904DA401C490001D140084000A0
:100A7000704770B40024050C05D11024000402D185
:100A8000002921D01124050E01D100020834050FE0
:100A900001D10001241D850F01D18000A41C002874
:100AA00001DB4000641C002908D020252E1B0D46C8
:100AB000F540A14000D001212943084301061B1B3A
:100AC000000ADB1D02D5002070BC7047DB0518183A
:100AD00080180029F8DA401C4900F5D170BC4008A4
:100AE0004000704710B5002B08DA0024401C61411B
:100AF00092185B411A4301D14008400010BDF0B587
:100B00001FB482B005460C0003D008460AF012FA62
:100B100002E00AF00FFA20300246009021462846F3
:100B2000FFF7EEFE049B059A04460F461843114357
:100B3000084314D0184610431BD0009840210A1ACD
:100B40001846059900F02CF905460E46009A0599BD
:100B50000498FFF7D5FE084305D0012004E02046A5
:100B6000394607B0F0BD0020C11705430E432C43A2
:100B7000374300990E986305401A7905E40A00226C
:100B80000C43FD0A0A3002D500200146E9E70105C1
:100B9000101969410C9C0D9D00196941FFF7A2FFD6
:100BA000DFE70000F0B507460846584087B0C00FA1
:100BB000049048000E46590040084908BC1A884174
:100BC00005D2384631461E4617460B4602465800A7
:100BD000400810434CD0300D039040055900400DA3
:100BE000490D0590401A0290402872DA180301213D
:100BF000000B09050843019004980092002805D0D5
:100C000001995242002088410092019002984021AF
:100C10000A1A01990098FFF773FE05460C466B46C9
:100C200007CB00F0CEF8C0197141039A0E0D0023D6
:100C3000D71756401A467A40164344D0049A002AE1
:100C40002DD0029A012A039A15DC1205C01A91418F
:100C500001263605001C7141D20F059ED207009374
:100C6000019202962A462346FFF749FF07B0F0BDDE
:100C700038463146FAE71605224A0F46B218C01A1E
:100C8000B74101210905001C4F4100187F41114661
:100C900018187941E20F10436D19644113E0E2071F
:100CA0006D0815436408C2071443039A0126120510
:100CB000C01A91413605001C7141CE0740083043EF
:100CC0004908C01851412A462346FFF70BFFCDE7DC
:100CD000FFE7049801224000C117121A00238B413C
:100CE00004983146C417381AA141EEE730B4012404
:100CF000E407634030BC55E730B40124E4076140A9
:100D000030BC4FE70000E0FF4A0009030123090B54
:100D10001B0519430A4B10B5520D9A4202DA002006
:100D2000014610BD064B34339A4203DC9A1A00F098
:100D300037F810BD034BD218FFF7E2FD10BD0000DD
:100D4000FF030000CDFBFFFF10B5002904DB0124E9
:100D5000E40740428C412146002B04DB1C46012362
:100D6000DB075242A341994200D1904210BD0000DE
:100D70001CB5094800900948019005460126009CD1
:100D800005E0E36807CC33430C3C98471034AC4291
:100D9000F7D3FFF799F90000A0CD0008C0CD0008F7
:100DA00010B5202A04DB0846203AD040002110BDAF
:100DB0000B46D340D0402024A21A91400843194644
:100DC00010BD10B5202A06DBCB170846203A10418B
:100DD000C1170B4306E00B461341D0402024A21A52
:100DE00091400843194610BDF3B58DB000200A901C
:100DF00001200B90002608460C300C4609906269D1
:100E0000012109989047051E2ED0252D2DD0216A4D
:100E10008847002818D06269012109989047216A03
:100E200088470028F7D1411E62690998904700E081
:100E3000761CA1690D988847216A88470028F7D158
:100E4000E1690D988847DAE7A1690D988847074658
:100E5000A84201D1761CD2E7E1690D9888477F1C32
:100E600002D10A98002877D049E1002762693D46FF
:100E70003946099890472A280CD1626901210998BE
:100E80009047012506E00A214F433F18303FEBD43D
:100E900010200543626901210998904701463039C5
:100EA0000A2903D29B498F42DEDCECE7E90600D435
:100EB000994F6C280AD04C2810D0682824D06A2872
:100EC0002ED074280CD07A280AD00DE06269012156
:100ED000099890476C2823D004211CE0202005436A
:100EE0006269012109989047A760656065284FD025
:100EF00026DC582839D01ADC452849D012DC2528B0
:100F000034D04128B0D143E062690121099890476B
:100F1000682802D008210D43E6E70120C002DEE781
:100F20000220DCE7462833D047282CD130E05B286C
:100F300070D061282CD063286CD0642823D161E064
:100F40006F284FD009DC662822D0672820D0692876
:100F500026D06E2817D12EE0CDE070284DD0732812
:100F60006FD075284ED078280DD154E0A1690D9826
:100F700088470546252800D16CE7E1690D98884728
:100F80006D1C00D16DE7BAE00A224CE00A2252E063
:100F9000012023466A46C0430D99C046C046A3E0DF
:100FA0002846402108436060A807234601D5002257
:100FB00039E000223FE0E80700D020E72068011D6B
:100FC00021600068290501D5067018E7290701D5B9
:100FD000068014E7A90703D5F117066041600EE704
:100FE00006600CE72846402108436060A8072346B6
:100FF00001D5082217E008221DE04849284608408C
:10100000606016E02846402108436060A807234638
:10101000BCD5B9E715E02846402108436060A80721
:1010200007D5234610220120C0430D99C046C04673
:101030005AE0234610220120C0430D99FFF7F6F82D
:1010400052E000210C910B460091632802D05B28EE
:1010500007D043E0E80601D40120A0600120009001
:101060003CE062690121099890475E2805D1012082
:101070000C9001466269099890472169002906D1C0
:101080000B4601AA8F00491CD3510829FADB00281E
:1010900035D0216900290ED1C117C90E09184A118E
:1010A000930001AA9A1849094901411A01201368BD
:1010B00088400343136062690121099890475D28C5
:1010C000E5D10C98002808D0002001AB81005A58C7
:1010D000401CD2435A500828F8DB01AB01202246BD
:1010E000C0430D99C046C04600280ADA401C06D10C
:1010F0000B98002803D00020C0430FB0F0BD0A9821
:10110000FBE7E90702D10A99491C0A913618002029
:101110000B9074E6CCCCCC0CFFFFFF7FF1F7FFFF08
:10112000F0B581B005460024009400688168C907C5
:101130001CD181682B4A2F3211420AD0A86D102190
:101140000143A965E86D01242043E865204601B00C
:10115000F0BD8168234A114001273943816022484C
:101160000068000205D4687E012825D1204601B020
:10117000F0BD1E4800681E49FFF773FB401C00903D
:1011800000980028EFD00098401E0090009800289A
:10119000E9D00098401E009000980028E3D0009805
:1011A000401E009000980028DDD00098401E00905E
:1011B00000980028E7D1D6E704F074FA064604E068
:1011C00004F070FA801B0328B8D228680168C907A8
:1011D000CCD18168C907F3D18168024A11403943F3
:1011E0008160EDE7E8FFFF7F082701402C00002029
:1011F000400D0300F0B583B05E490A684968401AA3
:1012000086185B49CF6801200023BE4202460EDDEE
:101210004C68A64205460FDA1543012D10D14D69E1
:10122000AE4213DC0022BE42034613DA13E01A4634
:101230004C68A6420546EFDB1D461543012DEED056
:101240000D4608350868A74217D043E00122BE4288
:10125000034600DB1346012B06D1CB699E420EDC10
:101260000022AE420EDA0EE028460D461035083157
:101270003C4607460868A7422CD103B0F0BD0122C6
:10128000AE4200DB1046029500281BD0A6423BDA96
:10129000886809680291FFF712F90546381BFFF7C5
:1012A0008DFA01462846FFF74FF90546301BFFF738
:1012B00085FA01462846FFF70AF90299FFF7AEF8CA
:1012C00003B0F0BD0D4618351031029C1F4608686A
:1012D000A742D2D0391B07460846FFF76FFA0290A3
:1012E00028683946FFF7EBF80299FFF72DF9054614
:1012F000301BFFF763FA01462846FFF7E8F8394646
:10130000FFF78CF803B0F0BD8869019009691C46AD
:10131000FFF7D5F807460298201AFFF74FFA014663
:101320003846FFF711F90546301BFFF747FA01462B
:101330002846FFF7CCF80199FFF770F803B0F0BD2D
:10134000B0B50A4C012500222046294604F0A1F937
:10135000284604F0A3F8204629462A4604F099F9C5
:101360000348406803490860B0BDC046000400500F
:101370003000002058000020F0B585B072B600257E
:101380002C46009505E0019F79000D18641C182C6F
:101390004ED00195102101223D4804F07AF90098C1
:1013A00003900398072817D80398401C03900398CC
:1013B000072811D80398401C0390039807280BD8DE
:1013C0000398401C03900398072805D80398401CF5
:1013D000039003980828E7D320212D4F384604F0C6
:1013E00053F90546102100263846324604F051F9DB
:1013F0000496691E4842484104990729C3D80499B4
:10140000491C049104990729BDD80499491C0491E9
:1014100004990729B7D80499491C0491049907290C
:10142000B1D80499491C049104990829E7D3AAE783
:1014300010210122164804F02CF902960298072880
:1014400017D80298401C02900298072811D80298D9
:10145000401C0290029807280BD80298401C02906A
:101460000298072805D80298401C02900298082884
:10147000E7D310210022064804F00BF9780202D5C8
:10148000FF200006054362B6284605B0F0BDC04601
:1014900000080050B0B5FFF76FFF0446FFF76CFF80
:1014A0008442254609DA84420ADDFFF765FF84425B
:1014B0000BDAA5420CDD2846B0BD05468442F4DCBB
:1014C0000446FFF759FF8442F3DB0446A542F2DCF1
:1014D00025462846B0BD0000F0B591B0F7A00AF04F
:1014E000BBF9012080050B90FF20019000060A90B7
:1014F0000024F04D0C940294EF494E1C0C9A1446B3
:10150000134603E0641C202C00D1EFE107940893FC
:1015100009920691304672B60C9E3446059005E05D
:101520000E9949000E18641C182C4ED00E961021EE
:101530000122284604F0ADF80C9810901098072866
:1015400017D81098401C10901098072811D81098A0
:10155000401C1090109807280BD81098401C109031
:101560001098072805D81098401C1090109808284B
:10157000E7D32021284604F087F8064610210027EB
:1015800028463A4604F085F80D971097711E484298
:10159000484110990729C3D81099491C10911099F6
:1015A0000729BDD81099491C109110990729B7D85F
:1015B0001099491C109110990729B1D81099491C0C
:1015C000109110990829E7D3AAE710210122284693
:1015D00004F05FF80D9810901098072817D810980D
:1015E000401C10901098072811D81098401C10909B
:1015F000109807280BD81098401C109010980728B6
:1016000005D81098401C109010980828E7D3102196
:1016100028460D9C224604F03CF831460A980143C6
:1016200004910B980E9901400E9162B672B627464E
:10163000204606E00F99490008187F1C182FBE4D60
:101640004ED00F9010210122284604F022F80D9868
:1016500010901098072817D81098401C10901098D8
:10166000072811D81098401C1090109807280BD804
:101670001098401C10901098072805D81098401C0E
:10168000109010980828E7D32021284603F0FCFF8B
:101690002A460546102100241046224603F0F9FF91
:1016A0001094691E4842484110990729C2D81099E0
:1016B000491C109110990729BCD81099491C109108
:1016C00010990729B6D81099491C1091109907292B
:1016D000B0D81099491C109110990829E7D3A9E7AF
:1016E0000D9010210122284603F0D3FF10940E988C
:1016F000002800D0049E04961098072817D8109848
:10170000401C10901098072811D81098401C109079
:10171000109807280BD81098401C10901098072894
:1017200005D81098401C109010980828E7D3102175
:101730002846224603F0ADFF0D990A980143039114
:101740000B980F9901400F9162B672B62646254656
:1017500005E00E9949000D18761C182E4ED00E95F6
:1017600010210122744D284603F093FF1094109825
:10177000072817D81098401C10901098072811D8E7
:101780001098401C1090109807280BD81098401CF7
:1017900010901098072805D81098401C10901098A9
:1017A0000828E7D32021284603F06EFF2A46054685
:1017B0001021002710463A4603F06BFF1097691E70
:1017C0004842484110990729C3D81099491C1091E3
:1017D00010990729BDD81099491C10911099072913
:1017E000B7D81099491C109110990729B1D81099B0
:1017F000491C109110990829E7D3AAE7102101226A
:101800004D4803F046FF10970F98002801D0039829
:101810000D9010980728079C049E17D81098401C1C
:1018200010901098072811D81098401C109010980C
:1018300007280BD81098401C10901098072805D83E
:101840001098401C109010980828E7D3102100220F
:1018500039480F9203F01DFF62B60A2003F01EFE06
:101860000B980E99014201D00A980543099A089BEA
:10187000069F0D998E42304611DDA84212DA8E4243
:1018800013DA86422C4D00DC0646F0179B194241C4
:1018900005988642314623DDB94225DA32E608460C
:1018A000A842ECDB28468E42EBDB0E468642224DF8
:1018B000EADDEAE700080050FFFFFF7F5461726134
:1018C0006E646F2E2E2E20416775617264652065EF
:1018D00073746162696C69646164652E0D00000057
:1018E0000646B94200DA0DE639460BE6711A019850
:1018F0002C308142029C0DDD1BA009F0DBFA641C38
:101900000A2C00D0F7E5264809F0A6FF0B484068EE
:1019100011B0F0BDD017C00E18180F9951414009F1
:10192000C90641180548416005A009F0C3FA0348FB
:10193000406811B0F0BDC0460008005058000020BB
:1019400054617261206573746176656C20636F6E9B
:10195000636C7569646121204F6666736574203D10
:101960002025640D0A0000004C656974757261736E
:1019700020696E7374617665697320286469666690
:101980003A202564292E2054656E74616E646F20A0
:101990006E6F76616D656E74652E2E2E0D0A0000D9
:1019A0008CBC00087D200001054948607047C04696
:1019B000704700007D200001014988607047C046E3
:1019C0005C010020F0B585B0334800F0E1FC334CF9
:1019D000334D2046294601F0EBF9324802F058F821
:1019E000314802F015FA314807F0A4FC07F0DCFB9F
:1019F00007F0CEFF02F064F9FFF7A2FC2C4809F0D3
:101A00002BFF2C4809F028FF2B4809F053FA02F06D
:101A10007BFB002801D12BA000E028A009F01CFFCF
:101A2000334807F0CBFB334807F0DCFB6E46112749
:101A30003046394602F0C4F92046294601F0B8F98B
:101A400001200403204610302BA1042201F05EFC8B
:101A50002BA10822204601F059FC204620302BA162
:101A6000072201F053FC3034204631463A4601F05B
:101A70004DFC28A009F0F0FE01F0CEF9002805D0B9
:101A800001F056FD01F0C8F90028F9D12E4809F0FF
:101A9000E3FE05B0F0BDC046CC0A0020600B00207C
:101AA000E52A000840060020AC040020740900204C
:101AB0003CCA00088CCA0008B4CA00085B4F4B5DE2
:101AC0000D0000005B415649534F5D205265737411
:101AD00061757261646F20636F6D20636F6E6669FC
:101AE000677320646520666162726963612E0D0010
:101AF00000008E420AD7CD41312E30300000000068
:101B0000302E30302E30303100000000302E30309A
:101B10002E303200456E7669616E646F20696E66A4
:101B20006F726D61636F657320696E696369616966
:101B3000732070617261206F20646973706C6179C9
:101B40002E2E2E0D00000000E5C90008F0B591B062
:101B500000F048FD01F0ECFC01F06AF900F06CFCCB
:101B600007F022FF03F09EFD6D4EB168401A7D2103
:101B7000CF00791E884243D83078012869D003F01D
:101B800091FD7178002971D001F0CAF8382801D090
:101B900035287BD101A807F0FDFA64490198FEF7CA
:101BA000D3FC634D2946FEF792FCFEF72DFE01465D
:101BB000604C2046203001F09DFA02982946FEF73D
:101BC00086FCFEF721FE01462046303001F092FAF5
:101BD000B078401CB070C0B2052859D30020B07056
:101BE00007F0AAFF054607F0F9FA51492846FEF723
:101BF0006EFCFEF709FE0146204601F00DFA47E0B3
:101C000003F050FDB06002F057F8044602F05EF8B1
:101C10002046FEF7DEFD044607F0D8FA7F20C00517
:101C2000019000200E9001A80EA902F057F83D493E
:101C30002046FEF74CFC3C49FEF7F0FB0199FEF70D
:101C400046FC0E99FEF7EAFB07F0BCFA3078012853
:101C500095D100203070FFF71DFCFFF7CBFA07F09D
:101C6000B9FA03F01FFD717800298DD17168411A0E
:101C7000B9420FD3706001F0CFF800280AD10120DB
:101C8000707001F04DF8382882D183E70020B070E1
:101C90000020707003F006FDF168401AB8423AD394
:101CA00003F000FDF06001F03BF8082833D10DA8E7
:101CB0000CA90BAA07F016FB00282CD00AA809A92A
:101CC00008AA07F0EBFA002825D00CA803780DA885
:101CD00002780BA80078009001AC17A1204609F00B
:101CE00015F90AA8027809A8037808A800780090D6
:101CF0000EAD15A1284609F009F901204603082771
:101D0000304621463A4601F001FB1036304629465E
:101D10003A4601F0FBFA02F083F811B0F0BDC0467C
:101D20003001002086D01CB9CD6CC64300007A4437
:101D30000000204130220000253032643A25303244
:101D4000643A253032640000253032642F25303269
:101D5000642F25303264000070B504463B4809F01A
:101D60007BFD002001F0E4F801F0E2FB384803F0CD
:101D700095FB384809F070FD012001F0D9F801F019
:101D8000D7FB7D20C5002E46C836304603F086FBC3
:101D9000314809F061FD022001F0CAF801F0C8FBEA
:101DA000304603F07BFB2D4809F056FD032001F07F
:101DB000BFF801F0BDFBFFF78FFB284603F06EFB79
:101DC00027A009F049FD042001F0B2F801F0B0FBB2
:101DD00007F0B2FE064607F001FA3046FEF72DFD89
:101DE000024629A00B4609F065F8284603F056FB89
:101DF0002DA009F031FD052001F09AF801F098FBC3
:101E000001F052FE0646002815D033A009F024FD4B
:101E10006435284603F042FB344809F01DFD0620D6
:101E200001F086F801F084FB284603F037FB3048C8
:101E300009F012FD03E0274809F00EFD3B2420467F
:101E400001F076F801F074FB304670BD67CA0008F7
:101E5000B80B0000C1C900088EC9000869C9000894
:101E6000446961676E6F737469636F3A2056657277
:101E700069666963616E646F205465726D6F6D652C
:101E800074726F2E2E2E0D002020202E2E2E205408
:101E9000656D70657261747572613A20252E3266C7
:101EA00020430D0A00000000446961676E6F73747F
:101EB00069636F3A2056657269666963616E646F23
:101EC000204D656D6F72696120454550524F4D2E12
:101ED0002E2E0D0018CA00082020202E2E2E204560
:101EE0004550524F4D204F4B2E0D000048C9000861
:101EF00024C9000810B586B01C4C204608F0DAFF53
:101F0000204608F0D7FF1A4808F0D4FF05A804A916
:101F100003AA07F0E7F9002808D003A8037804A86B
:101F2000027805A8017813A008F0C4FF02A801A94F
:101F30006A4607F0B3F9002808D06846037801A87C
:101F4000027802A8017816A008F0B4FF074C2046DA
:101F500008F0B0FF204608F0ADFF204608F0AAFFC9
:101F6000204608F0A7FF06B010BDC046A1CB000870
:101F7000BFB90008417373696E6174757261202086
:101F800020202020202020202020202025303264E6
:101F90003A253032643A253032640A0D00000000E0
:101FA000526573706F6E736176656C2020202020FF
:101FB0002020202020202020253032642F25303280
:101FC000642F253032640A0D0000000010B586B081
:101FD000072901D8464828E0801D891F89B203AA35
:101FE0000B2301F047FA00281ED003A80078002830
:101FF00022D06846002484720481019400940B214D
:1020000001F0CCFE00281FD069468C7203A8FEF7B1
:10201000C4F800281DD01EA003A908F04BFF3E20E5
:1020200000F086FF06B010BD0EA009F015FC3B20A5
:1020300000F07EFF06B010BD25A009F00DFC3E208B
:1020400000F076FF06B010BD3B2000F071FF06B037
:1020500010BD19A009F000FC172000F069FF06B0C0
:1020600010BDC046417574683A2046616C686120B5
:102070006E6F2070617273657220726F6275737417
:102080006F2064612073656E68612E0D0000000092
:10209000417574683A2053656E686120696E636F9C
:1020A00072726574612E20446967697461646F3A65
:1020B00020272573270D0A00417574683A2053655F
:1020C0006E686120636F7272657461210D0000009B
:1020D000417574683A2053656E68612076617A694B
:1020E000612072656365626964612E0D0000000005
:1020F00069CD000810B584B0082904D23B2000F057
:1021000017FF04B010BD801D891F89B201AA0B23DF
:1021100001F0B0F9002816D001A8FEF737F8002822
:1021200013D0314C2178002917D000202070641C76
:1021300001A92046FEF731F8002820D0402000F009
:10214000F7FE04B010BD15A000E01EA009F084FB4E
:102150003B2000F0EDFE04B010BD042804D23F2067
:1021600000F0E6FE04B010BD601C01A9FEF723F8E4
:10217000012020701F2000F0DBFE04B010BD2046BF
:1021800001F090FF002804D13B2000F0D1FE04B004
:1021900010BD172000F0CCFE04B010BD417574686E
:1021A0003A2046616C6861206E6F207061727365C1
:1021B00072206465206E6F76612073656E68612E93
:1021C0000D000000417574683A204E6F76612073EF
:1021D000656E68612076617A696120646573636108
:1021E00072746164612E0D004C01002010B500680E
:1021F000C169090702D5416A08210162E44CE0681F
:1022000005F010FCE0680122214605F0C7FF10BD73
:10221000F0B581B0574C6078002800D0A7E0257851
:102220000C2D32DC082D40D00A2D32D0FDF760FF96
:102230000068405D8006C00E00D189E0A0887E283D
:1022400000D985E04E490D54401CA0801B2003F0AE
:1022500039FE092003F036FE47480A2D0AD1E188ED
:10226000491C01402289914204D0E288434B0D264B
:102270009E54E180E188491C0140208981425DD063
:10228000E0883E4A1554E18058E07F2D0DD00D2D99
:10229000CCD1A088002858D0394900220A54012006
:1022A000607038A009F0D8FA52E0A08800284FD01A
:1022B000401EA0801B2003F005FE092003F002FE53
:1022C000E088401C2C4F38402189884204D0E188A6
:1022D0002A4A08235354E0801B25284603F002FEB7
:1022E0000926304603F0FEFD284603F0EBFD30469C
:1022F00003F0E8FDE088401C38402189884204D082
:10230000E1881E4A20235354E0801B25284603F011
:10231000E9FD0926304603F0E5FD284603F0D2FD2D
:10232000304603F0CFFDE088401C384021898842C8
:1023300004D0E188114A08235354E0801B2003F0A5
:10234000D1FD092003F0CEFD02E0A54808F0B2FD62
:10235000E0680122214605F021FF002807D0E0684F
:1023600005F060FBE0680122214605F017FF01B08F
:10237000F0BDC046E0000020FF030000780C002004
:10238000F80B00200D000000BA4800218170704752
:1023900080B50849C860012205F000FF002801D07F
:1023A00001F087FC04A009F057FA8D4808F082FD7F
:1023B00080BDC046E00000200D0A434C4920507209
:1023C0006F6E74612E2044696769746520274845E3
:1023D0004C5027207061726120636F6D616E646F75
:1023E000732E0D0070B504461B2003F06BFD092011
:1023F00003F068FDA0480A2C0BD19E49CA88521CE4
:1024000002400B899A4204D0CB889C4D0D26EE5495
:10241000CA809849CA88521C02400889824203D067
:10242000C888964B1C54CA801B2003F05BFD092012
:1024300003F058FD70BDC046F0B581B0544E7078C1
:10244000012800D0A2E0FDF753FE05460068514C7C
:102450002778C15DC90706D06778C15DC907A41C8C
:102460000029F5D1641E20212046FDF785FE0028B5
:102470001AD000210170811C2A684D1E2878135C37
:10248000DB0716D00878135CDB0711D04878135CA3
:10249000DB0759D08878135CDB07091D002BECD1D2
:1024A0008D1E002807D007E00025002F07D163E02C
:1024B0000D46002800D105462778002F5CD036490C
:1024C0002046FDF781FE00283CD035492046FDF727
:1024D0007BFE324F00283BD032492046FDF774FE88
:1024E000002837D030492046FDF76EFE002833D053
:1024F0002E492046FDF768FE00282FD02C492046A3
:10250000FDF762FE00282BD02A492046FDF75CFE2D
:10251000002827D028492046FDF756FE002823D062
:1025200026492046FDF750FE00281FD024492046AA
:10253000FDF74AFE00281BD0224823A1224608F0BE
:10254000B9FC19E0154F14E04D1C0028B3D0B3E7D7
:1025500008370EE010370CE018370AE0203708E0A3
:10256000283706E0303704E0383702E0403700E033
:10257000483779682846884706488021FDF7E4FDFA
:1025800000207070B080164808F094FC01B0F0BDD7
:10259000E0000020F80B00200DC90008CCBB0008AB
:1025A000E2C8000803C9000808C9000812C90008E9
:1025B00017C90008E8C80008FAC80008F0C80008F1
:1025C000F5C80008A1C80008436F6D616E646F20F4
:1025D000646573636F6E68656369646F0000000013
:1025E0009CC8000870B5234CA078002803D1E0886F
:1025F0002189884200D170BD1B2003F063FC0920B3
:1026000003F060FCA078012806D11B2003F06AFCCF
:10261000092003F067FC70BD0120A0702089E188CB
:10262000884201D1002512E000211348134A238972
:1026300025896D1C054025816518D35C2B74238981
:102640004D1CE688B34202D03F292946EFD31B2018
:1026500003F048FC092003F045FC2804CBD0E068D7
:1026600021461031AAB205F0D9FD0028C3D00020C0
:10267000A07070BDE0000020FF030000780C002077
:1026800070B5002818D00446FDF732FD05460068F5
:102690002178415CC90716D06178415CC9070FD029
:1026A000A178415CC9070DD0E178415CC907241DC0
:1026B0000029EDD1641E06E040A008F0FBFB70BDD0
:1026C000641C00E0A41C20212046FDF755FD0028D5
:1026D0001AD000210170811C2A684D1E2878135CD5
:1026E000DB0714D00878135CDB070FD04878135C45
:1026F000DB0738D08878135CDB07091D002BECD191
:102700008D1E002805D005E0002503E00D460028B9
:1027100000D105461B492046FDF756FD002818D07C
:102720001A492046FDF750FD174E002816D01849CB
:102730002046FDF749FD002819D016492046FDF72F
:1027400043FD002818D0144814A1224608F0B2FB1B
:1027500070BD0D4E71682846884770BD0836716897
:102760002846884770BD4D1C0028D2D0D2E71036CD
:1027700071682846884770BD1836716828468847B2
:1027800070BDC046E4C800081CBC00081CC9000895
:10279000BBC8000820C90008A1C8000853756263BF
:1027A0006F6D616E646F204457494E20646573639A
:1027B0006F6E68656369646F000000005375626343
:1027C0006F6D616E646F204457494E2066616C7472
:1027D000616E646F2E20557365202748454C502745
:1027E0002E00000080B588B001A806F0D3FC0AA036
:1027F00009F032F80198FEF720F802460CA00B46CB
:1028000008F058FB0298FEF718F802460FA00B4696
:1028100008F050FB08B080BD4461646F73206465AC
:10282000204672657175656E6369613A0D0000003E
:1028300020202D2050756C736F732028656D20311A
:1028400073293A20252E31660D0A000020202D2004
:10285000457363616C612041202863616C63293A90
:1028600020252E32660D0A0080B588B001A806F03A
:1028700091FC0398FDF7E1FF024603A00B4608F028
:1028800019FB08B080BDC0464461646F7320646169
:102890002042616C616E63613A0D0A20202D205048
:1028A00065736F3A20252E326620670D0A000000FE
:1028B00080B507F041F9FDF7C0FF024602A00B46C4
:1028C00008F0F8FA80BDC04654656D706572617499
:1028D00075726120696E7465726E6120646F204D3F
:1028E00043553A20252E326620430D0A0000000091
:1028F00080B5024808F0B0FF80BDC046A6C40008FD
:1029000080B52E2000F014FB80BD0000B0B584B06F
:10291000002825D001A9009119A103AD02AC2A46D7
:102920002346FDF765FC03281FD12878411EC9B254
:102930001E291AD821784A1ED2B20B2A15D801AA0C
:10294000127806F02DFD002814D001A8037802A803
:10295000027803A801781CA008F0ACFA04B0B0BD5E
:10296000244808F079FF04B0B0BD094808F074FFAE
:1029700004B0B0BD07A008F06FFF04B0B0BDC04602
:10298000256868752F256868752F256868750000AB
:1029900000C400084572726F3A2046616C6861207D
:1029A000616F2073657461722061206461746120BD
:1029B0006E6F20686172647761726520646F205267
:1029C00054432E0D000000004F4B2E205254432044
:1029D000617475616C697A61646F207061726120E5
:1029E000253032752F253032752F253032750D0A7E
:1029F000000000004CC4000870B584B0002822D04C
:102A000001AE009617A103AD02AC2A462346FDF79E
:102A1000EFFB03281CD12878172819D821783B29E7
:102A200016D832783B2A13D806F0CCFC002814D0F4
:102A300001A8037802A8027803A801781BA008F077
:102A400039FA04B070BD244808F006FF04B070BD28
:102A5000084808F001FF04B070BD07A008F0FCFEB4
:102A600004B070BD256868753A256868753A2568B0
:102A700068750000B5C300084572726F3A20466160
:102A80006C686120616F20736574617220612068D9
:102A90006F7261206E6F2068617264776172652069
:102AA000646F205254432E0D000000004F4B2E2027
:102AB00052544320617475616C697A61646F20704F
:102AC00061726120253032753A253032753A2530F1
:102AD00032750D0A0000000079C4000880B508F0C6
:102AE00049F880BD10B5062900D2D6E002785A2AEE
:102AF00000D0D2E04278A52A00D0CEE0C278832A66
:102B000000D0CAE0427903791B029A18082992B2D0
:102B100014D30023614CA2420ED0614CA2420BD0D0
:102B2000604CA24208D08378DC1C8C4206D8C318C3
:102B30009C785B781B021B195B4C23805B4B9A4291
:102B400015DC644B9A422ADC664B9A4247DD8120B1
:102B50008001824200D181E06348824269D06348AB
:102B6000824200D099E064A008F0A4F910BD504B57
:102B70009A4224DC544B9A423ADD544B9A4270D02C
:102B800031200002824259D08120C001824200D00F
:102B900083E000204449085E01F0E2FC10BD4E4B8A
:102BA0009A4231DD4D4B9A4260D0C1239B019A423B
:102BB00047D03C4B9A4270D1FFF79CFA10BD3D4B79
:102BC0009A422CDD3C48824255D03C48824240D05B
:102BD0003B48824261D147483821018010BD444BB7
:102BE0009A424BD02D4B9A4257D1FFF7EFF910BDC7
:102BF000374B9A4248D06123DB019A424DD12A4A91
:102C0000128800F0BDFE10BD254B9A4240D03448DA
:102C1000824242D12448008800F06AFE10BD05239C
:102C20001B039A4237D0274B9A4236D106F030FC2C
:102C300010BD1D48008800F029FD10BD00F002FF06
:102C400010BD19480088411E4842484100F020FE4E
:102C500010BD1548008800F0B5FC10BD01F044FC23
:102C600010BD114A128800F069FD10BD0E480088A1
:102C700000F0C6FD10BD00F0EFFE10BD00200A49B7
:102C8000085E00F0BDFC10BD2020FFF765F810BD08
:102C900006F0EAFC10BD05F03BFD10BD3020000041
:102CA0000F30000060300000F40B00206F30000097
:102CB000FF4F00002F7000003070000060700000B7
:102CC00090700000207000008F30000090300000F5
:102CD000703000000E3000002F3000003030000057
:102CE000203000003F200000502000006020000045
:102CF0002020000050000020426F74616F20446566
:102D000073636172746120416D6F737472612050DE
:102D100072657373696F6E61646F0A0D0000000065
:102D2000034800887047C046014908807047C04684
:102D30005000002080B5024802F058FA80BDC0461D
:102D40002C05002080B5034802F050FA024802F03A
:102D50004DFA80BDD00400208805002080B50248CF
:102D600002F044FA80BDC046E405002080B500684A
:102D70000E21016202F096FCDC4948610020887057
:102D8000487080BD10B54A1E3F2A0AD80068054A1F
:102D9000904206D1D54C21810120607002F082FC66
:102DA000A06110BD00440040D04800210170704770
:102DB000F0B581B00546CD4F002038707870B880EE
:102DC000F880B870FD60396178613C461C3440265B
:102DD00020463146FDF7B8F9C5488021FDF7B4F922
:102DE0000C483146FDF7B0F928462146324604F03A
:102DF0004DFD00280BD0F86804F014FEF86840225E
:102E0000214604F043FD002801D000F052FF01B03C
:102E1000F0BDC04674130020F3480178002901D0AA
:102E2000012070478188C088081A411E8841704778
:102E300070B590B002F036FCEB4E7169002907D0F6
:102E40007169411A64295FD3002171610121B17058
:102E5000B17801291CD10020B0707070F06804F0C6
:102E6000E1FDF06834461C344022214604F00EFD9A
:102E7000002849D0F06804F0D5FDF06840222146D2
:102E800004F004FD00283FD000F013FF10B070BD27
:102E90007178012938D1B169401A142834D372B637
:102EA000348935461C35684629462246FDF733F9F4
:102EB00000207070308162B6F0684022294604F02C
:102EC000E5FC00280BD0F06804F0ACFDF06840226F
:102ED000294604F0DBFC002801D000F0EAFE6B4636
:102EE000987859781A78062C10D15A2A0ED1A5292B
:102EF0000CD103280AD1DD78822D07D11D794F2D01
:102F000004D15B794B2B01D110B070BD042CFBD3E5
:102F10005A2AF9D1A529F7D1C01CC1B28C42F3D3EA
:102F20003269002AF0D06846904710B070BDC046A4
:102F3000F0B581B004461C2002F0C4FF0B2002F063
:102F4000C1FFF0488188C288914207D2C188828837
:102F5000D24389188DB20A2D07D24EE08188C288EB
:102F6000511A7F318DB20A2D47D3210A00918288F0
:102F7000E5495A268E548288571C7F221740878045
:102F80008788A523CB5583885B1C13408380838867
:102F90000727CF5483885B1C134083808388822754
:102FA000CF5483885B1C1340838083880027CF54D1
:102FB00083885B1C1340838083888427CF54838855
:102FC0005B1C134083808388CE5483885B1C134032
:102FD000838083880126CE5483885B1C13408380C2
:102FE0008388009ECE5483885B1C13408380838833
:102FF000CC548188491C114081801C2002F072FF52
:103000000B2002F06FFF092D02D8002001B0F0BDA7
:10301000012001B0F0BDC046F0B583B00C460546B6
:103020001C2002F04FFF0B2002F04CFFB5488188B6
:10303000C288914207D2C1888288D24389188EB251
:10304000082E07D243E08188C288511A7F318EB2A0
:10305000082E3CD3A1B22A0A0192090A0291828861
:10306000A9495A238B548288531C7F2213408380A2
:103070008388A527CF5483885B1C13408380838873
:103080000527CF5483885B1C134083808388822765
:10309000CF5483885B1C134083808388019FCF5467
:1030A00083885B1C134083808388CD5483885B1C9A
:1030B000134083808388029DCD5483885B1C13401A
:1030C00083808388CC548188491C114081801C20D6
:1030D00002F008FF0B2002F005FF072E02D80020A7
:1030E00003B0F0BD012003B0F0BDC0466000002079
:1030F000B4130020F0B585B00C4605461C2002F044
:10310000E1FE0B2002F0DEFED8488188C2889142A1
:1031100007D2C1888288D24389188EB20A2E07D27C
:1031200054E08188C288511A7F318EB20A2E4DD365
:10313000210A0491210C0391210E0291290A019187
:103140008388CB495A27CF5483885F1C7F231F4035
:1031500087808788A522CA558288521C1A4082809F
:10316000828807278F548288521C1A408280828866
:1031700082278F548288521C1A4082808288019F45
:103180008F548288521C1A40828082888D54828893
:10319000521C1A4082808288029D8D548288521C63
:1031A0001A4082808288039D8D548288521C1A4066
:1031B00082808288049D8D548288521C1A408280AD
:1031C00082888C548188491C194081801C2002F01F
:1031D00089FE0B2002F086FE092E02D8002005B0E1
:1031E000F0BD012005B0F0BD60000020F0B583B057
:1031F0000026002900D182E0054600287FD0EE4F4E
:10320000F86800287BD00C461C2002F05BFE0B20E7
:1032100002F058FEB888F98888420AD2F888B9883E
:10322000C943401880B284420AD8012684420AD990
:103230005FE0B888F988081A7F3080B28442F4D9F8
:103240000026844255D80196032021460140009172
:10325000611E032901D2002229E084430022029545
:10326000A85CBB883946D54FF8548888401C7F231A
:1032700018408880A818254644788E88BC558C88CC
:10328000641C1C408C8084788E88BC558C88641C9F
:103290001C408C80C0788C8838550F462C46029D87
:1032A0008888401C18408880121D9442D8D1009C08
:1032B000002C019E1DD0A85CBB88C049C854B888AA
:1032C000401C7F231840B880012C12D0A8184178E8
:1032D0002546BC88B94A1155B988491C1940B9809E
:1032E000022D06D08078B9885054B888401C184008
:1032F000B8801C2002F0F6FD0B2002F0F3FD3046F2
:1033000003B0F0BD60000020B4130020F0B593B00E
:103310000026002A00D1A6E0002900D1A3E014462F
:10332000A54FFA68002A00D19DE00190029108465D
:10333000FCF72CFF0546A04200D325466A1DD1B2FA
:103340003D2900D98FE003AC019B63718221E170BC
:10335000A270A52060705A202070180A2071A01D4C
:1033600002992A46FCF7D7FE2819FF21C171817105
:103370001C2002F0A7FD0B2002F0A4FDB98808353F
:10338000E8B2FA8891420BD2F988BA88D2438918F8
:1033900089B281420BD30122029281420BD25BE0BF
:1033A000B988FA88511A7F3189B28142F3D200225A
:1033B0000292814250D303210D400195411E032901
:1033C00001D2002125E0FC21084000217B4A03AC0A
:1033D000635CBE889355BB885E1C7F231E40BE8005
:1033E00064186678BD885655BD886D1C1D40BD802B
:1033F000A578BE889555BD886D1C1D40BD80E478BC
:10340000BD885455BC88641C1C40BC80091D884282
:10341000DDD1019D002D1FD003A8425CBB88674809
:10342000C254BA88531C7F221340BB80012D13D095
:1034300003AB5B185B78BC880355BB885B1C1340EF
:10344000BB80022D08D003AB59188978BB88C154C2
:10345000B888401C1040B8801C2002F043FD0B20AF
:1034600002F040FD029E304613B0F0BD6000002027
:10347000B4130020F0B583B01C4615460E46521E0C
:1034800029469141421E019090410840012E01D8E9
:10349000002100E001210140601E274687410F40C6
:1034A000012F42D128462146FCF74EFE022C38D38C
:1034B000B01EA11E884200D308460290401C009016
:1034C0000122002305E0D01C1B1D121D009988421B
:1034D00027D00198C6187178FF2922D0202900D35F
:1034E000E954029898421CD0B178FF2919D02029BC
:1034F00001D3E81841700298824212D0F178FF2976
:103500000FD0202901D3E8188170901C00998842BF
:1035100007D03179FF2904D02029D4D3E818C1700D
:10352000D1E72819401E00210170384603B0F0BDD4
:1035300070B5214C207800283DD1A088E1888842D0
:1035400039D01C2002F0BEFC0B2002F0BBFC20781E
:10355000012806D11C2002F0C5FC0B2002F0C2FCA1
:1035600070BD01202070E088A188884201D100252B
:1035700012E000211148124AE388C35C5354E388E7
:103580005B1C7F251D40E580E3884D1CA688B34267
:1035900002D03F292946EFD31C2002F0A3FC0B20C8
:1035A00002F0A0FCE068AAB2054904F037FE00284A
:1035B00001D00020207070BD60000020B4130020F6
:1035C0007413002080B5044804A12022FFF79EFE5A
:1035D0003820FFF7A9FB80BD9640000041646A7562
:1035E00073744672657175656E63793A2033303055
:1035F000302E304B487A2B2F2D322E300000000019
:10360000B0B50446102801D00C4800E00A4808254F
:103610002946FFF7EBFD102C00D10B252846FFF7BC
:1036200087FC102C03D010A007F044FCB0BD04A010
:1036300007F040FCB0BDC04660B9000868B900089A
:10364000446973706C61792048616E646C65723A8C
:10365000204465736C696761206261636B6C6967A4
:1036600068740A0D00000000446973706C61792071
:1036700048616E646C65723A2052656C69676120BE
:103680006261636B6C696768740A0D00F0B593B092
:1036900087490978012903D1002803D006F09CF856
:1036A00013B0F0BD08AC204600F062FB207809AEF4
:1036B000314600F043FB01A805F06CFD00F064FB0F
:1036C00004461B4D102228463146FFF71FFE2020DE
:1036D000315E2846C030FFF79FFC0A2712987843D6
:1036E00001B22846E030FFF797FCF08C784301B236
:1036F0002846F030FFF790FC012C01D00E4900E085
:103700000C490798FCF7E3FEFDF77EF8014690357B
:103710002846FFF781FC012C04D07720FFF708FC36
:1037200013B0F0BD1320FFF703FC13B0F0BDC0468B
:1037300070200000000020410000C842B0B594B0E5
:10374000502A1ED101AC00202075059004900390F2
:10375000029001901521204600F0D2FA07AD23A176
:103760002846224607F0D2FB2846FCF70FFD82B21E
:103770001D482946FFF7CAFD2320FFF7D9FB14B0E7
:10378000B0BD01AC00222275059204920392029210
:103790000192801D891F89B215232246FFF76AFE18
:1037A000002814D02078002811D001AC204600F069
:1037B00039FC07AD07A12846224607F0A7FB28469B
:1037C000FCF7E4FC82B208482946FFF79FFD14B0DD
:1037D000B0BDC0464E6F766120456D7072657361F5
:1037E0003A20257300000000964000004174756186
:1037F0006C20456D70726573613A2025730000007E
:1038000070B58AB0154C502814D100F0BDFA0246AC
:103810006D4619A1284607F079FB2846FCF7B6FC4F
:1038200082B220462946FFF771FD1B20FFF780FB7F
:103830000AB070BD054600F01BFC6E4608A130467C
:103840002A4607F063FB3046FCF7A0FC82B2204614
:103850003146FFF75BFD0AB070BDC04696400000E0
:103860004E6F766F204E525F446563696D616C7375
:103870003A20257500000000417475616C204E529D
:103880005F446563696D616C733A202575000000C3
:1038900080B507490870002804D109A10CA007F0E1
:1038A00009FB80BD03A10AA007F004FB80BDC04650
:1038B00052000020484142494C49544144410000D3
:1038C0004445534142494C495441444100000000A1
:1038D000446973706C61792048616E646C65723AFA
:1038E00020496D7072657373616F2025730D0A0036
:1038F00070B58AB0154C502814D100F049FA024630
:103900006D4619A1284607F001FB2846FCF73EFC4E
:1039100082B220462946FFF7F9FC1A20FFF708FB80
:103920000AB070BD054600F0AFFB6E4608A13046F8
:103930002A4607F0EBFA3046FCF728FC82B2204614
:103940003146FFF7E3FC0AB070BDC0469640000068
:103950004E6F766F204E525F526570657469746960
:103960006F6E3A2025750000417475616C204E52CF
:103970005F52657065746974696F6E3A20257500D1
:10398000B0B594B0502A1ED101AC0020207505902E
:1039900004900390029001901521204600F024FA33
:1039A00007AD23A12846224607F0B0FA2846FCF7C7
:1039B000EDFB82B21D482946FFF7A8FC2220FFF745
:1039C000B7FA14B0B0BD01AC002222750592049282
:1039D000039202920192801D891F89B2152322460B
:1039E000FFF748FD002814D02078002811D001AC42
:1039F000204600F06DFB07AD07A12846224607F0E0
:103A000085FA2846FCF7C2FB82B208482946FFF730
:103A10007DFC14B0B0BDC0464E6F766F20557375F7
:103A20006172696F3A202573000000009640000023
:103A3000417475616C205573756172696F3A202508
:103A40007300000080B5094809490E22FFF75EFCAB
:103A50002120FFF76DFA80BD80B5044804490E228D
:103A6000FFF754FC3220FFF763FA80BD9640000058
:103A70005ACD00080148012101707047440400201C
:103A800087498878012801D100228A707047C04692
:103A9000834900224A700A70C8600A618A707047C0
:103AA0007F4800787047C04680B57D48C0680028D0
:103AB00008D0A0210222642301F096FE0146404274
:103AC000484180BD002080BDF0B585B000240029AC
:103AD00012D0124FFB68002B0ED00D4603920490BB
:103AE000A021022264261846334601F07DFE0028FC
:103AF00005D00BA007F0B0FE204605B0F0BDF86879
:103B00000095039901910296A0210223049A01F0E5
:103B100011FF44424441204605B0F0BDBC000020E6
:103B2000454550524F4D5F526561643A2044697378
:103B3000706F73697469766F206E616F206573743E
:103B4000612070726F6E746F2E0D0000F0B585B03D
:103B5000294D28780124012808D1A878012808D106
:103B600027A007F079FE0020A8702870204605B035
:103B7000F0BD01F097FD6969401A002105282DD399
:103B80000491AA881F2010402021081A2F89B842CA
:103B9000064600D33E46B218AA802B699B192B61BA
:103BA000BE1B2E8187421DD9E86864270297B6B2F2
:103BB000202E00D30E460093019692B2A02102233C
:103BC00001F0D2FF00280FD001460C4807F072F92F
:103BD0000120A870049C204605B0F0BD0C4620468C
:103BE00005B0F0BD0020C0E72C7001F05BFD6861FE
:103BF000049C204605B0F0BDBC000020ADBC000810
:103C0000454550524F4D2028424C4F434B494E475B
:103C10005F54455354293A204572726F20646520E1
:103C20004932432064657465637461646F210D00DB
:103C3000F0B583B005461A4EF06843424341002474
:103C4000002A22D0002920D037781F43FB071CD13F
:103C50000024B4703281B5803161747064230293A2
:103C60001F232B402027FB1A934200D313460091B9
:103C70000193A02102232A4601F076FF002807D0F5
:103C80000146084807F016F93470204603B0F0BD2D
:103C90000124347001F006FD7061204603B0F0BDD0
:103CA000BC000020F6BC000880B5202001F00EFC0E
:103CB00080BD72B6FEE7000007480068406A7047A2
:103CC00080B5054803F0C4F980BDC04602480068CD
:103CD000002141627047C046800A002010B54A1E8C
:103CE0000B469341441E0246A2411A40012A04D1C8
:103CF000EB4B5C69046098690860104610BDC046D3
:103D0000B0B54C1EA141421E054695410D40012D06
:103D100008D153218900E24A51182246FCF71FFAC4
:103D2000002101552846B0BD80B5002804D0B72138
:103D30008A00E649FCF7EFF980BDC04670B502463F
:103D4000072801D3002300E001234C1E0846A041B0
:103D5000184001280AD128235343EA4AD2182032B6
:103D600038CA38C138CA38C178CA78C170BDC046AF
:103D7000002805D0E3494979072900D300210170C3
:103D8000411E88417047C046DE48C08B7047C04620
:103D9000DC48808B7047C04607207047B0B54C1E8A
:103DA000A141421E054695410D40012D06D1D54940
:103DB00008312246FCF7D3F9002101552846B0BD51
:103DC000B0B54C1EA141421E054695410D40012D46
:103DD00008D15921C900CB4A51182246FCF7BFF936
:103DE000002101552846B0BDB0B54C1EA141421E70
:103DF000054695410D40012D08D12721C900C14A32
:103E000051182246FCF7ABF9002101552846B0BDF8
:103E1000BB4900224A710A7108608A717047C04626
:103E2000F0B581B0584F3879002817D0B9790129F9
:103E300059D1401E05284AD878440079400087446B
:103E40003702616D5477FFF781FE00284BD0FFF7F2
:103E500017FE002800D187E06C4878E078790128C7
:103E600032D1FFF71DFE00283DD101F01BFCB968DF
:103E7000401A6849884236D3002078710124BC7109
:103E8000386800280DD09F49B62200F0BFFF0546D4
:103E90005B20C600604831462A4607F00BF8994877
:103EA00085515E4807F0D8FC3C71B87900281AD0DB
:103EB000B720820000209349FFF7BAFE002841D0C6
:103EC0000220387101B0F0BDB87900280BD0012074
:103ED00078710020B871387101F0E4FBB8604C488B
:103EE0004C4906F0E7FF01B0F0BD17208001B72173
:103EF0008A008449FFF79CFE002825D006203871EF
:103F000001B0F0BDB7208200101D7E49FFF790FE82
:103F100000281BD00420387101B0F0BDFFF716FE59
:103F20000028E0D0FFF7ACFD002816D034480EE0A2
:103F3000FFF70CFE0028D6D0FFF7A2FD00281AD00C
:103F40001FA004E0364802E02B4800E02D4807F0AF
:103F500083FC0720387101B0F0BD284807F07CFCD5
:103F60000520387101B0F0BD274807F075FC03202B
:103F7000387101B0F0BD05A007F06EFC0020B871EB
:103F8000387101B0F0BDC046D400002053746F7288
:103F90006167652046534D3A20426C6F636F204243
:103FA0004B5032204F4B2E2053616C76616D656E05
:103FB000746F20636F6D706C65746F2E0D00000060
:103FC00053746F726167652046534D3A2045727293
:103FD0006F2064652064726976657220616F206568
:103FE0007363726576657220426C6F636F20424B1B
:103FF00050322E0D00000000B1BE00089ABF00082C
:1040000065BF000884BE0008B7BF0008D8BF00081D
:1040100037BD000888130000B6BD00080FBF0008B8
:10402000DEBE0008B0B501460020002910D0344C97
:10403000A279002A0CD153208000324D2818142276
:10404000FCF78DF8FF2060300021295401206071B9
:10405000B0BDC04601460020062907D8F44A93792E
:10406000002B03D101205071264A51717047C04680
:104070000146EF4A9079002803D101235371FB4A8E
:10408000D1830121484070470146E94A90790028D0
:1040900003D101235371F54A9183012148407047B0
:1040A00078100020B0B50146002000290DD0E04C6A
:1040B000A279002A09D1ED4D284608300A22FCF7E2
:1040C0004EF8012060710021A974B0BD7810002065
:1040D000B0B501460020002910D0D54CA279002AA5
:1040E0000CD12720C000E14D28181422FCF737F826
:1040F000FF204C300021295401206071B0BDC04622
:10410000D400002078100020F0B587B0C8480068BF
:1041100000281ED0C7A007F09FFBB7208600002410
:10412000D24F204639463246FFF7CEFC002813D046
:104130005B20C0003D58BE480068B622394600F0FA
:1041400065FEA8420DD1E74806F0B4FE012007B095
:10415000F0BD002007B0F0BDC548002106F0AAFE62
:1041600005E00246C34800212B4606F0A3FEC2A08C
:1041700007F072FB301DBD4F39463246FFF7A4FCF5
:1041800000280CD05B20C0003D58A9480068B6222A
:10419000394600F03BFEA84207D1D14826E017205F
:1041A0004101B34806F086FE06E0024617204101B1
:1041B000B0482B4606F07EFEBE4807F04DFB1720A8
:1041C00002908701A94D384629463246FFF77CFC0C
:1041D000002812D05B20C0002E5895480068B622F7
:1041E000294600F013FEB0420CD1BC4807F034FB66
:1041F00001208F49487107B0F0BD9D48394606F04F
:1042000059FE05E002469B483946334606F052FE09
:10421000A94807F021FB281D5B210191C900FBF78C
:1042200093FFA6480121049129606121A860E960FB
:104230002C827F20C0056861A148E8615920C00038
:104240002818A0A14CC94CC00A88028089788170C6
:10425000284620309F4E3168102206941446FBF702
:104260007EFF302006992954284631309A490A2782
:104270003A460597FBF74FFFF06A316B4622A95289
:10428000442168523B2006992954B0692864284685
:104290004830316C03942246FBF761FF58200699A1
:1042A0002954284659308C493A46FBF734FFF06EC2
:1042B000316F6E22A9526C216852632006992954ED
:1042C000B06DA8668027F159284670302246069CBA
:1042D000FBF745FFEC55284681307F49059E324665
:1042E000FBF719FFB0207B4A105896216852AC208A
:1042F00010589421685298201058902168508B20B3
:104300002C54C020115828469830039F3A46FBF79A
:1043100026FFA8202C542846A9306F493246FBF7C7
:10432000FAFEF0206B4A1058BE216852EC2010585B
:10433000BC216852D8201058B8216850B3202C54A2
:104340000498000211582846C0303A463E46FBF712
:1043500006FFD0202C542846D1305F49059F3A46AD
:10436000FBF7D9FE1320000100905A4A1058E621AD
:1043700068524B2080001058E42168522320C0006E
:104380001058E0216850DB202C5405208001115882
:104390002846E8303246FBF7E2FEF8202C54284647
:1043A000F9304D493A46FBF7B6FE02980001494EF6
:1043B00030588721490068520198800030584321C5
:1043C000890068522B20C00030582121C900685054
:1043D000FF27384604302C541120000128180321EF
:1043E000C9017158039AFBF7BAFE092040012C5409
:1043F0003846223028183849059AFBF78CFE1B20D6
:10440000000130589B21490068526B2080003058D1
:104410004D21890068523320C000305800996850FF
:104420002C37EC55024804994171204607B0F0BD85
:10443000D4000020454550524F4D204D616E6167BC
:1044400065723A2056657269666963616E646F20B1
:10445000696E74656772696461646520646F732056
:104460006461646F732E2E2E00000000781000200F
:1044700080BD0008FDBD0008454550524F4D204D00
:10448000616E616765723A205072696D6172696F21
:1044900020636F72726F6D7069646F2E2054656E49
:1044A00074616E646F204261636B757020312E2ED3
:1044B0002E00000011C00008D1C0000873656E68AE
:1044C000050002003232303130313031303031309D
:1044D00030310000E4B9000894CD00088EC0000817
:1044E0004BC000084DBE0008B0B582B00EA007F06A
:1044F000B3F93C4C0120607001A800250570FFF75E
:1045000037FC01982070FFF747FC21784AB28242BD
:1045100001DB2570294648B206F0B2FB2420FEF7E5
:1045200007FD02B0B0BDC0464772616F735F48615E
:104530006E646C65723A20456E7472616E646F20B1
:104540006E61206C6F676963612064652073656CC0
:104550006563616F206465206772616F732E0D0063
:10456000B0B504461F4D687801283AD1FFF714FC16
:10457000002836D0611E052933D8C0467944097910
:1045800049008F4402170C2E2E22002068702956F5
:1045900020A006F08FFC2878FFF75CFD1AE0297850
:1045A000491E4AB2002A00D5411E297048B206F0C1
:1045B00067FBB0BD2978491C4AB28242F5DB002175
:1045C000297048B206F05CFBB0BD0020687006A000
:1045D00007F042F908242046FEF7A6FB2046FEF726
:1045E000A7FCB0BD580100204772616F735F48613E
:1045F0006E646C65723A2053656C6563616F20640C
:1046000065206772616F2063616E63656C616461D0
:104610002E0D00004772616F735F48616E646C65B8
:10462000723A204772616F20696E64696365202762
:104630002564272073656C6563696F6E61646F2EF6
:104640002053616C76616E646F2E2E2E0D0A000071
:10465000F0B587B0002506955422825C012A03D16B
:104660000224204607B0F0BD0646543601243470BB
:10467000026893685B0714D407694B68022B18D152
:1046800004200743994887426DD19748C0430B687F
:10469000D9430143906A084090620024002B66D4FD
:1046A000D2E0816D20220A4382653570204607B032
:1046B000F0BD059304231F438C4CA74262D10F68C1
:1046C0003846894B1840936A034393623802536912
:1046D000834389680140864808401843506100249C
:1046E000002F00D4B0E003208205824803681946F9
:1046F00011403846804F0490B84200D096E07A4F7F
:104700007F1CB94200D391E07A4803689343194370
:10471000754A5118491C0160794800687949FCF7CD
:10472000A0F80C214143481C06900698002800D1AF
:104730008AE00698401E06900698002800D183E083
:104740000698401E0690069800287DD00698401EC8
:1047500006900698002877D00698401E0690069886
:104760000028E6D170E00B680024002B6CD5FA48D5
:104770000168624A93426BD05F4A934264D101223E
:10478000920567E01F27059C27400F24009403979C
:10479000BC40076E0194A74302970C68524F3C42FD
:1047A000049462D0E4072F4667D1049FBC075FD40E
:1047B0007C075FD43C075FD4FC061F465DD4049C95
:1047C000A30671D4630671D4230671D4E30571D4B2
:1047D000049B9B0570D4049B5B056FD4049B1B0555
:1047E0006ED4049BDB046DD4049B9B046CD4049BAB
:1047F0005B046BD4049B1B04009F3ED4049BDB032F
:1048000066D4049B9B0365D4049B5B0364D4049B24
:104810001B0363D4049BDB0262D4049B9B0261D420
:10482000049B5B02DB1716271F4026E0334F0498DA
:10483000B84209D10127BF053B4005D1C6480368EE
:104840009343194339430BE03570204607B0F0BD60
:10485000254A521C114003229205036893435918BC
:1048600001603570204607B0F0BD6300DF0E04E044
:10487000012702E0022700E00327039CA740029BD8
:104880001F430766059B9B08C06998420AD9019897
:10489000C043936A0340049FB800000FA040184330
:1048A000906213E7049F11E70527E6E70627E4E790
:1048B0000727E2E70827E0E70927DEE70A27DCE722
:1048C0000B27DAE70C27D8E70D27D6E70E27D4E722
:1048D0001027D2E71127D0E71227CEE71327CCE71E
:1048E0001427CAE71527C8E7FFFF7F0004000080F0
:1048F00000FFFF7F08270140000200A4000400A879
:104900002C000020400D03000068006C7047000080
:10491000F0B589B0044600200890002C76D00790AE
:10492000A06D002807D125465435204600F016F921
:1049300000202870E06501273D072668B068C000A8
:1049400026D4B0687F4901402943B1607E480068A1
:104950007E49FBF786FF400008900898002817D092
:104960000898401E08900898002811D00898401E0A
:104970000890089800280BD00898401E08900898C6
:10498000002805D00898401E089008980028E7D114
:10499000B068284208D1A06D10210143A165E06DE7
:1049A000012107910843E065B06804210140A26D30
:1049B000102002405118A16D2BD106900F20C74343
:1049C0003A46F33A1140891CA165B168C9077DD107
:1049D0000390049727462037216B4A1E91410D030F
:1049E000A168227E92030A43617EC9031143A27E1D
:1049F00050030843E36803432B430120C5072169A3
:104A000000290590029509DAA94308E0012009B0C0
:104A1000F0BD0143A165384609B0F0BD41050B4327
:104A2000387B45001D433878012809D1002A11D070
:104A3000A06D20210143A165E06D05990843E06563
:104A4000626A002A0CD0072080010240A16A11434B
:104A5000294306E0059800040543626A002AF2D162
:104A60002946F0683A4A02400A43F260032082076E
:104A700063681D461540E16C387F01280ED1206C1B
:104A80000090676CA06C0190009807430198074361
:104A90002F430F43059807433D4600E00D43049F15
:104AA00030692C49014029433161029883420399BE
:104AB0000CD093420AD005988007834206D0880420
:104AC000034025490A688243D018086070690722AC
:104AD0009043656B28437061706970218843A16BB6
:104AE000090101437161216901235805814203D005
:104AF00000290BD1B06A07E0B06AE06980001C3081
:104B00001C2101408F40206E3843B0627069104014
:104B1000A8420AD10020E065A06D012101430220D6
:104B20008143A165079809B0F0BDA06D06990843BF
:104B300002218843A065E06D1843E065184609B07E
:104B4000F0BDC046E8FFFF6F2C000020400D0300C1
:104B50000102DEFF02FCFF1F0827014080B58AB07A
:104B60000021099108910791069105910491039103
:104B700000680D49884201D00AB080BD2020029013
:104B800002A801F035FB002801D0FFF792F80120C0
:104B9000000506490A6802430A600968014001915C
:104BA00001980AB080BDC046002401404010024078
:104BB000F0B581B00D4604464069082801D10827A8
:104BC00004E02068C068C0073FD1042700F06AFDF8
:104BD00006462168086838421CD001204202A36DB5
:104BE0001343A365CA681205920F4AD1A27E002A18
:104BF00047D10A68120744D58A68520738D422463A
:104C000058324B680C25AB434B60FF2502351368C7
:104C1000AB4334E0002D1FD0681C10D10868384227
:104C2000DBD108683842D8D108683842D5D1086845
:104C30003842F3D0D1E7216808683842CDD100F07E
:104C400031FD801BA842F6D908E0A06D2021014368
:104C5000A165012001B0F0BD00F024FD5420002129
:104C60002154A06D04210143A165032001B0F0BDD2
:104C7000A26D20231343A36522465C32E36D0343F8
:104C80001360227E0020002A01D001B0F0BD0C226A
:104C90000A6001B0F0BD000070B50146006882688E
:104CA0000220520711D454228A5C012A0DD00C46EE
:104CB00054340120054620700E460846FCF730FAB1
:104CC000002803D000202070284670BDB06D09492F
:104CD0000140012000020818B0650020F06531682D
:104CE0001C220A6020708A68304B13401A1D8A60AB
:104CF00070BDC046FEF0FFFFF0B581B00446542001
:104D0000205C012802D1022001B0F0BD26465436B5
:104D1000012737702068816849071FD4816882683D
:104D2000D20737D00222114034D1816805220A40CF
:104D3000012A27D181681D4A0A40911C8160032104
:104D4000016000F0AFFC054620688068C00721D0F4
:104D500000F0A8FC401B0328F6D313E08168890704
:104D600004D48168114A0A401032826000F09AFC33
:104D70000546206881684907D0D500F093FC401BA8
:104D80000328F6D3A06D10210143A165E16D5C34C9
:104D9000384605E0FF200230A16D814358340020E1
:104DA000002232703943216001B0F0BDE8FFFF7F7F
:104DB00070B503460120CC0720D0114C0C40651E75
:104DC000AC4103261546F541032D17D87D442D79B6
:104DD0006D00AF440B0105090B4C0C400ED105E0F2
:104DE000084C0C400AD101E0002C07D11868416141
:104DF00081681823994311438160002070BDC0462B
:104E000080FFFF7F00FFFF7F0000FF7FF0B584B0D1
:104E10000E46022141770468A16801252943A1605B
:104E2000016A01291ED002290ED0032928D1002AA7
:104E300000D103E10395032511462940042A00D33C
:104E4000D2E033460025DEE057081ED0039503214B
:104E50003B460B4000937B1E032B029601971AD210
:104E6000002133E0970814D00395032339461940F5
:104E70000091791E03290296019349D200257AE018
:104E800000214577084604B0F0BD0021D2073CD18F
:104E9000D4E000219EE08F43002135466B882E88A8
:104EA0003604F3182360EB88AE883604F3182360C9
:104EB0006B892E893604F3182360EB89AE8936049A
:104EC000F31823601035091D8F42E7D1009F002F92
:104ED000029E14D08B00F1184D88F35A1B045B1905
:104EE0002360012F0BD0CB888D882D04EB18236015
:104EF000022F04D04B8909890904C918216001993E
:104F00008900039DD20700D198E0715A218095E075
:104F10009F43002531460E7836064B781B049B19BB
:104F20008E7836029B19CE789B1923600B791B066D
:104F30004E793604F3188E7936029B19CE799B1977
:104F400023600B7A1B064E7A3604F3188E7A3602EB
:104F50009B19CE7A9B1923600B7B1B064E7B360474
:104F6000F3188E7B36029B19CE7B9B192360103180
:104F70002D1DAF42CFD1009F002F029E26D0A90049
:104F8000735C1B0671184D782D04EB188D782D027B
:104F90005B19CD785B192360012F17D00B791B06A5
:104FA0004D792D04EB188D792D025B19CD795B19A4
:104FB0002360022F0AD00B7A1B064D7A2D04EB18C2
:104FC0008D7A2D025B19C97A591821601146019B0F
:104FD0009943039D03231A407A441279520097445F
:104FE0002C011C24715C27E0AA4300253346376856
:104FF000276077682760B7682760F76827601036F2
:105000002D1DAA42F3D1002905D0AA001D469B58A8
:105010002360012917D1039D10E072185278715C4A
:10502000090289182180046808E072185378715CBD
:105030000902C91821809178217004682168457798
:10504000084604B0F0BDAA18536823600229039DE6
:10505000F4D091682160F1E7B0B50125002814D0A3
:105060000446407F002804D100202077204600F02D
:1050700031F8022060772079002808D0A168E26822
:105080002046FFF795FE002808D02846B0BD2068CE
:105090000F49416181681822914381600025607940
:1050A000002801D0216900E0E9432068016181689E
:1050B0006022914362690A43826081688022914341
:1050C000A2690A438260012060772846B0BDC046CD
:1050D000B71DC10481B000680849884201D001B001
:1050E00070470120000306490A6802430A60096804
:1050F00001400091009801B07047C0460030024066
:105100003810024070B500282CD0014624314A786E
:10511000022A29D1046822680E239A432260426C35
:105120001568314B1D4015602568012295432560A7
:10513000046C1C2525401446AC40D74D2E682643F0
:105140002E60846CC56C6560046D002C05D02568EC
:105150001D402560436D806D58604A70002000221C
:105160000A7070BD012070BD0422C26301200022BC
:105170000A7070BD70B524210124445401462431C5
:105180004A78022A2BD103681A680E24A2431A60B7
:105190001C68012294431C60446C2568124B1D401E
:1051A0002560046C1C2525401446AC40BA4D2E6881
:1051B00026432E60846CC56C6560046D002C05D0A0
:1051C00025681D402560436D846D5C6000240C7073
:1051D0004A70816B002900D08847204670BD0421A9
:1051E000C163204670BDC046FFFEFFFFF0B585B02D
:1051F000016C1C240C4004231946A140A64A121F2E
:1052000015680A4603952A4056425641049005689F
:105210002A6817461F4078427841304332D00295C1
:10522000012102261046304047424741A640039BD9
:105230001E420D46019400D03946049F3C4624345A
:10524000002931D008200240564256410198C340FF
:10525000180700D53546002D24D1029A10680E217A
:105260008843106001200146019A91408A4B1A68D8
:105270000A431A60F863002121706070796B00297D
:105280000ED10FE02868800602D428689843286071
:10529000814A106808431060049F396B002901D0CF
:1052A0003846884705B0F0BD029A1068800605D4DC
:1052B00010680A218843106001206070002020706F
:1052C0007549086830430860F96A0029E8D1E9E7C0
:1052D000F0B587B000284AD00446014624310220A8
:1052E0000691487027683868344901403960344E67
:1052F00030468030A0643348381814252946FBF71F
:10530000B0FA80008119206405916164FC20384066
:1053100008382946FBF7A5FA1C22024001210B465A
:105320009340E364A0680490E5682646103645CEB5
:105330000196E6690296266A039628431043019A6D
:1053400010430E4602990843039908433968014304
:10535000049A11433960B1031B488A420AD10022E2
:1053600005990A6062600360154613461BE0012040
:1053700007B0F0BD6168CFB2059A17600360491E9F
:1053800000220329154613460DD8791E8A0082187B
:105390000023D36703250D403346AB400B490B6018
:1053A0007C32BC3005460020E06322656565A3655C
:1053B000069908704E7007B0F0BDC0460F80FFFF21
:1053C00000080240F8FFFDBF840802404409024083
:1053D000F0B583B004462420205C012802D10220CD
:1053E00003B0F0BD254624356878012830D10092FD
:1053F000022068700020E063266832680127029767
:10540000BA433260A26CE76C5760226D0192002AA9
:1054100002D0626DA76D5760226C1C271740029A5C
:10542000BA401D4F3F6817431B4A17607360A3685B
:10543000102B009F3A4600D00A46B260102B00D0D5
:105440003946F1603168226B002A06D00E2209E04D
:1054500002200021297003B0F0BD04229143316085
:1054600032680A211143316002990902626C1368A3
:10547000DB0302D513680B431360019B002B02D0A2
:105480001A680A431A603168029A11433160002198
:10549000297003B0F0BDC04604000240B0B5044618
:1054A00000F000F90546601C02D00448007824187A
:1054B00000F0F8F8401BA042FAD3B0BD080000206D
:1054C00080B5202801D1FEF7D5FA80BDB0B50446DD
:1054D000074D2868204203D02C60204600F00AF8CF
:1054E0006868204203D06C602046FFF7E9FFB0BD3A
:1054F0000C18024070470000F0B58AB00690099180
:105500000B68002B00D1B4E05B480699814201D0C2
:10551000062000E005200B221207069989180A22AE
:10552000D1410091042900D30090069820300190C9
:1055300000252E46079529460FE01A436260089918
:10554000491C099803681846C8400835B61C079AD4
:10555000121D0792002800D18BE0012420460891FB
:10556000884003400393EAD0049509994A681021C2
:105570001143122915D11C21079A114005960F26B7
:1055800032468A40089BDB089F00019BDD5995430A
:10559000099A12693240059E8A402A43DA510999D4
:1055A0004A68032311461940B1400293B34037467D
:1055B000069E35689D430D4335603E46D9430591AF
:1055C000122A049D15D894402E490C420FD0069CF7
:1055D000A168059B1940099BDB68B3400B43A3609E
:1055E0001109089B9940636883430B436360032A56
:1055F000A5D0069BD8680599084009998968B140EB
:105600000143D960D0009AD5182028400F2181404D
:10561000089A029B9A43194CA218136E8B43009967
:105620008140194311661648026809984068C10311
:1056300002D5039B1A4301E0039B9A4310490A6079
:105640004A68810301D51A4300E09A430C494A6035
:105650002268C10205D51A4322606268800206D51D
:105660006BE79A4322606268800200D565E79A433F
:1056700064E70AB0F0BDC0460014005000180240B4
:10568000801802400600060000690840411E88415B
:105690007047002A02D0182281507047282281507A
:1056A00070470000014800687047C046341400206D
:1056B000B0B50246034640335C780220202C17D157
:1056C0001C78012C14D02420587010680268012422
:1056D000A2430260220305689543056002680A43FD
:1056E0000260016821430160002018702021597078
:1056F000B0BDB0B50246034640335C780220202C92
:1057000017D11C78012C14D024205870106802681E
:105710000124A24302600F22120205689543090288
:105720002943016001682143016000201870202195
:105730005970B0BDF0B581B0002822D00546403583
:105740006978002905D100212970044600F026FB64
:1057500020462421697001680B68012293430B6085
:105760000F231B0644689C430C618C681C4B1C4037
:105770008C608468C668012E06D1D60334438C60E1
:105780000CE0012001B0F0BD2127BF023C438C603A
:10579000022E03D1D4024E68264302E0D4024E68A2
:1057A000A6434E604C680F4E26434E60CC681C40AA
:1057B000CC60036944691C4383691B022343CB60AB
:1057C000C369046A1C430C600B6813430B6000211F
:1057D000416420226A7001630846A97001B0F0BDDF
:1057E000FF7FFFFF00800002F0B589B007930546F8
:1057F000002408940346403358780227202800D01C
:1058000090E028688069000400D58BE018780128B2
:1058100000D187E024205870012003930290187073
:1058200004946C64CD4801400692059113E0C46174
:1058300000972024002228462146079B03F052F8B7
:1058400000285DD00898401C089008980898069A8F
:10585000904205995ED2E8680128344800D0344867
:10586000401829684860FFF71DFF074628688169CE
:105870002026314082691024224089182BD10799B3
:10588000491C10D00798002842D0FFF70BFFC01B1F
:10589000079988423ED82868816931408269224050
:1058A0008918F2D017E08169314082692240891855
:1058B00011D1816931408269224089180BD18169F7
:1058C000314082692240891805D18169314082695D
:1058D00022408918E7D08169C906A8D400972024FE
:1058E0000027284621463A46079B02F0FBFF002886
:1058F00009D0686C0428A5D12868C4616F64A1E749
:105900002868C4619EE72868C46103994C7007E069
:10591000FFF7C8FE03994E70686C30436864029FBD
:1059200004980870384609B0F0BDC0460020000257
:1059300000280002F0B589B0044606464036757866
:105940000220202D09D10E9F002F08D00F9D002D81
:1059500005D007953578012D06D109B0F0BD01209D
:105960004102616409B0F0BD03970593029206916C
:10597000012008903070FFF795FE0246206881698B
:1059800009042FD410990491222171704021B17023
:105990000027676407996185039961626763F94924
:1059A000069B0B400599C9B209040693C9184368C0
:1059B000F54D2B40C918012308935B03C9184160BA
:1059C00020460499154603F04DF8002846D1039768
:1059D000079520680599012926D10299C9B28162EB
:1059E000079D31E00898C50302E081692942C9D0CA
:1059F00019212046174602F0B7FE002811D1FFF703
:105A000051FEC11B20681A293A46EED3816929420A
:105A1000EBD0606C2021084360647170002030700E
:105A2000B070089809B0F0BD0299090A8162204659
:105A30000499079D2A4603F015F80028039F0DD10D
:105A400021680298C0B28862009540210022204659
:105A5000049B02F047FF0028039F03D0377008988B
:105A600009B0F0BD608D000A07D020684168C64AC1
:105A70001140021DFF203B4B09E0608D22685368F6
:105A8000C1490B40C1B209041943121D344B069F92
:105A900019433943116020850120089040063818C9
:105AA0000590079A049D0FE0608D208521684A6863
:105AB000B84B1A40C0B20004059B1843104348601D
:105AC000079A608D002834D00092042100272046D8
:105AD0003A462B4602F006FF0028A2D1606A2168F0
