:020000040800F2
:1000000068150020D5000008E18B00083981000840
:1000100000000000000000000000000000000000E0
:100020000000000000000000000000002194000813
:100030000000000000000000898C00081D960008E8
:10004000E7000008E7000008E7000008E7000008F4
:10005000E7000008E7000008E70000089D370008F7
:10006000E70000086D2C00087D2C0008952C000886
:10007000E7000008E7000008E7000008E7000008C4
:10008000E7000008000000000000000035960008AE
:1000900000000000E7000008E7000008E700000893
:1000A000E7000008E7000008E7000008C5A800080E
:1000B000D1A80008000000000000000000000000BF
:1000C0000348854600F054FE004800472DAA00086A
:1000D000681500200448804704480047FEE7FEE713
:1000E000FEE7FEE7FEE7FEE725960008C1000008F0
:1000F0000048704744B5000810B50446FFF7F8FF04
:100100000068005DC007C00F10BD014661391929A4
:1001100000D82038704703460B439B0703D009E003
:1001200008C9121F08C0042AFAD203E00B78037032
:10013000401C491C521EF9D27047D2B201E0027035
:10014000401C491EFBD270470022F6E710B513464B
:100150000A4604461946FFF7F0FF204610BD10B5C9
:10016000044605E00B780370401C002B00D0491CAE
:10017000521EF7D2204610BDCAB2401E4178401C24
:100180008A4202D00029F9D100207047421C017830
:10019000401C0029FBD1801A704710B5002200E0F6
:1001A000521C835C8C5CA34201D1002BF8D1D8B2E5
:1001B000E1B2401A10BD03460A780270401C491C87
:1001C000002AF9D118467047F8B50E4605460024B6
:1001D00000E0641C285D00F0A3FB0746305D00F0E2
:1001E0009FFB381A02D1295D0029F2D1F8BD000029
:1001F0000FB400B58DB009900B9010A900200091AC
:10020000C0430A9000200C900648069006480790CC
:100210006A4609A80F9900F09FFB0DB008BC04B016
:10022000184700007909000899090008FFB5002760
:10023000FF4383B000205C6801909E681D46A96959
:100240007F1C049888470090296A88470028F6D1C7
:100250000098401C0CD0032040028443002E19DD7E
:10026000600614D500982B2809D02D280FD103E063
:100270000020C04307B0F0BD012080020443A969FB
:100280007F1C04988847761E0090002E02DD00989F
:10029000302803D00598002825D035E00120400201
:1002A0000443A969761E7F1C049888470090002E9D
:1002B00003DD782805D0582803D00598002810D0F1
:1002C00022E00598002801D010281DD1012040020D
:1002D0008443A969761E7F1C0498884700901020EB
:1002E00002E0082000E00A2005900DE0012149020B
:1002F0000C43059A0199761E514308180190A9698B
:100300007F1C049888470090002E05DD0599009811
:1003100000F00CFB0028E9DAE96904988847A00599
:1003200002D40120C043A5E7E00722D1600611D521
:100330006005019800D5404229680A1D2A600968B5
:10034000220501D5087014E0220701D5088010E0CD
:1003500008600EE02868011D29600068210502D5AB
:100360000199017005E02107019901D5018000E0A4
:10037000016038467EE70000F7B5009C0F46002676
:100380002578641C002D05D0FFF7B2FE0068405DA3
:10039000C007F5D12B2D02D02D2D18D0641E394663
:1003A0002046029A00F00AFB002F04D03968A142CF
:1003B00001D1009939607105022400290BDA40420D
:1003C000002803DD0AF0F2FB0460A007FEBD012057
:1003D00080020643E3E70028F8DA0AF0E7FB04604E
:1003E0000048FEBDFFFFFF7F70B506460AF0DEFB4A
:1003F000046805460A2200213046FFF7BDFF2C6045
:1004000070BD70B506460AF0D1FB046805460A22A5
:1004100000213046FFF7B0FF2C6070BDF8B50246F2
:100420004A40D40F42004B0052085B089A4202D265
:100430000246084611464A0023D0C30D4A00DDB2E9
:10044000120EAD1A202D35DA49020126490AF605A9
:100450008A19002C00D0524220214F1B1146B9406E
:100460002A411018C20D9A4221D0002C17D0012D1C
:1004700008DCDA05801AD20F8019D207DBB200F04F
:10048000F8FAF8BDDA05801A012340001B06C018EF
:1004900080185A428018CA0F1043490007E04908E3
:1004A000C2071143DA05801A80194008801800F04D
:1004B000D8FAF8BD61000122511A001BF7E70122AA
:1004C000D2075140AAE70122D2075040A6E70246D0
:1004D00070B54A40D30FDB0740002DD04A002AD028
:1004E000010E140E000212020919400A520A841861
:1004F000E50104465443000A120A2E045043A4198D
:100500004219200CC543AA18120C0125AD03521C38
:10051000521912047F39240400D0521C104301D414
:100520004000491EC2B20C06C0092018401C4008F9
:10053000802A02D003E0002070BD4008400000295E
:1005400000DA0020184370BD70B502464A40D50F4E
:1005500040004A00ED0740085208002814D0002A45
:1005600012D0C40DD30D41020120C0055202490A28
:10057000520AE41A091812187D34914201D3641CFE
:1005800000E04900002C01DA002070BD00239142F8
:1005900001D3891A0343400849000028F7D10029F4
:1005A0000AD0914202D10121C90705E0914201D24E
:1005B000012101E00121C943E005C018401900F004
:1005C00050FA70BDF0B51FB488B00B99099800249B
:1005D00048400999C00F490049080991C0070B9983
:1005E0000090490049080B9109990898A6460843CC
:1005F0001CD00B990A98084318D009980124400090
:10060000420D4800410D099824050003000B2043CA
:1006100009900B980003000B20430B9050181C49C5
:100620004018002201901446104605E000200146C3
:100630000DB0F0BD032801DA034600E003239C4619
:10064000C11A0AAE0AE05F0008ADED5B4F00F75B30
:100650007D430027AA187C41491C5B1E6145F2DDE1
:10066000410004AB5A522104120C0A43240C401CD2
:100670000828DFDB019802900099704601910090F4
:10068000059B049A0799069800F039FAD0E7000014
:100690000DFCFFFFF0B50C465C4085B0E40FE407AD
:1006A00003944C0000266408590094464908024609
:1006B0000296224321D062460A431ED06200570DA3
:1006C0004A000E032303550D012402462C4924053C
:1006D000781B1B0B360B40182343264361460090C2
:1006E0001C46501AB44103D30098401C009002E00D
:1006F000921800985B41002803DA0020014605B0FB
:10070000F0BD0020012109050746864611E0644638
:100710001D46141BB54106D36546521BB3417446B2
:1007200007430C43A646CD074008490828439218C2
:100730005B4105460D43EAD11046184313D060468D
:10074000194650407140084306D06046101AB34124
:1007500006D20122002306E000220123DB0702E08B
:100760000122D2435310009874460105381C6141A0
:10077000029C039D0019694100F0B4F9BFE7000035
:10078000FD0300000122D207002800DB101A002917
:1007900000DB511A814201D20120704700207047CE
:1007A0000122D207002800DB101A002900DB511AB1
:1007B000814201D90120704700207047C217C10F44
:1007C000504010B54018CA079623002100F051F997
:1007D00010BD10B500229623114600F04AF910BD55
:1007E0000EB5C217C10F5040CA0740180021054B73
:1007F0000293019200910A460B4600F080F903B083
:1008000000BD000033040000C20F4100400201237C
:10081000400ADB05D207090EC0187F2901DA002043
:100820007047962903DC9623591AC84001E096398F
:100830008840002AF4D040427047C20FD2074000DF
:1008400040080BD0C10D0723DB01C9184002090580
:10085000400A1143C2084007114370470020014677
:10086000704770B50446002903D0002020220123E0
:1008700010E0002801D00020C043C046C0460DE073
:100880002546D5408D4205D30D469540641B1D4637
:10089000954040191546521E002DF1DC214670BDD1
:1008A000F0B51FB40646002082B0054640240191F1
:1008B00000901BE0019922460F46304600F070FA86
:1008C000049A059B801A994110D310461946224676
:1008D00000F016F8361A8F410197224601200021B8
:1008E000009F00F00DF838184D4100902046641E1E
:1008F0000028DFDC019B00982946324607B0F0BD96
:1009000010B5202A04DB0146203A9140002010BD9A
:10091000914020239C1A0346E3401943904010BDA8
:1009200001464139192900D8203070473A2800D2B1
:100930003038202302469A43412A01D310463738E3
:10094000884201D30020C04370470000026813783A
:10095000511801601846704710B5D16004495161C3
:100960000449116200211161114600F03DFA10BDE9
:100970004D090008F90000084268002A08D0016803
:100980000B78491C002B03D0521E06C01846704736
:100990000121C160881E70474268002A0BD0C368DD
:1009A0000168002B07D183688B4204D0491E521C7A
:1009B00006C0002070470020C0437047F7B582B0E2
:1009C000029C00272078641C15460197302802D02D
:1009D000002D15D015E020780127641C782804D05C
:1009E000582802D0002D09D00BE0002D01D0102D89
:1009F00007D1002710252078641C02E0082500E0BC
:100A00000A250026009610E000990127694308187E
:100A1000020C294680B2714300908E183804864239
:100A200001D3012001902078641C2946FFF77EFF46
:100A30000028E9DA0398002805D0002F01D0641EB1
:100A400000E0029C04600198002806D00AF0AEF88D
:100A500002210160C81E05B0F0BD009930040843B2
:100A6000F9E7002904DA401C490001D140084000A0
:100A7000704770B40024050C05D11024000402D185
:100A8000002921D01124050E01D100020834050FE0
:100A900001D10001241D850F01D18000A41C002874
:100AA00001DB4000641C002908D020252E1B0D46C8
:100AB000F540A14000D001212943084301061B1B3A
:100AC000000ADB1D02D5002070BC7047DB0518183A
:100AD00080180029F8DA401C4900F5D170BC4008A4
:100AE0004000704710B5002B08DA0024401C61411B
:100AF00092185B411A4301D14008400010BDF0B587
:100B00001FB482B005460C0003D008460AF036F840
:100B100002E00AF033F820300246009021462846D1
:100B2000FFF7EEFE049B059A04460F461843114357
:100B3000084314D0184610431BD0009840210A1ACD
:100B40001846059900F02CF905460E46009A0599BD
:100B50000498FFF7D5FE084305D0012004E02046A5
:100B6000394607B0F0BD0020C11705430E432C43A2
:100B7000374300990E986305401A7905E40A00226C
:100B80000C43FD0A0A3002D500200146E9E70105C1
:100B9000101969410C9C0D9D00196941FFF7A2FFD6
:100BA000DFE70000F0B507460846584087B0C00FA1
:100BB000049048000E46590040084908BC1A884174
:100BC00005D2384631461E4617460B4602465800A7
:100BD000400810434CD0300D039040055900400DA3
:100BE000490D0590401A0290402872DA180301213D
:100BF000000B09050843019004980092002805D0D5
:100C000001995242002088410092019002984021AF
:100C10000A1A01990098FFF773FE05460C466B46C9
:100C200007CB00F0CEF8C0197141039A0E0D0023D6
:100C3000D71756401A467A40164344D0049A002AE1
:100C40002DD0029A012A039A15DC1205C01A91418F
:100C500001263605001C7141D20F059ED207009374
:100C6000019202962A462346FFF749FF07B0F0BDDE
:100C700038463146FAE71605224A0F46B218C01A1E
:100C8000B74101210905001C4F4100187F41114661
:100C900018187941E20F10436D19644113E0E2071F
:100CA0006D0815436408C2071443039A0126120510
:100CB000C01A91413605001C7141CE0740083043EF
:100CC0004908C01851412A462346FFF70BFFCDE7DC
:100CD000FFE7049801224000C117121A00238B413C
:100CE00004983146C417381AA141EEE730B4012404
:100CF000E407634030BC55E730B40124E4076140A9
:100D000030BC4FE70000E0FF4A0009030123090B54
:100D10001B0519430A4B10B5520D9A4202DA002006
:100D2000014610BD064B34339A4203DC9A1A00F098
:100D300037F810BD034BD218FFF7E2FD10BD0000DD
:100D4000FF030000CDFBFFFF10B5002904DB0124E9
:100D5000E40740428C412146002B04DB1C46012362
:100D6000DB075242A341994200D1904210BD0000DE
:100D70001CB5094800900948019005460126009CD1
:100D800005E0E36807CC33430C3C98471034AC4291
:100D9000F7D3FFF799F90000E8C9000808CA00086E
:100DA00010B5202A04DB0846203AD040002110BDAF
:100DB0000B46D340D0402024A21A91400843194644
:100DC00010BD10B5202A06DBCB170846203A10418B
:100DD000C1170B4306E00B461341D0402024A21A52
:100DE00091400843194610BDF3B58DB000200A901C
:100DF00001200B90002608460C300C4609906269D1
:100E0000012109989047051E2ED0252D2DD0216A4D
:100E10008847002818D06269012109989047216A03
:100E200088470028F7D1411E62690998904700E081
:100E3000761CA1690D988847216A88470028F7D158
:100E4000E1690D988847DAE7A1690D988847074658
:100E5000A84201D1761CD2E7E1690D9888477F1C32
:100E600002D10A98002877D049E1002762693D46FF
:100E70003946099890472A280CD1626901210998BE
:100E80009047012506E00A214F433F18303FEBD43D
:100E900010200543626901210998904701463039C5
:100EA0000A2903D29B498F42DEDCECE7E90600D435
:100EB000994F6C280AD04C2810D0682824D06A2872
:100EC0002ED074280CD07A280AD00DE06269012156
:100ED000099890476C2823D004211CE0202005436A
:100EE0006269012109989047A760656065284FD025
:100EF00026DC582839D01ADC452849D012DC2528B0
:100F000034D04128B0D143E062690121099890476B
:100F1000682802D008210D43E6E70120C002DEE781
:100F20000220DCE7462833D047282CD130E05B286C
:100F300070D061282CD063286CD0642823D161E064
:100F40006F284FD009DC662822D0672820D0692876
:100F500026D06E2817D12EE0CDE070284DD0732812
:100F60006FD075284ED078280DD154E0A1690D9826
:100F700088470546252800D16CE7E1690D98884728
:100F80006D1C00D16DE7BAE00A224CE00A2252E063
:100F9000012023466A46C0430D99C046C046A3E0DF
:100FA0002846402108436060A807234601D5002257
:100FB00039E000223FE0E80700D020E72068011D6B
:100FC00021600068290501D5067018E7290701D5B9
:100FD000068014E7A90703D5F117066041600EE704
:100FE00006600CE72846402108436060A8072346B6
:100FF00001D5082217E008221DE04849284608408C
:10100000606016E02846402108436060A807234638
:10101000BCD5B9E715E02846402108436060A80721
:1010200007D5234610220120C0430D99C046C04673
:101030005AE0234610220120C0430D99FFF7F6F82D
:1010400052E000210C910B460091632802D05B28EE
:1010500007D043E0E80601D40120A0600120009001
:101060003CE062690121099890475E2805D1012082
:101070000C9001466269099890472169002906D1C0
:101080000B4601AA8F00491CD3510829FADB00281E
:1010900035D0216900290ED1C117C90E09184A118E
:1010A000930001AA9A1849094901411A01201368BD
:1010B00088400343136062690121099890475D28C5
:1010C000E5D10C98002808D0002001AB81005A58C7
:1010D000401CD2435A500828F8DB01AB01202246BD
:1010E000C0430D99C046C04600280ADA401C06D10C
:1010F0000B98002803D00020C0430FB0F0BD0A9821
:10110000FBE7E90702D10A99491C0A913618002029
:101110000B9074E6CCCCCC0CFFFFFF7FF1F7FFFF08
:10112000F0B581B005460024009400688168C907C5
:101130001CD181682B4A2F3211420AD0A86D102190
:101140000143A965E86D01242043E865204601B00C
:10115000F0BD8168234A114001273943816022484C
:101160000068000205D4687E012825D1204601B020
:10117000F0BD1E4800681E49FFF773FB401C00903D
:1011800000980028EFD00098401E0090009800289A
:10119000E9D00098401E009000980028E3D0009805
:1011A000401E009000980028DDD00098401E00905E
:1011B00000980028E7D1D6E703F0DCFF064604E0FC
:1011C00003F0D8FF801B0328B8D228680168C9073C
:1011D000CCD18168C907F3D18168024A11403943F3
:1011E0008160EDE7E8FFFF7F082701402C00002029
:1011F000400D0300F0B583B05E490A684968401AA3
:1012000086185B49CF6801200023BE4202460EDDEE
:101210004C68A64205460FDA1543012D10D14D69E1
:10122000AE4213DC0022BE42034613DA13E01A4634
:101230004C68A6420546EFDB1D461543012DEED056
:101240000D4608350868A74217D043E00122BE4288
:10125000034600DB1346012B06D1CB699E420EDC10
:101260000022AE420EDA0EE028460D461035083157
:101270003C4607460868A7422CD103B0F0BD0122C6
:10128000AE4200DB1046029500281BD0A6423BDA96
:10129000886809680291FFF712F90546381BFFF7C5
:1012A0008DFA01462846FFF74FF90546301BFFF738
:1012B00085FA01462846FFF70AF90299FFF7AEF8CA
:1012C00003B0F0BD0D4618351031029C1F4608686A
:1012D000A742D2D0391B07460846FFF76FFA0290A3
:1012E00028683946FFF7EBF80299FFF72DF9054614
:1012F000301BFFF763FA01462846FFF7E8F8394646
:10130000FFF78CF803B0F0BD8869019009691C46AD
:10131000FFF7D5F807460298201AFFF74FFA014663
:101320003846FFF711F90546301BFFF747FA01462B
:101330002846FFF7CCF80199FFF770F803B0F0BD2D
:10134000B0B50A4C012500222046294603F009FFCA
:10135000284603F00BFE204629462A4603F001FFEB
:101360000348406803490860B0BDC046000400500F
:101370003000002058000020F0B585B072B600257E
:101380002C46009505E0019F79000D18641C182C6F
:101390004ED00195102101223D4803F0E2FE009855
:1013A00003900398072817D80398401C03900398CC
:1013B000072811D80398401C0390039807280BD8DE
:1013C0000398401C03900398072805D80398401CF5
:1013D000039003980828E7D320212D4F384603F0C7
:1013E000BBFE0546102100263846324603F0B9FE02
:1013F0000496691E4842484104990729C3D80499B4
:10140000491C049104990729BDD80499491C0491E9
:1014100004990729B7D80499491C0491049907290C
:10142000B1D80499491C049104990829E7D3AAE783
:1014300010210122164803F094FE02960298072814
:1014400017D80298401C02900298072811D80298D9
:10145000401C0290029807280BD80298401C02906A
:101460000298072805D80298401C02900298082884
:10147000E7D310210022064803F073FE780202D55C
:10148000FF200006054362B6284605B0F0BDC04601
:1014900000080050B0B5FFF76FFF0446FFF76CFF80
:1014A0008442254609DA84420ADDFFF765FF84425B
:1014B0000BDAA5420CDD2846B0BD05468442F4DCBB
:1014C0000446FFF759FF8442F3DB0446A542F2DCF1
:1014D00025462846B0BD0000F0B591B0F7A009F050
:1014E000DFFF012080050B90FF20019000060A908D
:1014F0000024F04D0C940294EF494E1C0C9A1446B3
:10150000134603E0641C202C00D1EFE107940893FC
:1015100009920691304672B60C9E3446059005E05D
:101520000E9949000E18641C182C4ED00E961021EE
:101530000122284603F015FE0C98109010980728F9
:1015400017D81098401C10901098072811D81098A0
:10155000401C1090109807280BD81098401C109031
:101560001098072805D81098401C1090109808284B
:10157000E7D32021284603F0EFFD0646102100277F
:1015800028463A4603F0EDFD0D971097711E48422C
:10159000484110990729C3D81099491C10911099F6
:1015A0000729BDD81099491C109110990729B7D85F
:1015B0001099491C109110990729B1D81099491C0C
:1015C000109110990829E7D3AAE710210122284693
:1015D00003F0C7FD0D9810901098072817D81098A1
:1015E000401C10901098072811D81098401C10909B
:1015F000109807280BD81098401C109010980728B6
:1016000005D81098401C109010980828E7D3102196
:1016100028460D9C224603F0A4FD31460A9801435A
:1016200004910B980E9901400E9162B672B627464E
:10163000204606E00F99490008187F1C182FBE4D60
:101640004ED00F9010210122284603F08AFD0D98FC
:1016500010901098072817D81098401C10901098D8
:10166000072811D81098401C1090109807280BD804
:101670001098401C10901098072805D81098401C0E
:10168000109010980828E7D32021284603F064FD25
:101690002A460546102100241046224603F061FD2B
:1016A0001094691E4842484110990729C2D81099E0
:1016B000491C109110990729BCD81099491C109108
:1016C00010990729B6D81099491C1091109907292B
:1016D000B0D81099491C109110990829E7D3A9E7AF
:1016E0000D9010210122284603F03BFD10940E9826
:1016F000002800D0049E04961098072817D8109848
:10170000401C10901098072811D81098401C109079
:10171000109807280BD81098401C10901098072894
:1017200005D81098401C109010980828E7D3102175
:101730002846224603F015FD0D990A9801430391AE
:101740000B980F9901400F9162B672B62646254656
:1017500005E00E9949000D18761C182E4ED00E95F6
:1017600010210122744D284603F0FBFC10941098C0
:10177000072817D81098401C10901098072811D8E7
:101780001098401C1090109807280BD81098401CF7
:1017900010901098072805D81098401C10901098A9
:1017A0000828E7D32021284603F0D6FC2A46054620
:1017B0001021002710463A4603F0D3FC1097691E0B
:1017C0004842484110990729C3D81099491C1091E3
:1017D00010990729BDD81099491C10911099072913
:1017E000B7D81099491C109110990729B1D81099B0
:1017F000491C109110990829E7D3AAE7102101226A
:101800004D4803F0AEFC10970F98002801D00398C4
:101810000D9010980728079C049E17D81098401C1C
:1018200010901098072811D81098401C109010980C
:1018300007280BD81098401C10901098072805D83E
:101840001098401C109010980828E7D3102100220F
:1018500039480F9203F085FC62B60A2003F086FB3C
:101860000B980E99014201D00A980543099A089BEA
:10187000069F0D998E42304611DDA84212DA8E4243
:1018800013DA86422C4D00DC0646F0179B194241C4
:1018900005988642314623DDB94225DA32E608460C
:1018A000A842ECDB28468E42EBDB0E468642224DF8
:1018B000EADDEAE700080050FFFFFF7F5461726134
:1018C0006E646F2E2E2E20416775617264652065EF
:1018D00073746162696C69646164652E0D00000057
:1018E0000646B94200DA0DE639460BE6711A019850
:1018F0002C308142029C0DDD1BA009F0FFF8641C16
:101900000A2C00D0F7E5264809F0CAFD0B484068CC
:1019100011B0F0BDD017C00E18180F9951414009F1
:10192000C90641180548416005A009F0E7F80348D9
:10193000406811B0F0BDC0460008005058000020BB
:1019400054617261206573746176656C20636F6E9B
:10195000636C7569646121204F6666736574203D10
:101960002025640D0A0000004C656974757261736E
:1019700020696E7374617665697320286469666690
:101980003A202564292E2054656E74616E646F20A0
:101990006E6F76616D656E74652E2E2E0D0A0000D9
:1019A000E4B8000880B5044804490E2201F04AFC5E
:1019B000212001F059FA80BD9640000004C70008BC
:1019C0007D200001054948607047C046704700000F
:1019D0007D200001014988607047C0465C010020FD
:1019E00070B507F0CBF8484807F0D2F8474807F041
:1019F000E3F8474800F068FD464809F051FD46A06D
:101A000009F04EFD4B484C4901F06EF94B4809F086
:101A100047FD002001F028FA01F026FD484803F0B8
:101A2000A5FA07F0FFFC0125284601F01DFA01F098
:101A30001BFD7D20C4002646C836304603F096FACA
:101A400001F0B8FE022001F00FFA01F00DFD304662
:101A500003F08CFA3B4809F023FDFFF771FCFFF718
:101A60003BFD39A009F01CFD032001F0FDF901F058
:101A7000FBFC204603F07AFA07F048FE064607F022
:101A800097F83046FEF7D9FE024635A00B4609F01E
:101A900035F8042001F0E8F901F0E6FC204603F0F7
:101AA00065FA374801F07EFD364801F00DFF36A09B
:101AB00009F024F802F082F800281CD03CA009F0BC
:101AC000EFFC052001F0D0F901F0CEFC6434204693
:101AD00003F04CFA384807F0B7F9062001F0C4F9D2
:101AE00001F0C2FC204603F041FA344809F0D8FC6A
:101AF0000825334800E02D4809F0D2FC284601F0C3
:101B0000B3F901F0B1FC70BD00008E420AD7CD419F
:101B10000C0800208AC40008312E20434C492F4471
:101B20006562756720554152542E2E2E204F4B0D65
:101B300000000000A0080020092A000809C40008CD
:101B400088130000B5C400082020202E2E2E20541B
:101B500061726120636F6E636C756964612E0D0044
:101B600054656D706572617475726120696E696328
:101B700069616C3A20252E326620430D0A00000070
:101B800080030020EC010020332E20476572656E33
:101B9000636961646F7220646520436F6E66696774
:101BA000757261636F65732E2E2E200041C400088C
:101BB0005B4F4B5D0D000000B4060020EDC4000833
:101BC000D6C30008F0B591B000F09EFD01F04CFCCA
:101BD00001F0CAF800F0D0FC07F030FC03F0CAFABC
:101BE0006B4EB168401A7D21CF00791E884241D8E2
:101BF0003078012867D003F0BDFA717800296FD0E2
:101C000001F02AF838287AD101A806F0ADFF63491F
:101C10000198FEF799FC624D2946FEF758FCFEF745
:101C2000F3FD01465F4C2046203001F0FFF9029899
:101C30002946FEF74CFCFEF7E7FD01462046303012
:101C400001F0F4F9B078401CB070C0B2052858D348
:101C50000020B07007F05AFD054606F0A9FF504974
:101C60002846FEF734FCFEF7CFFD0146204601F082
:101C70006FF946E003F07EFAB06001F097FD04468C
:101C800001F09EFD2046FEF7A4FD044606F088FF05
:101C90007F20C005019000200E9001A80EA901F040
:101CA00097FD3C492046FEF712FC3B49FEF7B6FB88
:101CB0000199FEF70CFC0E99FEF7B0FB06F06CFFE5
:101CC0003078012897D100203070FFF7E3FBFFF751
:101CD00091FA06F069FF03F04DFA717800298FD16F
:101CE0007168411AB9420ED3706001F031F80028D2
:101CF00009D10120707000F0AFFF382884D0002097
:101D0000B0700020707003F035FAF168401AB842E4
:101D10003AD303F02FFAF06000F09EFF082833D189
:101D20000DA80CA90BAA07F067F800282CD00AA868
:101D300009A908AA07F03CF8002825D00CA80378C8
:101D40000DA802780BA80078009001AC16A12046DF
:101D500008F000FF0AA8027809A8037808A800780C
:101D600000900EAD14A1284608F0F4FE01204603B1
:101D70000827304621463A4601F064FA10363046CC
:101D800029463A4601F05EFA01F0A6FD11B0F0BD19
:101D90003001002086D01CB9CD6CC64300007A44C7
:101DA0000000204130220000253032643A253032D4
:101DB000643A253032640000253032642F253032F9
:101DC000642F25303264000010B586B01C4C2046CC
:101DD00008F094FE204608F091FE1A4808F08EFEA6
:101DE00005A804A903AA07F007F8002808D003A84B
:101DF000037804A8027805A8017813A008F07EFEF5
:101E000002A801A96A4606F0D3FF002808D0684658
:101E1000037801A8027802A8017816A008F06EFEE7
:101E2000074C204608F06AFE204608F067FE204670
:101E300008F064FE204608F061FE06B010BDC04602
:101E400014C6000807B60008417373696E617475A3
:101E500072612020202020202020202020202020EF
:101E6000253032643A253032643A253032640A0D26
:101E700000000000526573706F6E736176656C20B0
:101E800020202020202020202020202025303264E7
:101E90002F253032642F253032640A0D00000000F7
:101EA000F0B595B0044632A0214608F027FEE0B216
:101EB0000BA901F0B3FC002853D049480BAD2946CB
:101EC00008F01CFE474E10223046294601F0BAF9B0
:101ED0002420285EFEF784FC0090019104AF039457
:101EE0001924414A3846214608F018FE3846FEF7C4
:101EF0004DF93146E03182B20846394601F0A2F987
:101F00002620285EFEF76CFC0090019138462146A1
:101F1000354A08F003FE3846FEF738F93146F0310D
:101F200082B20846394601F08DF9139B2FA238463C
:101F30002146039C08F0F2FD3846FEF727F9C0362B
:101F400082B23046394601F07DF9113528480A221F
:101F5000294601F077F92748214608F0CFFD15B052
:101F6000F0BD10A0214608F0C9FD15B0F0BDC04677
:101F70004154545F444953504C41593A2054656E82
:101F800074616E646F206C6572206F206772616F80
:101F900020646520696E646963652025642E2E2E99
:101FA0000D0A0000436F6E74726F6C6C65723A209C
:101FB0004552524F20464154414C20616F206C6580
:101FC00072206461646F7320646F206772616F2098
:101FD0006E6F20696E646963652025640D0A0000D8
:101FE00015C9000870200000D3C90008257500003D
:101FF00070210000D6C8000810B586B0072904D8A3
:10200000464809F04DFA06B010BD801D891F89B2FF
:1020100003AA0B2301F0CAF900281FD003A80078F7
:10202000002820D068460024847204810194009422
:102030000B2101F023FC00281DD069468C7203A8F7
:10204000FEF7ABF800281BD01CA003A96A4608F0D5
:1020500055FD3E2000F008FF06B010BD0CA009F0B1
:102060001FFA06B010BD25A009F01AFA3E2000F0B4
:10207000FBFE06B010BD3B2000F0F6FE06B010BD22
:102080001D4809F00DFA172000F0EEFE06B010BD55
:10209000417574683A2046616C6861206E6F2070EB
:1020A000617273657220726F627573746F20646100
:1020B0002073656E68612E0D000000004175746824
:1020C0003A2053656E686120696E636F7272657441
:1020D000612E20446967697461646F3A2027257313
:1020E00027207C20457370657261646F3A20272534
:1020F00073270D0A0000000047C800084175746886
:102100003A2053656E68612076617A696120726554
:102110006365626964612E0D0000000078C80008E4
:10212000B0B584B0082955D3801D891F89B201AA92
:102130000B2301F03BF9002818D001A800780028F3
:1021400019D02F4D287800281AD0434809F0A8F953
:102150006C1C01A92046FEF720F8002828D03F4833
:1021600009F09EF900202870402031E01AA009F003
:1021700097F904B0B0BD3D4809F092F904B0B0BD84
:1021800020A009F08DF901A8FEF700F8032804D873
:1021900029A009F085F93F201AE0681C01A9FEF783
:1021A0000AF8244809F07CF9012028701F200FE06C
:1021B0002B4809F075F9204601F0CEFC002801D12A
:1021C000294800E0274809F06BF900202870172003
:1021D00000F04AFE04B0B0BD417574683A20466113
:1021E0006C6861206E6F2070617273657220646527
:1021F000206E6F76612073656E68612E0D000000A1
:102200004C010020417574683A205265636562692B
:102210006461207072696D656972612073656E68B2
:1022200061207061726120616C7465726163616FBD
:102230002E0D000015C80008417574683A204E6FD5
:1022400076612073656E6861206D7569746F2063B7
:10225000757274612E0D0000EFC70008D2C7000828
:1022600046C700089AC7000813C7000876C70008C9
:1022700010B50068C169090702D5416A08210162E9
:10228000BB4CE06805F036F9E0680122214605F014
:10229000EDFC10BDF0B581B0B54C6078002800D0E1
:1022A000FAE025780C2D33DC082D3ED00A2D33D0F2
:1022B000A6887E2E00D9EFE0FDF71AFF0068405D8A
:1022C0008006C00E00D1E7E07C488555701CA080D8
:1022D0001B2003F05FFB092003F05CFBA3480A2DE1
:1022E0000AD1E188491C01402289914204D0E28848
:1022F000A04B0D269E54E180E188491C01402089B5
:10230000814200D1C2E0E0889A4A1554E180BDE0E4
:102310007F2D0AD00D2DCBD1A08800284ED0E749C3
:1023200000220A5401206070B6E0A088002800D185
:10233000B2E0401EA0801B2003F02CFB092003F01C
:1023400029FBE088401C894F38402189884204D00D
:10235000E188884A08235354E0801B25284603F06F
:1023600029FB0926304603F025FB284603F012FB23
:10237000304603F00FFBE088401C3840218988423A
:1023800004D0E1887B4A20235354E0801B25284653
:1023900003F010FB0926304603F00CFB284603F03F
:1023A000F9FA304603F0F6FAE088401C38402189FB
:1023B00088426BD0E188F94A082365E01B2003F0CE
:1023C000E9FA092003F0E6FAE088401CF24F3840B1
:1023D0002189884204D0E188F04A0D235354E080DB
:1023E0001B25284603F0E6FA0926304603F0E2FAF8
:1023F000284603F0CFFA304603F0CCFAE088401CC0
:1024000038402189884204D0E188E44A0D2353549E
:10241000E080E088401C38402189884204D0E1886F
:10242000DE4A0A235354E0801B25284603F0C2FAF3
:102430000926304603F0BEFA284603F0ABFA3046D0
:1024400003F0A8FAE088401C38402189884204D073
:10245000E188D24A3E235354E0801B25284603F0EE
:10246000A9FA0926304603F0A5FA284603F092FAA5
:10247000304603F08FFAE088401C384021898842BA
:1024800004D0E188C54A20235354E0801B2003F088
:1024900091FA092003F08EFAE0680122214605F046
:1024A000E5FB002807D0E06805F024F8E068012289
:1024B000214605F0DBFB01B0F0BDC0463809002025
:1024C000B44800218170704780B50649C860012278
:1024D00005F0CCFB002801D001F065F902A008F05E
:1024E0000DFB80BDE00000200D0A434C49205072D6
:1024F0006F6E74612E2044696769746520274845B2
:102500004C5027207061726120636F6D616E646F43
:10251000732E0D0A3E20000070B504461B2003F008
:1025200039FA092003F036FA9B480A2C0BD1994955
:10253000CA88521C02400B899A4204D0CB88974D1E
:102540000D26EE54CA809349CA88521C024008895D
:10255000824203D0C888914B1C54CA801B2003F0D0
:1025600029FA092003F026FA70BDC046FF030000D7
:10257000E0000020B8090020F0B581B04D4E707821
:10258000012800D094E04CA008F08AFFFDF7B0FDD0
:1025900005460068494C2778C15DC90706D06778B1
:1025A000C15DC907A41C0029F5D1641E2021204665
:1025B000FDF7E2FD00281AD000210170811C2A6875
:1025C0004D1E2878135CDB0716D00878135CDB07F8
:1025D00011D04878135CDB074CD08878135CDB079C
:1025E000091D002BECD18D1E002807D007E0002527
:1025F000002F07D152E00D46002800D1054627786C
:10260000002F4BD02E492046FDF7DEFD00282FD0AD
:102610002D492046FDF7D8FD2A4F00282ED02B4902
:102620002046FDF7D1FD00282AD029492046FDF794
:10263000CBFD002826D027492046FDF7C5FD002800
:1026400022D025492046FDF7BFFD00281ED0234992
:102650002046FDF7B9FD00281AD021492046FDF794
:10266000B3FD002816D01FA0214608F047FA15E058
:10267000144F10E04D1C0028C0D0C0E708370AE016
:10268000103708E0183706E0203704E0283702E06A
:10269000303700E038377968284688470748802176
:1026A000FDF752FD00207070B08015A008F026FAEA
:1026B00001B0F0BDE00000200D000000380900204E
:1026C000BFC3000834B800089EC30008B5C30008A3
:1026D000BAC30008C4C30008C9C30008A4C30008E3
:1026E000ACC30008436F6D616E646F2064657363F3
:1026F0006F6E68656369646F3A20222573222E002D
:102700000D0A3E200000000070B5224CA078002881
:102710003ED1E088218988423AD01B2003F03AF963
:10272000092003F037F9A078012806D11B2003F017
:1027300041F9092003F03EF970BD0120A070208905
:10274000E188884201D1002512E000211248134A95
:10275000238925896D1C054025816518D35C2B7460
:1027600023894D1CE688B34202D03F292946EFD386
:102770001B2003F01FF9092003F01CF9E068214633
:102780001031AAB205F0B2FA002801D00020A070E2
:1027900070BDC046E0000020FF030000B809002023
:1027A00070B5002822D004462021FDF7E5FC002862
:1027B00020D000210170861CFDF79AFC0168751E6F
:1027C00028780A5CD20718D030780A5CD20713D078
:1027D00070780A5CD2073BD0B0780A5CD207361D0D
:1027E000002AECD1B51E002809D009E02DA008F080
:1027F00085F970BD002503E03546002800D1054667
:102800001A492046FDF7E0FC002817D01949204658
:10281000FDF7DAFC164E002815D017492046FDF7C3
:10282000D3FC002818D015492046FDF7CDFC002820
:1028300017D013A0214608F061F970BD0C4E7168E5
:102840002846884770BD083671682846884770BD9D
:10285000751C0028D3D0D3E7103671682846884706
:1028600070BD183671682846884770BDA0C300083F
:1028700074B80008CEC3000877C30008D2C30008AC
:10288000537562636F6D616E646F204457494E20CB
:10289000646573636F6E68656369646F3A202225AF
:1028A00073220000537562636F6D616E646F204424
:1028B00057494E2066616C74616E646F2E205573AB
:1028C00065202748454C50272E00000010B50C4CC1
:1028D000204606F049F90BA008F0E2FD2068FDF75C
:1028E000ACFF02460DA00B4608F008F96068FDF742
:1028F000A4FF024610A00B4608F000F910BDC04628
:10290000680100204461646F73206465204672652D
:102910007175656E6369613A0D00000020202D20FD
:1029200050756C736F732028656D203173293A20C0
:10293000252E31660D0A000020202D20457363618D
:102940006C612041202863616C63293A20252E3276
:10295000660D0A0010B5084C204606F005F907A0E0
:1029600008F09EFDA068FDF768FF024608A00B4630
:1029700008F0C4F810BDC046680100204461646FCF
:10298000732064612042616C616E63613A0D0000E6
:1029900020202D205065736F3A20252E3266206747
:1029A0000D0A000080B506F0B1FEFDF746FF0246B5
:1029B00002A00B4608F0A2F880BDC04654656D70B9
:1029C0006572617475726120696E7465726E6120E2
:1029D000646F204D43553A20252E326620430D0A60
:1029E0000000000080B5024808F05AFD80BDC046D6
:1029F0000DC0000880B52E2000F036FA80BD80B5ED
:102A000007F082FF80BD000010B5062900D2CAE0A1
:102A100002785A2A00D0C6E04278A52A00D0C2E047
:102A2000C278832A00D0BEE0427903791B029A184B
:102A3000082992B214D300235B4CA2420ED05B4C07
:102A4000A2420BD05A4CA24208D08378DC1C8C42A4
:102A500006D8C3189C785B781B021B19554C238041
:102A6000554B9A4216DC5C4B9A4226DD5B4B9A42F0
:102A700054DD5B48824200D184E05A48824279D0DA
:102A8000C1208001824200D08DE04A48008805F0D4
:102A90009FF910BD494B9A421BDD494B9A4246DDD6
:102AA000484B9A4273D04848824268D04748824295
:102AB00079D151483821018010BD4C4B9A4217DC26
:102AC0004C4B9A4245D0384B9A426CD1FFF794FA5E
:102AD00010BD3F4B9A4217DC354B9A423FD06123E1
:102AE000DB019A425FD1334A128806F0E3FE10BD43
:102AF00081208001824235D03D48824253D12D4809
:102B0000008806F0C3F810BD324B9A422DD0312018
:102B10000002824247D1FEF745FF10BD324B9A4278
:102B200038D0224B9A423ED106F02AFB10BD8120BC
:102B3000C001824232D005200003824233D12E48A8
:102B4000018838292FD1082101802CA008F0A8FC89
:102B500010BD00201749085E00F0D0FC10BDFFF743
:102B6000DFFA10BD01F00AFA10BD124A128806F011
:102B700031FE10BD0F48008806F0B0FC10BD06F015
:102B800021F810BD0B48008806F0F8FC10BD06F0D7
:102B900009FA10BD26A007F0B1FF10BD00200549BD
:102BA000085E01F02BFA10BD302000000F3000004D
:102BB00060300000340900205F3000007F400000DA
:102BC0001F70000020700000307000009070000046
:102BD0008F300000903000005F2000001F300000A8
:102BE0002030000030300000602000003F20000056
:102BF000502000002020000050000020434F4E5481
:102C0000524F4C4C45523A205361696E646F2064B8
:102C10006F204D6F6E69746F72202D3E2054656C6D
:102C200061206465205365727669636F2E0D000024
:102C3000426F74616F2044657363617274612041F7
:102C40006D6F73747261205072657373696F6E611A
:102C5000646F0A0D00000000034800887047C046FA
:102C6000014908807047C0465000002080B50248E6
:102C700002F024F880BDC0466C02002080B50348F5
:102C800002F01CF8024802F019F880BD1002002082
:102C9000C802002080B5024802F010F880BDC0468E
:102CA0002403002080B500680E21016202F062FA60
:102CB000DC49486100208870487080BD10B54A1E0C
:102CC0003F2A0AD80068054A904206D1D54C218196
:102CD0000120607002F04EFAA06110BD0044004077
:102CE000D048002101707047F0B581B00546CD4F46
:102CF000002038707870B880F880B870FD60396155
:102D000078613C461C34402620463146FDF71CFACB
:102D1000C5488021FDF718FA0C483146FDF714FA32
:102D200028462146324604F019FB00280BD0F868EB
:102D300004F0E0FBF8684022214604F00FFB002875
:102D400001D000F030FD01B0F0BDC046A41000205D
:102D5000F3480178002901D0012070478188C0889C
:102D6000081A411E8841704770B590B002F002FA0F
:102D7000EB4E7169002907D07169411A64295FD34C
:102D8000002171610121B170B17801291CD10020AD
:102D9000B0707070F06804F0ADFBF06834461C341D
:102DA0004022214604F0DAFA002849D0F06804F005
:102DB000A1FBF0684022214604F0D0FA00283FD061
:102DC00000F0F1FC10B070BD7178012938D1B16903
:102DD000401A142834D372B6348935461C356846F7
:102DE00029462246FDF797F900207070308162B6BF
:102DF000F0684022294604F0B1FA00280BD0F068B0
:102E000004F078FBF0684022294604F0A7FA002875
:102E100001D000F0C8FC6B46987859781A78062CD7
:102E200010D15A2A0ED1A5290CD103280AD1DD7858
:102E3000822D07D11D794F2D04D15B794B2B01D108
:102E400010B070BD042CFBD35A2AF9D1A529F7D1B3
:102E5000C01CC1B28C42F3D33269002AF0D068465C
:102E6000904710B070BDC046F0B581B004461C203C
:102E700002F090FD0B2002F08DFDF0488188C288A1
:102E8000914207D2C1888288D24389188DB20A2D17
:102E900007D24EE08188C288511A7F318DB20A2D47
:102EA00047D3210A00918288E5495A268E548288A8
:102EB000571C7F22174087808788A523CB5583889E
:102EC0005B1C1340838083880727CF5483885B1C57
:102ED0001340838083888227CF5483885B1C1340F0
:102EE000838083880027CF5483885B1C13408380B2
:102EF00083888427CF5483885B1C13408380838816
:102F0000CE5483885B1C1340838083880126CE5473
:102F100083885B1C134083808388009ECE54838803
:102F20005B1C134083808388CC548188491C1140EA
:102F300081801C2002F03EFD0B2002F03BFD092D9C
:102F400002D8002001B0F0BD012001B0F0BDC046A4
:102F5000F0B583B00C4605461C2002F01BFD0B208B
:102F600002F018FDB5488188C288914207D2C18815
:102F70008288D24389188EB2082E07D243E0818816
:102F8000C288511A7F318EB2082E3CD3A1B22A0AD0
:102F90000192090A02918288A9495A238B54828896
:102FA000531C7F22134083808388A527CF548388B6
:102FB0005B1C1340838083880527CF5483885B1C68
:102FC0001340838083888227CF5483885B1C1340FF
:102FD00083808388019FCF5483885B1C1340838048
:102FE0008388CD5483885B1C134083808388029D33
:102FF000CD5483885B1C134083808388CC548188A4
:10300000491C114081801C2002F0D4FC0B2002F0EE
:10301000D1FC072E02D8002003B0F0BD012003B080
:10302000F0BDC04660000020E4100020F0B585B07F
:103030000C4605461C2002F0ADFC0B2002F0AAFC59
:10304000D8488188C288914207D2C1888288D243F9
:1030500089188EB20A2E07D254E08188C288511A8C
:103060007F318EB20A2E4DD3210A0491210C039197
:10307000210E0291290A01918388CB495A27CF5406
:1030800083885F1C7F231F4087808788A522CA55BD
:103090008288521C1A408280828807278F54828837
:1030A000521C1A408280828882278F548288521C48
:1030B0001A4082808288019F8F548288521C1A4055
:1030C000828082888D548288521C1A408280828835
:1030D000029D8D548288521C1A4082808288039DF2
:1030E0008D548288521C1A4082808288049D8D549F
:1030F0008288521C1A40828082888C548188491CA4
:10310000194081801C2002F055FC0B2002F052FC7B
:10311000092E02D8002005B0F0BD012005B0F0BD99
:1031200060000020F0B583B00026002900D182E0C5
:10313000054600287FD0EE4FF86800287BD00C466B
:103140001C2002F027FC0B2002F024FCB888F98830
:1031500088420AD2F888B988C943401880B28442AC
:103160000AD8012684420AD95FE0B888F988081A8B
:103170007F3080B28442F4D90026844255D801962B
:103180000320214601400091611E032901D2002243
:1031900029E0844300220295A85CBB883946D54FBC
:1031A000F8548888401C7F2318408880A81825463A
:1031B00044788E88BC558C88641C1C408C80847834
:1031C0008E88BC558C88641C1C408C80C0788C8890
:1031D00038550F462C46029D8888401C1840888030
:1031E000121D9442D8D1009C002C019E1DD0A85CD9
:1031F000BB88C049C854B888401C7F231840B88099
:10320000012C12D0A81841782546BC88B94A11551E
:10321000B988491C1940B980022D06D08078B98838
:103220005054B888401C1840B8801C2002F0C2FBE3
:103230000B2002F0BFFB304603B0F0BD6000002061
:10324000E4100020F0B593B00026002A00D1A6E0DB
:10325000002900D1A3E01446A54FFA68002A00D146
:103260009DE0019002910846FCF790FF0546A042C0
:1032700000D325466A1DD1B23D2900D98FE003ACA9
:10328000019B63718221E170A270A52060705A20B9
:103290002070180A2071A01D02992A46FCF73BFFF6
:1032A0002819FF21C17181711C2002F073FB0B20D2
:1032B00002F070FBB9880835E8B2FA8891420BD267
:1032C000F988BA88D243891889B281420BD3012286
:1032D000029281420BD25BE0B988FA88511A7F31A1
:1032E00089B28142F3D200220292814250D303215B
:1032F0000D400195411E032901D2002125E0FC214A
:10330000084000217B4A03AC635CBE889355BB88B0
:103310005E1C7F231E40BE8064186678BD885655AB
:10332000BD886D1C1D40BD80A578BE889555BD88A3
:103330006D1C1D40BD80E478BD885455BC88641C5C
:103340001C40BC80091D8842DDD1019D002D1FD08D
:1033500003A8425CBB886748C254BA88531C7F22CA
:103360001340BB80012D13D003AB5B185B78BC8886
:103370000355BB885B1C1340BB80022D08D003ABF8
:1033800059188978BB88C154B888401C1040B8804F
:103390001C2002F00FFB0B2002F00CFB029E3046BB
:1033A00013B0F0BD60000020E4100020F0B583B041
:1033B0001C4615460E46521E29469141421E01905A
:1033C00090410840012E01D8002100E00121014078
:1033D000601E274687410F40012F42D128462146D3
:1033E000FCF7B2FE022C38D3B01EA11E884200D3D7
:1033F00008460290401C00900122002305E0D01CEA
:103400001B1D121D0099884227D00198C61871789B
:10341000FF2922D0202900D3E954029898421CD0D9
:10342000B178FF2919D0202901D3E81841700298FA
:10343000824212D0F178FF290FD0202901D3E81859
:103440008170901C0099884207D03179FF2904D0FF
:103450002029D4D3E818C170D1E72819401E0021D3
:103460000170384603B0F0BD70B5214C20780028BB
:103470003DD1A088E188884239D01C2002F08AFA28
:103480000B2002F087FA2078012806D11C2002F0D8
:1034900091FA0B2002F08EFA70BD01202070E088B6
:1034A000A188884201D1002512E000211148124A6A
:1034B000E388C35C5354E3885B1C7F251D40E58093
:1034C000E3884D1CA688B34202D03F292946EFD39A
:1034D0001C2002F06FFA0B2002F06CFAE068AAB22E
:1034E000054904F003FC002801D00020207070BDC5
:1034F00060000020E4100020A4100020B0B50446B5
:10350000102801D00C4800E00A4808252946FFF79A
:1035100009FE102C00D10B252846FFF7A5FC102C26
:1035200003D010A007F0EAFAB0BD04A007F0E6FA55
:10353000B0BDC046A8B50008B0B5000844697370B6
:103540006C61792048616E646C65723A20446573E1
:103550006C696761206261636B6C696768740A0DEE
:1035600000000000446973706C61792048616E64EA
:103570006C65723A2052656C696761206261636BA9
:103580006C696768740A0D00014801210170704779
:10359000850100207F498878012801D100228A70A6
:1035A0007047C0467B4900224A700A70C8600A61B1
:1035B0008A707047774800787047C046F0B585B08C
:1035C0000024002912D0124FFB68002B0ED00D46AC
:1035D00003920490A021022264261846334601F08B
:1035E0006BFE002805D00BA007F05AFF204605B05F
:1035F000F0BDF8680095039901910296A02102237D
:10360000049A01F0FFFE44424441204605B0F0BD5B
:10361000BC000020454550524F4D5F526561643AF1
:1036200020446973706F73697469766F206E616F7F
:1036300020657374612070726F6E746F2E0D0000C0
:10364000F0B585B0294D28780124012808D1A87843
:10365000012808D127A007F023FF0020A8702870B8
:10366000204605B0F0BD01F085FD6969401A0021D2
:1036700005282DD30491AA881F2010402021081A64
:103680002F89B842064600D33E46B218AA802B695D
:103690009B192B61BE1B2E8187421DD9E8686427C8
:1036A0000297B6B2202E00D30E460093019692B236
:1036B000A021022301F0C0FF00280FD001460C48D2
:1036C00007F01CFA0120A870049C204605B0F0BD4C
:1036D0000C46204605B0F0BD0020C0E72C7001F07C
:1036E00049FD6861049C204605B0F0BDBC00002087
:1036F00005B90008454550524F4D2028424C4F43D4
:103700004B494E475F54455354293A204572726FD6
:103710002064652049324320646574656374616484
:103720006F210D00F0B583B005461A4EF068434294
:1037300043410024002A22D0002920D037781F439B
:10374000FB071CD10024B4703281B58031617470E4
:10375000642302931F232B402027FB1A934200D39C
:10376000134600910193A02102232A4601F064FF31
:10377000002807D00146084807F0C0F934702046F9
:1037800003B0F0BD0124347001F0F4FC70612046F8
:1037900003B0F0BDBC0000204EB9000880B5202069
:1037A00001F0FCFB80BD72B6FEE700000748006830
:1037B000406A704780B5054803F0B2F980BDC04645
:1037C00002480068002141627047C046C0070020DF
:1037D00010B54A1E0B469341441E0246A2411A40B0
:1037E000012A04D1E64B5C690460986908601046C0
:1037F00010BDC046B0B54C1EA141421E05469541C4
:103800000D40012D08D153218900EB4A5118224661
:10381000FCF7A5FC002101552846B0BD70B5024655
:10382000072801D3002300E001234C1E0846A041D5
:10383000184001280AD128235343DF4AD2182032E6
:1038400038CA38C138CA38C178CA78C170BDC046D4
:10385000002805D0D8494979072900D300210170F3
:10386000411E88417047C046D348C08B7047C04650
:10387000D148808B7047C04607207047B0B54C1EBA
:10388000A141421E054695410D40012D06D1CA4970
:1038900008312246FCF763FC002101552846B0BDE3
:1038A000B0B54C1EA141421E054695410D40012D6B
:1038B00008D12721C900C04A51182246FCF74FFC05
:1038C000002101552846B0BDBA4900224A710A714B
:1038D00008608A717047C046F0B581B0584F38799A
:1038E000002817D0B979012959D1401E05284AD896
:1038F00078440079400087443702616E5478FFF7BE
:103900009FFE00284BD0FFF745FE002800D188E03D
:103910006C4879E07879012832D1FFF74BFE002816
:103920003DD101F027FCB968401A6849884236D376
:10393000002078710124BC71386800280DD09E49A0
:10394000B22200F0CBFF05465920C6006048314640
:103950002A4607F0D3F8984885515E4807F0A0FD45
:103960003C71B87900281AD0B32082000020924917
:10397000FFF7D8FE002842D00220387101B0F0BD18
:10398000B87900280BD0012078710020B871387107
:1039900001F0F0FBB8604C484C4907F0AFF801B0BB
:1039A000F0BD17208001B3218A008349FFF7BAFEDA
:1039B000002826D00620387101B0F0BDB320820067
:1039C000104614307C49FFF7ADFE00281BD00420C0
:1039D000387101B0F0BDFFF733FE0028DFD0FFF7EC
:1039E000D9FD002816D034480EE0FFF729FE002844
:1039F000D5D0FFF7CFFD00281AD01FA004E036482D
:103A000002E02B4800E02D4807F04AFD07203871FE
:103A100001B0F0BD274807F043FD0520387101B023
:103A2000F0BD274807F03CFD0320387101B0F0BD20
:103A300004A007F035FD0020B871387101B0F0BD69
:103A4000D400002053746F726167652046534D3A6D
:103A500020426C6F636F20424B5032204F4B2E2020
:103A600053616C76616D656E746F20636F6D706C01
:103A700065746F2E0D00000053746F7261676520CE
:103A800046534D3A204572726F2064652064726916
:103A900076657220616F206573637265766572204A
:103AA000426C6F636F20424B50322E0D00000000BD
:103AB00009BB0008F2BB0008BDBB0008DCBA000867
:103AC0000FBC000830BC00088FB900088813000044
:103AD0000EBA000867BB000836BB0008B0B5014647
:103AE0000020002910D0334CA279002A0CD1532099
:103AF0008000314D28181422FCF731FBFF20603084
:103B00000021295401206071B0BDC046014600204B
:103B1000062907D8EF4A9379002B03D10120507171
:103B2000254A51717047C0460146EA4A90790028FB
:103B300003D101235371F64AD183012148407047D4
:103B40000146E44A9079002803D101235371F04AD9
:103B50009183012148407047B0B5014600200029FB
:103B60000DD0DC4CA279002A09D1E94D2846083055
:103B70000A22FCF7F4FA012060710021A974B0BD9B
:103B8000B80D0020B0B501460020002910D0D14C5E
:103B9000A279002A0CD12720C000DD4D281814225C
:103BA000FCF7DDFAFF204C30002129540120607120
:103BB000B0BDC046D4000020B80D0020F0B587B0DD
:103BC000C448006800281FD0C3A007F069FCB320D8
:103BD000049086000024CE4F204639463246FFF737
:103BE000EDFC002813D05920C0003D58B9480068AA
:103BF000B222394600F072FEA8420DD1DE4806F02E
:103C00007DFF012007B0F0BD002007B0F0BDC14826
:103C1000002106F073FF05E00246BF4800212B4655
:103C200006F06CFFBDA007F03BFC30461430B84FE7
:103C300039463246FFF7C2FC00280CD05920C0009C
:103C40003D58A4480068B222394600F047FEA84219
:103C500007D1C84826E017204101AE4806F04EFFC4
:103C600006E0024617204101AB482B4606F046FF0E
:103C7000B94807F015FC172001908701A44D38467C
:103C800029463246FFF79AFC002812D05920C0007E
:103C90002E5890480068B222294600F01FFEB0421C
:103CA0000CD1B34807F0FCFB01208A49487107B0EA
:103CB000F0BD9848394606F021FF05E002469648D7
:103CC0003946334606F01AFFA44807F0E9FB281DE1
:103CD0005921C900FCF738FAA14801210391296054
:103CE0006121A860E9602C827F20C00568619D4841
:103CF000E861284620309C4E316810220694144614
:103D0000FCF72DFA3020069929542846313097497E
:103D10000A273A460597FCF7FEF9F06A316B46220E
:103D2000A952442168523B2006992954B06928645D
:103D300028464830316C02942246FCF710FA58208D
:103D4000069929542846593088493A46FCF7E3F940
:103D5000F06E316F6E22A9526C2168526320069971
:103D60002954B06DA8668027F15928467030224644
:103D7000069CFCF7F4F9EC55284681307B49059EFA
:103D80003246FCF7C8F9B020774A1058962168529D
:103D9000AC201058942168529820105890216850F7
:103DA0008B202C54C020115828469830029F3A4648
:103DB000FCF7D5F9A8202C542846A9306B49324687
:103DC000FCF7A9F9F020684A1058BE216852EC208F
:103DD0001058BC216852D8201058B8216850049857
:103DE0002C540398000211582846C0303A463E46EB
:103DF000FCF7B5F9D0202C542846D1305B49059FFB
:103E00003A46FCF788F9132000010490564A1058EE
:103E1000E62168524B2080001058E421685223208C
:103E2000C0001058E0216850DB202C540520800190
:103E300011582846E8303246FCF791F9F8202C5406
:103E40002846F93049493A46FCF765F901980001DE
:103E5000454E30588721490068525B208000305819
:103E60004321890068522B20C00030582121C9000D
:103E70006850FF27384604302C54112000012818C0
:103E80000321C9017158029AFCF769F90920400120
:103E90002C543846223028183449059AFCF73BF94F
:103EA0001B20000130589B21490068526B20800084
:103EB00030584D21890068523320C0003058049991
:103EC00068502C37EC55034803994171204607B0E0
:103ED000F0BDC046D4000020454550524F4D204D06
:103EE000616E616765723A205665726966696361E1
:103EF0006E646F20696E74656772696461646520C1
:103F0000646F73206461646F732E2E2E00000000B6
:103F1000B80D0020D8B9000855BA000845455052E0
:103F20004F4D204D616E616765723A205072696D28
:103F30006172696F20636F72726F6D7069646F2E4A
:103F40002054656E74616E646F204261636B75709E
:103F500020312E2E2E00000069BC000829BD00086B
:103F600073656E68050002002CB60008DCC9000805
:103F7000E6BC0008A3BC0008A5BA000870B582B072
:103F800010A007F08DFA434E0120307001AC0025DF
:103F900025702046FFF75CFC64577470FFF76CFCDB
:103FA000844201DA757800E0757068B2FDF778FF39
:103FB00024242046FEF754FE2046FEF755FF02B0AB
:103FC00070BDC0464772616F735F48616E646C6517
:103FD000723A20456E7472616E646F206E61207457
:103FE000656C612064652073656C6563616F206436
:103FF00065206772616F732E0D000000B0B5044636
:10400000244D2878012843D123A007F049FA2CA099
:10401000214606F073FDFFF72FFC002838D0611E03
:10402000052932D87944097949008F4402150E2EAA
:104030002E2001202956364806F060FD6878FFF7EB
:1040400065FD002815D1344814E06978491E4AB24C
:10405000002A07D5411E05E06978491C4AB2824210
:1040600000DB0021697048B2FDF71AFF0DE01DA0CA
:1040700000E0284807F014FA0020287008242046A1
:10408000FEF7EEFD2046FEF7EFFE244807F008FAA3
:10409000B0BDC046580100200D0A3E3E2047726167
:1040A0006F735F48616E646C65723A204E6176652D
:1040B000676163616F206368616D6164612E0D00EB
:1040C0002020205465636C612072656365626964B9
:1040D0006120646F204457494E3A203078253032B1
:1040E000580D0A004772616F735F48616E646C65BA
:1040F000723A2053656C6563616F20646520677256
:10410000616F2063616E63656C6164612E0D0000F8
:104110009BC800086FC9000841C90008A7C900086A
:10412000F0B587B0002506955422825C012A03D1A0
:104130000224204607B0F0BD0646543601243470F0
:10414000026893685B0714D407694B68022B18D187
:1041500004200743994887426DD19748C0430B68B4
:10416000D9430143906A084090620024002B66D432
:10417000D2E0816D20220A4382653570204607B067
:10418000F0BD059304231F438C4CA74262D10F68F6
:104190003846894B1840936A034393623802536947
:1041A00083438968014086480840184350610024D1
:1041B000002F00D4B0E0032082058248036819462E
:1041C00011403846804F0490B84200D096E07A4FB4
:1041D0007F1CB94200D391E07A48036893431943A6
:1041E000754A5118491C0160794800687949FCF703
:1041F00038FB0C214143481C06900698002800D14A
:104200008AE00698401E06900698002800D183E0B8
:104210000698401E0690069800287DD00698401EFD
:1042200006900698002877D00698401E06900698BB
:104230000028E6D170E00B680024002B6CD5FA480A
:104240000168624A93426BD05F4A934264D1012273
:10425000920567E01F27059C27400F2400940397D1
:10426000BC40076E0194A74302970C68524F3C4232
:10427000049462D0E4072F4667D1049FBC075FD443
:104280007C075FD43C075FD4FC061F465DD4049CCA
:10429000A30671D4630671D4230671D4E30571D4E7
:1042A000049B9B0570D4049B5B056FD4049B1B058A
:1042B0006ED4049BDB046DD4049B9B046CD4049BE0
:1042C0005B046BD4049B1B04009F3ED4049BDB0364
:1042D00066D4049B9B0365D4049B5B0364D4049B5A
:1042E0001B0363D4049BDB0262D4049B9B0261D456
:1042F000049B5B02DB1716271F4026E0334F049810
:10430000B84209D10127BF053B4005D1C648036823
:104310009343194339430BE03570204607B0F0BD95
:10432000254A521C114003229205036893435918F1
:1043300001603570204607B0F0BD6300DF0E04E079
:10434000012702E0022700E00327039CA740029B0D
:104350001F430766059B9B08C06998420AD90198CC
:10436000C043936A0340049FB800000FA040184365
:10437000906213E7049F11E70527E6E70627E4E7C5
:104380000727E2E70827E0E70927DEE70A27DCE757
:104390000B27DAE70C27D8E70D27D6E70E27D4E757
:1043A0001027D2E71127D0E71227CEE71327CCE753
:1043B0001427CAE71527C8E7FFFF7F000400008025
:1043C00000FFFF7F08270140000200A4000400A8AE
:1043D0002C000020400D03000068006C70470000B6
:1043E000F0B589B0044600200890002C76D00790E4
:1043F000A06D002807D125465435204600F016F957
:1044000000202870E06501273D072668B068C000DD
:1044100026D4B0687F4901402943B1607E480068D6
:104420007E49FCF71EFA400008900898002817D033
:104430000898401E08900898002811D00898401E3F
:104440000890089800280BD00898401E08900898FB
:10445000002805D00898401E089008980028E7D149
:10446000B068284208D1A06D10210143A165E06D1C
:10447000012107910843E065B06804210140A26D65
:10448000102002405118A16D2BD106900F20C74378
:104490003A46F33A1140891CA165B168C9077DD13C
:1044A0000390049727462037216B4A1E91410D0344
:1044B000A168227E92030A43617EC9031143A27E52
:1044C00050030843E36803432B430120C5072169D8
:1044D00000290590029509DAA94308E0012009B0F6
:1044E000F0BD0143A165384609B0F0BD41050B435D
:1044F000387B45001D433878012809D1002A11D0A6
:10450000A06D20210143A165E06D05990843E06598
:10451000626A002A0CD0072080010240A16A114380
:10452000294306E0059800040543626A002AF2D197
:104530002946F0683A4A02400A43F26003208207A3
:1045400063681D461540E16C387F01280ED1206C50
:104550000090676CA06C0190009807430198074396
:104560002F430F43059807433D4600E00D43049F4A
:1045700030692C49014029433161029883420399F3
:104580000CD093420AD005988007834206D0880455
:10459000034025490A688243D018086070690722E1
:1045A0009043656B28437061706970218843A16BEB
:1045B000090101437161216901235805814203D03A
:1045C00000290BD1B06A07E0B06AE06980001C30B6
:1045D0001C2101408F40206E3843B062706910404A
:1045E000A8420AD10020E065A06D0121014302200C
:1045F0008143A165079809B0F0BDA06D06990843F5
:1046000002218843A065E06D1843E065184609B0B3
:10461000F0BDC046E8FFFF6F2C000020400D0300F6
:104620000102DEFF02FCFF1F0827014080B58AB0AF
:104630000021099108910791069105910491039138
:1046400000680D49884201D00AB080BD2020029048
:1046500002A801F035FB002801D0FFF7A4F80120E3
:10466000000506490A6802430A6009680140019191
:1046700001980AB080BDC0460024014040100240AD
:10468000F0B581B00D4604464069082801D10827DD
:1046900004E02068C068C0073FD1042700F06AFD2D
:1046A00006462168086838421CD001204202A36DEA
:1046B0001343A365CA681205920F4AD1A27E002A4D
:1046C00047D10A68120744D58A68520738D422466F
:1046D00058324B680C25AB434B60FF2502351368FD
:1046E000AB4334E0002D1FD0681C10D1086838425D
:1046F000DBD108683842D8D108683842D5D108687B
:104700003842F3D0D1E7216808683842CDD100F0B3
:1047100031FD801BA842F6D908E0A06D202101439D
:10472000A165012001B0F0BD00F024FD542000215E
:104730002154A06D04210143A165032001B0F0BD07
:10474000A26D20231343A36522465C32E36D03432D
:104750001360227E0020002A01D001B0F0BD0C229F
:104760000A6001B0F0BD000070B5014600688268C3
:104770000220520711D454228A5C012A0DD00C4623
:1047800054340120054620700E460846FCF7C8FC4C
:10479000002803D000202070284670BDB06D094964
:1047A0000140012000020818B0650020F065316862
:1047B0001C220A6020708A68304B13401A1D8A60E0
:1047C00070BDC046FEF0FFFFF0B581B00446542036
:1047D000205C012802D1022001B0F0BD26465436EB
:1047E000012737702068816849071FD48168826873
:1047F000D20737D00222114034D1816805220A4005
:10480000012A27D181681D4A0A40911C8160032139
:10481000016000F0AFFC054620688068C00721D029
:1048200000F0A8FC401B0328F6D313E08168890739
:1048300004D48168114A0A401032826000F09AFC68
:104840000546206881684907D0D500F093FC401BDD
:104850000328F6D3A06D10210143A165E16D5C34FE
:10486000384605E0FF200230A16D81435834002016
:10487000002232703943216001B0F0BDE8FFFF7FB4
:1048800070B503460120CC0720D0114C0C40651EAA
:10489000AC4103261546F541032D17D87D442D79EB
:1048A0006D00AF440B0105090B4C0C400ED105E027
:1048B000084C0C400AD101E0002C07D11868416176
:1048C00081681823994311438160002070BDC04660
:1048D00080FFFF7F00FFFF7F0000FF7FF0B584B007
:1048E0000E46022141770468A16801252943A16091
:1048F000016A01291ED002290ED0032928D1002ADD
:1049000000D103E10395032511462940042A00D371
:10491000D2E033460025DEE057081ED00395032180
:104920003B460B4000937B1E032B029601971AD245
:10493000002133E0970814D003950323394619402A
:104940000091791E03290296019349D200257AE04D
:1049500000214577084604B0F0BD0021D2073CD1C4
:10496000D4E000219EE08F43002135466B882E88DD
:104970003604F3182360EB88AE883604F3182360FE
:104980006B892E893604F3182360EB89AE893604CF
:10499000F31823601035091D8F42E7D1009F002FC7
:1049A000029E14D08B00F1184D88F35A1B045B193A
:1049B0002360012F0BD0CB888D882D04EB1823604A
:1049C000022F04D04B8909890904C9182160019973
:1049D0008900039DD20700D198E0715A218095E0AB
:1049E0009F43002531460E7836064B781B049B19F1
:1049F0008E7836029B19CE789B1923600B791B06A3
:104A00004E793604F3188E7936029B19CE799B19AC
:104A100023600B7A1B064E7A3604F3188E7A360220
:104A20009B19CE7A9B1923600B7B1B064E7B3604A9
:104A3000F3188E7B36029B19CE7B9B1923601031B5
:104A40002D1DAF42CFD1009F002F029E26D0A9007E
:104A5000735C1B0671184D782D04EB188D782D02B0
:104A60005B19CD785B192360012F17D00B791B06DA
:104A70004D792D04EB188D792D025B19CD795B19D9
:104A80002360022F0AD00B7A1B064D7A2D04EB18F7
:104A90008D7A2D025B19C97A591821601146019B44
:104AA0009943039D03231A407A4412795200974494
:104AB0002C011C24715C27E0AA430025334637688B
:104AC000276077682760B7682760F7682760103627
:104AD0002D1DAA42F3D1002905D0AA001D469B58DE
:104AE0002360012917D1039D10E072185278715C80
:104AF000090289182180046808E072185378715CF3
:104B00000902C918218091782170046821684577CD
:104B1000084604B0F0BDAA18536823600229039D1B
:104B2000F4D091682160F1E7B0B50125002814D0D8
:104B30000446407F002804D100202077204600F062
:104B400031F8022060772079002808D0A168E26857
:104B50002046FFF795FE002808D02846B0BD206803
:104B60000F49416181681822914381600025607975
:104B7000002801D0216900E0E943206801618168D3
:104B80006022914362690A43826081688022914376
:104B9000A2690A438260012060772846B0BDC04602
:104BA000B71DC10481B000680849884201D001B036
:104BB00070470120000306490A6802430A60096839
:104BC00001400091009801B07047C046003002409B
:104BD0003810024070B500282CD0014624314A78A4
:104BE000022A29D1046822680E239A432260426C6B
:104BF0001568314B1D4015602568012295432560DD
:104C0000046C1C2525401446AC40D74D2E68264325
:104C10002E60846CC56C6560046D002C05D0256821
:104C20001D402560436D806D58604A700020002251
:104C30000A7070BD012070BD0422C26301200022F1
:104C40000A7070BD70B524210124445401462431FA
:104C50004A78022A2BD103681A680E24A2431A60EC
:104C60001C68012294431C60446C2568124B1D4053
:104C70002560046C1C2525401446AC40BA4D2E68B6
:104C800026432E60846CC56C6560046D002C05D0D5
:104C900025681D402560436D846D5C6000240C70A8
:104CA0004A70816B002900D08847204670BD0421DE
:104CB000C163204670BDC046FFFEFFFFF0B585B062
:104CC000016C1C240C4004231946A140A64A121F63
:104CD00015680A4603952A405642564104900568D5
:104CE0002A6817461F4078427841304332D00295F7
:104CF000012102261046304047424741A640039B0F
:104D00001E420D46019400D03946049F3C4624348F
:104D1000002931D008200240564256410198C34034
:104D2000180700D53546002D24D1029A10680E21AF
:104D30008843106001200146019A91408A4B1A680D
:104D40000A431A60F863002121706070796B0029B2
:104D50000ED10FE02868800602D4286898432860A6
:104D6000814A106808431060049F396B002901D004
:104D70003846884705B0F0BD029A1068800605D411
:104D800010680A21884310600120607000202070A4
:104D90007549086830430860F96A0029E8D1E9E7F5
:104DA000F0B587B000284AD00446014624310220DD
:104DB0000691487027683868344901403960344E9C
:104DC00030468030A0643348381814252946FBF754
:104DD00048FD80008119206405916164FC20384001
:104DE00008382946FBF73DFD1C22024001210B46F5
:104DF0009340E364A0680490E5682646103645CEEB
:104E00000196E6690296266A039628431043019AA2
:104E100010430E4602990843039908433968014339
:104E2000049A11433960B1031B488A420AD1002217
:104E300005990A6062600360154613461BE0012075
:104E400007B0F0BD6168CFB2059A17600360491ED4
:104E500000220329154613460DD8791E8A008218B0
:104E60000023D36703250D403346AB400B490B604D
:104E70007C32BC3005460020E06322656565A36591
:104E8000069908704E7007B0F0BDC0460F80FFFF56
:104E900000080240F8FFFDBF8408024044090240B8
:104EA000F0B583B004462420205C012802D1022002
:104EB00003B0F0BD254624356878012830D1009232
:104EC000022068700020E06326683268012702979C
:104ED000BA433260A26CE76C5760226D0192002ADF
:104EE00002D0626DA76D5760226C1C271740029A92
:104EF000BA401D4F3F6817431B4A17607360A36891
:104F0000102B009F3A4600D00A46B260102B00D00A
:104F10003946F1603168226B002A06D00E2209E082
:104F200002200021297003B0F0BD042291433160BA
:104F300032680A211143316002990902626C1368D8
:104F4000DB0302D513680B431360019B002B02D0D7
:104F50001A680A431A603168029A114331600021CD
:104F6000297003B0F0BDC04604000240B0B504464D
:104F700000F000F90546601C02D0044800782418AF
:104F800000F0F8F8401BA042FAD3B0BD08000020A2
:104F900080B5202801D1FEF7F7FA80BDB0B50446F0
:104FA000074D2868204203D02C60204600F00AF804
:104FB0006868204203D06C602046FFF7E9FFB0BD6F
:104FC0000C18024070470000F0B58AB006900991B5
:104FD0000B68002B00D1B4E05B480699814201D0F8
:104FE000062000E005200B221207069989180A22E4
:104FF000D1410091042900D30090069820300190FF
:1050000000252E46079529460FE01A43626008994D
:10501000491C099803681846C8400835B61C079A09
:10502000121D0792002800D18BE001242046089130
:10503000884003400393EAD0049509994A681021F7
:105040001143122915D11C21079A114005960F26EC
:1050500032468A40089BDB089F00019BDD5995433F
:10506000099A12693240059E8A402A43DA51099909
:105070004A68032311461940B1400293B3403746B2
:10508000069E35689D430D4335603E46D9430591E4
:10509000122A049D15D894402E490C420FD0069C2C
:1050A000A168059B1940099BDB68B3400B43A360D3
:1050B0001109089B9940636883430B436360032A8B
:1050C000A5D0069BD8680599084009998968B14020
:1050D0000143D960D0009AD5182028400F21814083
:1050E000089A029B9A43194CA218136E8B4300999D
:1050F0008140194311661648026809984068C10347
:1051000002D5039B1A4301E0039B9A4310490A60AE
:105110004A68810301D51A4300E09A430C494A606A
:105120002268C10205D51A4322606268800206D552
:105130006BE79A4322606268800200D565E79A4374
:1051400064E70AB0F0BDC0460014005000180240E9
:10515000801802400600060000690840411E884190
:105160007047002A02D018228150704728228150AF
:1051700070470000014800687047C0466411002075
:10518000B0B50246034640335C780220202C17D18C
:105190001C78012C14D02420587010680268012457
:1051A000A2430260220305689543056002680A4332
:1051B00002600168214301600020187020215970AD
:1051C000B0BDB0B50246034640335C780220202CC7
:1051D00017D11C78012C14D0242058701068026854
:1051E0000124A24302600F221202056895430902BE
:1051F00029430160016821430160002018702021CB
:105200005970B0BDF0B581B0002822D005464035B8
:105210006978002905D100212970044600F026FB99
:1052200020462421697001680B68012293430B60BA
:105230000F231B0644689C430C618C681C4B1C406C
:105240008C608468C668012E06D1D60334438C6016
:105250000CE0012001B0F0BD2127BF023C438C606F
:10526000022E03D1D4024E68264302E0D4024E68D7
:10527000A6434E604C680F4E26434E60CC681C40DF
:10528000CC60036944691C4383691B022343CB60E0
:10529000C369046A1C430C600B6813430B60002154
:1052A000416420226A7001630846A97001B0F0BD14
:1052B000FF7FFFFF00800002F0B589B0079305462D
:1052C000002408940346403358780227202800D051
:1052D00090E028688069000400D58BE018780128E8
:1052E00000D187E0242058700120039302901870A9
:1052F00004946C64CD4801400692059113E0C461AA
:1053000000972024002228462146079B02F0D4FF64
:1053100000285DD00898401C089008980898069AC4
:10532000904205995ED2E8680128344800D034489C
:10533000401829684860FFF71DFF07462868816903
:105340002026314082691024224089182BD10799E8
:10535000491C10D00798002842D0FFF70BFFC01B54
:10536000079988423ED82868816931408269224085
:105370008918F2D017E0816931408269224089188A
:1053800011D1816931408269224089180BD181692C
:10539000314082692240891805D181693140826992
:1053A00022408918E7D08169C906A8D40097202433
:1053B0000027284621463A46079B02F07DFF002839
:1053C00009D0686C0428A5D12868C4616F64A1E77E
:1053D0002868C4619EE72868C46103994C7007E09F
:1053E000FFF7C8FE03994E70686C30436864029FF3
:1053F00004980870384609B0F0BDC046002000028D
:1054000000280002F0B589B004460646403675789B
:105410000220202D09D10E9F002F08D00F9D002DB6
:1054200005D007953578012D06D109B0F0BD0120D2
:105430004102616409B0F0BD0397059302920691A1
:10544000012008903070FFF795FE024620688169C0
:1054500009042FD410990491222171704021B17058
:105460000027676407996185039961626763F94959
:10547000069B0B400599C9B209040693C9184368F5
:10548000F54D2B40C918012308935B03C9184160EF
:1054900020460499154602F0CFFF002846D1039715
:1054A000079520680599012926D10299C9B2816220
:1054B000079D31E00898C50302E081692942C9D0FF
:1054C00019212046174602F039FE002811D1FFF7B6
:1054D00051FEC11B20681A293A46EED38169294240
:1054E000EBD0606C20210843606471700020307044
:1054F000B070089809B0F0BD0299090A816220468F
:105500000499079D2A4602F097FF0028039F0DD1BA
:1055100021680298C0B2886200954021002220468E
:10552000049B02F0C9FE0028039F03D0377008983F
:1055300009B0F0BD608D000A07D020684168C64AF6
:105540001140021DFF203B4B09E0608D226853682B
:10555000C1490B40C1B209041943121D344B069FC7
:1055600019433943116020850120089040063818FE
:105570000590079A049D0FE0608D208521684A6898
:10558000B84B1A40C0B20004059B18431043486052
:10559000079A608D002834D000920421002720460D
:1055A0003A462B4602F088FE0028A2D1606A2168A4
:1055B000496A0170608D401E6085606A401C6062AF
:1055C000208D401E2085618D0029079AE1D00004BE
:1055D000DFD100928021002220462B4602F06CFE93
:1055E000002886D1608D000AC6D0FF202085216862
:1055F0004A689C48024006980243994802434A6020
:10560000C6E72046294602F0D4FE0028089800D0BC
:105610000BE720682021C1614268934B134043602F
:1056200071703770B770384609B0F0BDFF030000E5
:10563000002400020024FF01F0B589B004460746AB
:1056400040377D780220202D09D10E9E002E08D0F3
:105650000F9D002D05D007953D78012D06D109B08D
:10566000F0BD01204102616409B0F0BD03960493CE
:1056700002920691012005903870FFF77BFD0646E7
:105680002068816909042DD40896109D2121797024
:105690004021B970002666640799618503996162AB
:1056A00066636C49069A0A400499C9B209040692D5
:1056B00089184268684B1340C918684A89184160C4
:1056C000204607952946089A02F0B6FE002845D1E3
:1056D000039620680499012925D10299C9B28162F3
:1056E000089D30E00598C50302E081692942CBD0CE
:1056F00019212046324602F021FD002810D1FFF783
:1057000039FD811B20681A29EFD381692942ECD029
:10571000606C202108436064797000203870B87094
:10572000059809B0F0BD0299090A816220460799DF
:10573000089D2A4602F080FE0028039E0ED12168B3
:105740000298C0B2886200958021002520462A4632
:10575000079B02F0B1FD0028039E03D03E70059820
:1057600009B0F0BD039501204606618D090A3C4A47
:105770003C49059006D020680B4641681940051D3C
:10578000FF2008E0608D226853680B40C1B2090415
:105790001943151D3246069B114319432960208584
:1057A0001E430496089A079E0FE0608D20852168AD
:1057B0004A682C4B1A40C0B20004049B18431043A3
:1057C0004860608D0028089A2FD02046314602F0AC
:1057D00033FE0028A4D12068616A0A788262608D55
:1057E000401E6085481C6062208D401E2085618DB2
:1057F0000029E6D00004E4D108980090802100221E
:105800002046334602F058FD002889D1608D000AF9
:10581000CBD0FF20208521684A68124802400698B4
:1058200002430F4802434A60CBE72046314602F06C
:10583000C0FD0028059800D011E720682021C16133
:105840004268094B13404360797003983870B87010
:1058500009B0F0BDFF030000009800FC002000012B
:105860000000FF01009C00FC00E800FE70B58EB057
:1058700000240D940C940B940A94099408940794B2
:10588000069405940494039402940068164988428F
:1058900001D00EB070BD0226019601A800F010FAEA
:1058A000002801D0FDF77FFF104D286830432860A5
:1058B00028683040009006200D900C940B94122024
:1058C0000A900320000209900098094809A9FFF7EF
:1058D0007BFB01204005A9680143A960A96801403C
:1058E000009100980EB070BD00540040341002408A
:1058F000000400501B48007802490A68101808602C
:105900007047C0466411002010B50024204600F006
:1059100009F8002801D0012010BD00F027F820462A
:1059200010BD000070B50F4E31780124002916D04B
:1059300005467D20C000FAF794FF01460A4800683A
:10594000FAF78FFF00F06EFF032D08D8002806D16C
:105950000024E0432946224600F038F875602046CE
:1059600070BDC046080000202C00002082B0D34843
:105970004168012211434160416811400191019940
:10598000110702680A43026000680840009000980E
:1059900002B07047002809D41F210840012181402E
:1059A00003480160BFF34F8FBFF36F8F7047C0464E
:1059B00080E100E0002805D41F210840012181403A
:1059C000014801607047C04600E100E0002805D4AE
:1059D0000322034693430A4A9A1803E00C2202402A
:1059E000064BD2188007C00E8901C9B28140FF233F
:1059F00083401068984308431060704714ED00E03E
:105A000000E400E0B0B5B3218A00002181540368AE
:105A10005C6D01252C435C6580188560586D022201
:105A200002435A650846B0BDF0B585B000281ED0C7
:105A30000746A52080003D186878002804D1002082
:105A40002870384600F012F903266E70386804F0AA
:105A500053FF3879002800D1F4E003950446344020
:105A60000428049706D20022002C37D15DE00120E3
:105A700005B0F0BD0294FC2202403B46F51E691CB5
:105A80003C27D955A91C6427D95500275F629F621E
:105A9000DF62DF7501215975DF641F655F655F6730
:105AA0009F67DF671C463C3461701D751D46643579
:105AB0006970E7701C468C346170EF708C215E5405
:105AC00027616761A761E770311DA033741C9442A0
:105AD0000E46D3D1CA1E029C002C26D0049B143340
