:020000040800F2
:10000000D0130020D5000008298800085D7C000876
:1000100000000000000000000000000000000000E0
:10002000000000000000000000000000218C00081B
:100030000000000000000000D1880008DD8C0008EE
:10004000E7000008E7000008E7000008E7000008F4
:10005000E7000008E7000008E7000008BD350008D9
:10006000E7000008952A0008A52A0008BD2A000814
:10007000E7000008E7000008E7000008E7000008C4
:10008000E70000080000000000000000F58C0008F8
:1000900000000000E7000008E7000008E700000893
:1000A000E7000008E7000008E7000008C59D000819
:1000B000D19D0008000000000000000000000000CA
:1000C0000348854600F070FE004800472D9E00085A
:1000D000D01300200448804704480047FEE7FEE7AD
:1000E000FEE7FEE7FEE7FEE7E58C0008C10000083A
:1000F0000048704744A9000810B50446FFF7F8FF10
:100100000068005DC007C00F10BD014661391929A4
:1001100000D82038704703460B439B0703D009E003
:1001200008C9121F08C0042AFAD203E00B78037032
:10013000401C491C521EF9D27047D2B201E0027035
:10014000401C491EFBD270470022F6E710B513464B
:100150000A4604461946FFF7F0FF204610BD10B5C9
:10016000044605E00B780370401C002B00D0491CAE
:10017000521EF7D2204610BDCAB2401E4178401C24
:100180008A4202D00029F9D100207047421C017830
:10019000401C0029FBD1801A704710B5002200E0F6
:1001A000521C835C8C5CA34201D1002BF8D1D8B2E5
:1001B000E1B2401A10BD03460A780270401C491C87
:1001C000002AF9D118467047F8B50E4605460024B6
:1001D00000E0641C285D00F0BFFB0746305D00F0C6
:1001E000BBFB381A02D1295D0029F2D1F8BD00000D
:1001F0000FB400B58DB009900B9010A900200091AC
:10020000C0430A9000200C900648069006480790CC
:100210006A4609A80F9900F0BBFB0DB008BC04B0FA
:1002200018470000B1090008D1090008FFB50027F0
:10023000FF4383B000205C6801909E681D46A96959
:100240007F1C049888470090296A88470028F6D1C7
:100250000098401C0CD0032040028443002E19DD7E
:10026000600614D500982B2809D02D280FD103E063
:100270000020C04307B0F0BD012080020443A969FB
:100280007F1C04988847761E0090002E02DD00989F
:10029000302803D00598002825D035E00120400201
:1002A0000443A969761E7F1C049888470090002E9D
:1002B00003DD782805D0582803D00598002810D0F1
:1002C00022E00598002801D010281DD1012040020D
:1002D0008443A969761E7F1C0498884700901020EB
:1002E00002E0082000E00A2005900DE0012149020B
:1002F0000C43059A0199761E514308180190A9698B
:100300007F1C049888470090002E05DD0599009811
:1003100000F028FB0028E9DAE96904988847A0057D
:1003200002D40120C043A5E7E00722D1600611D521
:100330006005019800D5404229680A1D2A600968B5
:10034000220501D5087014E0220701D5088010E0CD
:1003500008600EE02868011D29600068210502D5AB
:100360000199017005E02107019901D5018000E0A4
:10037000016038467EE70000F7B5009C0F46002676
:100380002578641C002D05D0FFF7B2FE0068405DA3
:10039000C007F5D12B2D02D02D2D18D0641E394663
:1003A0002046029A00F026FB002F04D03968A142B3
:1003B00001D1009939607105022400290BDA40420D
:1003C000002803DD09F0F2FD0460A007FEBD012056
:1003D00080020643E3E70028F8DA09F0E7FD04604D
:1003E0000048FEBDFFFFFF7F70B5064609F0DEFD49
:1003F000046805460A2200213046FFF7BDFF2C6045
:1004000070BD70B5064609F0D1FD046805460A22A4
:1004100000213046FFF7B0FF2C6070BDF8B50246F2
:100420004A40D40F42004B0052085B089A4202D265
:100430000246084611464A0023D0C30D4A00DDB2E9
:10044000120EAD1A202D35DA49020126490AF605A9
:100450008A19002C00D0524220214F1B1146B9406E
:100460002A411018C20D9A4221D0002C17D0012D1C
:1004700008DCDA05801AD20F8019D207DBB200F04F
:1004800014FBF8BDDA05801A012340001B06C018D2
:1004900080185A428018CA0F1043490007E04908E3
:1004A000C2071143DA05801A80194008801800F04D
:1004B000F4FAF8BD61000122511A001BF7E701228E
:1004C000D2075140AAE70122D2075040A6E70246D0
:1004D00070B54A40D30FDB0740002DD04A002AD028
:1004E000010E140E000212020919400A520A841861
:1004F000E50104465443000A120A2E045043A4198D
:100500004219200CC543AA18120C0125AD03521C38
:10051000521912047F39240400D0521C104301D414
:100520004000491EC2B20C06C0092018401C4008F9
:10053000802A02D003E0002070BD4008400000295E
:1005400000DA0020184370BD70B502464A40D50F4E
:1005500040004A00ED0740085208002814D0002A45
:1005600012D0C40DD30D41020120C0055202490A28
:10057000520AE41A091812187D34914201D3641CFE
:1005800000E04900002C01DA002070BD00239142F8
:1005900001D3891A0343400849000028F7D10029F4
:1005A0000AD0914202D10121C90705E0914201D24E
:1005B000012101E00121C943E005C018401900F004
:1005C0006CFA70BDF0B51FB488B00B99099800247F
:1005D00048400999C00F490049080991C0070B9983
:1005E0000090490049080B9109990898A6460843CC
:1005F0001CD00B990A98084318D009980124400090
:10060000420D4800410D099824050003000B2043CA
:1006100009900B980003000B20430B9050181C49C5
:100620004018002201901446104605E000200146C3
:100630000DB0F0BD032801DA034600E003239C4619
:10064000C11A0AAE0AE05F0008ADED5B4F00F75B30
:100650007D430027AA187C41491C5B1E6145F2DDE1
:10066000410004AB5A522104120C0A43240C401CD2
:100670000828DFDB019802900099704601910090F4
:10068000059B049A0799069800F055FAD0E70000F8
:100690000DFCFFFFF0B50C465C4085B0E40FE407AD
:1006A00003944C0000266408590094464908024609
:1006B0000296224321D062460A431ED06200570DA3
:1006C0004A000E032303550D012402462C4924053C
:1006D000781B1B0B360B40182343264361460090C2
:1006E0001C46501AB44103D30098401C009002E00D
:1006F000921800985B41002803DA0020014605B0FB
:10070000F0BD0020012109050746864611E0644638
:100710001D46141BB54106D36546521BB3417446B2
:1007200007430C43A646CD074008490828439218C2
:100730005B4105460D43EAD11046184313D060468D
:10074000194650407140084306D06046101AB34124
:1007500006D20122002306E000220123DB0702E08B
:100760000122D2435310009874460105381C6141A0
:10077000029C039D0019694100F0D0F9BFE7000019
:10078000FD0300000122D207002800DB101A002917
:1007900000DB511A814201D80120704700207047C8
:1007A0000122D207002800DB101A002900DB511AB1
:1007B000814201D201207047002070470122D207F8
:1007C000002800DB101A002900DB511A814201D3F6
:1007D00001207047002070470122D207002800DB6B
:1007E000101A002900DB511A814201D901207047FB
:1007F00000207047C217C10F504010B54018CA07FB
:100800009623002100F051F910BD10B50022962367
:10081000114600F04AF910BD0EB5C217C10F504085
:10082000CA0740180021054B0293019200910A4625
:100830000B4600F080F903B000BD00003304000057
:10084000C20F410040020123400ADB05D207090E16
:10085000C0187F2901DA00207047962903DC96230F
:10086000591AC84001E096398840002AF4D0404225
:100870007047C20FD207400040080BD0C10D0723BC
:10088000DB01C91840020905400A1143C2084007AC
:100890001143704700200146704770B50446002997
:1008A00003D000202022012310E0002801D00020E6
:1008B000C043C046C0460DE02546D5408D4205D315
:1008C0000D469540641B1D46954040191546521E25
:1008D000002DF1DC214670BDF0B51FB406460020A6
:1008E00082B005464024019100901BE00199224608
:1008F0000F46304600F070FA049A059B801A994121
:1009000010D310461946224600F016F8361A8F41C9
:100910000197224601200021009F00F00DF83818B1
:100920004D4100902046641E0028DFDC019B0098AA
:100930002946324607B0F0BD10B5202A04DB014637
:10094000203A9140002010BD914020239C1A03467C
:10095000E3401943904010BD01464139192900D8A0
:10096000203070473A2800D23038202302469A437C
:10097000412A01D310463738884201D30020C043B2
:1009800070470000026813785118016018467047DC
:1009900010B5D1600449516104491162002111610F
:1009A000114600F03DFA10BD85090008F900000865
:1009B0004268002A08D001680B78491C002B03D03C
:1009C000521E06C0184670470121C160881E70473C
:1009D0004268002A0BD0C3680168002B07D18368E6
:1009E0008B4204D0491E521C06C0002070470020D4
:1009F000C0437047F7B582B0029C00272078641C82
:100A000015460197302802D0002D15D015E020782A
:100A10000127641C782804D0582802D0002D09D062
:100A20000BE0002D01D0102D07D1002710252078D4
:100A3000641C02E0082500E00A250026009610E06C
:100A40000099012769430818020C294680B27143B6
:100A500000908E183804864201D30120019020783E
:100A6000641C2946FFF77EFF0028E9DA0398002876
:100A700005D0002F01D0641E00E0029C04600198A4
:100A8000002806D009F092FA02210160C81E05B0C4
:100A9000F0BD009930040843F9E7002904DA401C4E
:100AA000490001D140084000704770B40024050C93
:100AB00005D11024000402D1002921D01124050EF3
:100AC00001D100020834050F01D10001241D850F5A
:100AD00001D18000A41C002801DB4000641C002917
:100AE00008D020252E1B0D46F540A14000D0012145
:100AF0002943084301061B1B000ADB1D02D5002009
:100B000070BC7047DB05181880180029F8DA401C03
:100B10004900F5D170BC40084000704710B5002B6B
:100B200008DA0024401C614192185B411A4301D14C
:100B30004008400010BDF0B51FB482B005460C005F
:100B400003D0084609F01AFA02E009F017FA20303B
:100B50000246009021462846FFF7EEFE049B059AC8
:100B600004460F4618431143084314D01846104357
:100B70001BD0009840210A1A1846059900F02CF95C
:100B800005460E46009A05990498FFF7D5FE0843DE
:100B900005D0012004E02046394607B0F0BD002012
:100BA000C11705430E432C43374300990E98630544
:100BB000401A7905E40A00220C43FD0A0A3002D5E6
:100BC00000200146E9E70105101969410C9C0D9DC3
:100BD00000196941FFF7A2FFDFE70000F0B5074603
:100BE0000846584087B0C00F049048000E46590090
:100BF00040084908BC1A884105D2384631461E468D
:100C000017460B4602465800400810434CD0300DA2
:100C1000039040055900400D490D0590401A02907F
:100C2000402872DA18030121000B090508430190DE
:100C300004980092002805D0019952420020884172
:100C400000920190029840210A1A01990098FFF73A
:100C500073FE05460C466B4607CB00F0CEF8C01974
:100C60007141039A0E0D0023D71756401A467A4059
:100C7000164344D0049A002A2DD0029A012A039ADE
:100C800015DC1205C01A914101263605001C714180
:100C9000D20F059ED2070093019202962A46234660
:100CA000FFF749FF07B0F0BD38463146FAE71605B1
:100CB000224A0F46B218C01AB74101210905001C8B
:100CC0004F4100187F41114618187941E20F104337
:100CD0006D19644113E0E2076D0815436408C2070B
:100CE0001443039A01261205C01A91413605001CCF
:100CF0007141CE07400830434908C01851412A4687
:100D00002346FFF70BFFCDE7FFE7049801224000E1
:100D1000C117121A00238B4104983146C417381AA0
:100D2000A141EEE730B40124E407634030BC55E74D
:100D300030B40124E407614030BC4FE70000E0FF1D
:100D40004A0009030123090B1B0519430A4B10B57F
:100D5000520D9A4202DA0020014610BD064B343390
:100D60009A4203DC9A1A00F037F810BD034BD218F0
:100D7000FFF7E2FD10BD0000FF030000CDFBFFFF09
:100D800010B5002904DB0124E40740428C412146D0
:100D9000002B04DB1C460123DB075242A34199428E
:100DA00000D1904210BD00001CB5094800900948D0
:100DB000019005460126009C05E0E36807CC33431B
:100DC0000C3C98471034AC42F7D3FFF77DF9000094
:100DD000D8BA0008F8BA000810B5202A04DB084683
:100DE000203AD040002110BD0B46D340D0402024F3
:100DF000A21A91400843194610BD10B5202A06DBFF
:100E0000CB170846203A1041C1170B4306E00B46AA
:100E10001341D0402024A21A91400843194610BD26
:100E2000F3B58DB000200A9001200B9000260846F3
:100E30000C300C4609906269012109989047051E03
:100E40002ED0252D2DD0216A8847002818D0626920
:100E5000012109989047216A88470028F7D1411E4F
:100E600062690998904700E0761CA1690D9888474F
:100E7000216A88470028F7D1E1690D988847DAE7A9
:100E8000A1690D9888470746A84201D1761CD2E790
:100E9000E1690D9888477F1C02D10A98002877D015
:100EA00049E1002762693D463946099890472A285A
:100EB0000CD16269012109989047012506E00A21B9
:100EC0004F433F18303FEBD41020054362690121A6
:100ED00009989047014630390A2903D29B498F422D
:100EE000DEDCECE7E90600D4994F6C280AD04C28E8
:100EF00010D0682824D06A282ED074280CD07A28E4
:100F00000AD00DE062690121099890476C2823D02E
:100F100004211CE0202005436269012109989047C3
:100F2000A760656065284FD026DC582839D01ADCC8
:100F3000452849D012DC252834D04128B0D143E0DF
:100F40006269012109989047682802D008210D4361
:100F5000E6E70120C002DEE70220DCE7462833D0C6
:100F600047282CD130E05B2870D061282CD0632832
:100F70006CD0642823D161E06F284FD009DC66284B
:100F800022D0672820D0692826D06E2817D12EE0DD
:100F9000CDE070284DD073286FD075284ED07828BA
:100FA0000DD154E0A1690D9888470546252800D148
:100FB0006CE7E1690D9888476D1C00D16DE7BAE0D8
:100FC0000A224CE00A2252E0012023466A46C0432E
:100FD0000D99C046C046A3E0284640210843606002
:100FE000A807234601D5002239E000223FE0E807A8
:100FF00000D020E72068011D21600068290501D587
:10100000067018E7290701D5068014E7A90703D55C
:10101000F117066041600EE706600CE728464021A4
:1010200008436060A807234601D5082217E008227C
:101030001DE0484928460840606016E028464021E7
:1010400008436060A8072346BCD5B9E715E02846E9
:10105000402108436060A80707D5234610220120DD
:10106000C0430D99C046C0465AE0234610220120D5
:10107000C0430D99FFF7DAF852E000210C910B46BE
:101080000091632802D05B2807D043E0E80601D432
:101090000120A060012000903CE0626901210998D4
:1010A00090475E2805D101200C900146626909989D
:1010B00090472169002906D10B4601AA8F00491CDF
:1010C000D3510829FADB002835D0216900290ED137
:1010D000C117C90E09184A11930001AA9A184909A3
:1010E0004901411A01201368884003431360626973
:1010F0000121099890475D28E5D10C98002808D077
:10110000002001AB81005A58401CD2435A50082895
:10111000F8DB01AB01202246C0430D99C046C04612
:1011200000280ADA401C06D10B98002803D00020C2
:10113000C0430FB0F0BD0A98FBE7E90702D10A9956
:10114000491C0A91361800200B9074E6CCCCCC0CCC
:10115000FFFFFF7FF1F7FFFFF0B581B005460024E8
:10116000009400688168C9071CD181682B4A2F321E
:1011700011420AD0A86D10210143A965E86D012430
:101180002043E865204601B0F0BD8168234A114044
:1011900001273943816022480068000205D4687E37
:1011A000012825D1204601B0F0BD1E4800681E4927
:1011B000FFF773FB401C009000980028EFD00098C8
:1011C000401E009000980028E9D00098401E009032
:1011D00000980028E3D00098401E00900098002856
:1011E000DDD00098401E009000980028E7D1D6E797
:1011F00003F072FD064604E003F06EFD801B032839
:10120000B8D228680168C907CCD18168C907F3D171
:101210008168024A114039438160EDE7E8FFFF7FB2
:10122000082701402C000020400D0300F0B583B0DA
:101230005E490A684968401A86185B49CF680120F0
:101240000023BE4202460EDD4C68A64205460FDA78
:101250001543012D10D14D69AE4213DC0022BE4270
:10126000034613DA13E01A464C68A6420546EFDB44
:101270001D461543012DEED00D4608350868A742DE
:1012800017D043E00122BE42034600DB1346012B88
:1012900006D1CB699E420EDC0022AE420EDA0EE091
:1012A00028460D46103508313C4607460868A742D7
:1012B0002CD103B0F0BD0122AE4200DB10460295F6
:1012C00000281BD0A6423BDA886809680291FFF724
:1012D000F6F80546381BFFF78DFA01462846FFF75A
:1012E00033F90546301BFFF785FA01462846FFF71C
:1012F000EEF80299FFF792F803B0F0BD0D461835ED
:101300001031029C1F460868A742D2D0391B0746FD
:101310000846FFF76FFA029028683946FFF7CFF8C2
:101320000299FFF711F90546301BFFF763FA0146F2
:101330002846FFF7CCF83946FFF770F803B0F0BD48
:101340008869019009691C46FFF7B9F807460298B9
:10135000201AFFF74FFA01463846FFF7F5F8054621
:10136000301BFFF747FA01462846FFF7B0F801990E
:10137000FFF754F803B0F0BDB0B50A4C01250022C8
:101380002046294603F09FFC284603F0A1FB204697
:1013900029462A4603F097FC034840680349086041
:1013A000B0BDC046000400503000002058000020AE
:1013B000F0B585B072B600252C46009505E0019F7A
:1013C00079000D18641C182C4ED0019510210122B3
:1013D0003D4803F078FC009803900398072817D83D
:1013E0000398401C03900398072811D80398401CC9
:1013F0000390039807280BD80398401C0390039888
:10140000072805D80398401C039003980828E7D3C1
:1014100020212D4F384603F051FC054610210026AF
:101420003846324603F04FFC0496691E4842484154
:1014300004990729C3D80499491C049104990729E0
:10144000BDD80499491C049104990729B7D8049977
:10145000491C049104990729B1D80499491C0491A5
:1014600004990829E7D3AAE710210122164803F0BE
:101470002AFC02960298072817D80298401C02906E
:101480000298072811D80298401C02900298072859
:101490000BD80298401C02900298072805D80298A1
:1014A000401C029002980828E7D310210022064829
:1014B00003F009FC780202D5FF200006054362B65E
:1014C000284605B0F0BDC04600080050B0B5FFF793
:1014D0006FFF0446FFF76CFF8442254609DA844219
:1014E0000ADDFFF765FF84420BDAA5420CDD2846D2
:1014F000B0BD05468442F4DC0446FFF759FF844240
:10150000F3DB0446A542F2DC25462846B0BD0000C8
:10151000F0B591B0F7A009F0C3F9012080050B9058
:10152000FF20019000060A900024F04D0C940294D4
:10153000EF494E1C0C9A1446134603E0641C202C01
:1015400000D1EFE10794089309920691304672B6F4
:101550000C9E3446059005E00E9949000E18641C57
:10156000182C4ED00E9610210122284603F0ABFB1A
:101570000C9810901098072817D81098401C1090BD
:101580001098072811D81098401C10901098072820
:101590000BD81098401C10901098072805D8109868
:1015A000401C109010980828E7D32021284603F00B
:1015B00085FB06461021002728463A4603F083FBA8
:1015C0000D971097711E4842484110990729C3D8BA
:1015D0001099491C109110990729BDD81099491CE0
:1015E000109110990729B7D81099491C109110999A
:1015F0000729B1D81099491C109110990829E7D3EF
:10160000AAE710210122284603F05DFB0D981090F7
:101610001098072817D81098401C10901098072889
:1016200011D81098401C1090109807280BD81098CB
:10163000401C10901098072805D81098401C109056
:1016400010980828E7D3102128460D9C224603F065
:101650003AFB31460A98014304910B980E990140D8
:101660000E9162B672B62746204606E00F994900F1
:1016700008187F1C182FBE4D4ED00F90102101224C
:10168000284603F020FB0D9810901098072817D8D3
:101690001098401C10901098072811D81098401CE2
:1016A0001090109807280BD81098401C1090109894
:1016B000072805D81098401C109010980828E7D3E8
:1016C0002021284603F0FAFA2A4605461021002474
:1016D0001046224603F0F7FA1094691E484248412A
:1016E00010990729C2D81099491C109110990729FF
:1016F000BCD81099491C109110990729B6D8109997
:10170000491C109110990729B0D81099491C1091C3
:1017100010990829E7D3A9E70D9010210122284646
:1017200003F0D1FA10940E98002800D0049E04967D
:101730001098072817D81098401C10901098072868
:1017400011D81098401C1090109807280BD81098AA
:10175000401C10901098072805D81098401C109035
:1017600010980828E7D310212846224603F0ABFA48
:101770000D990A98014303910B980F9901400F911D
:1017800062B672B62646254605E00E9949000D1848
:10179000761C182E4ED00E9510210122744D28462D
:1017A00003F091FA10941098072817D81098401C4D
:1017B00010901098072811D81098401C109010987D
:1017C00007280BD81098401C10901098072805D8AF
:1017D0001098401C109010980828E7D32021284624
:1017E00003F06CFA2A4605461021002710463A46B7
:1017F00003F069FA1097691E484248411099072979
:10180000C3D81099491C109110990729BDD8109977
:10181000491C109110990729B7D81099491C1091AB
:1018200010990729B1D81099491C109110990829CD
:10183000E7D3AAE7102101224D4803F044FA10979C
:101840000F98002801D003980D9010980728079C46
:10185000049E17D81098401C10901098072811D893
:101860001098401C1090109807280BD81098401C16
:1018700010901098072805D81098401C10901098C8
:101880000828E7D31021002239480F9203F01BFAF1
:1018900062B60A2003F01CF90B980E99014201D0A0
:1018A0000A980543099A089B069F0D998E42304677
:1018B00011DDA84212DA8E4213DA86422C4D00DC8A
:1018C0000646F0179B19424105988642314623DDB2
:1018D000B94225DA32E60846A842ECDB28468E42B9
:1018E000EBDB0E468642224DEADDEAE700080050B7
:1018F000FFFFFF7F546172616E646F2E2E2E2041B8
:10190000677561726465206573746162696C69648E
:101910006164652E0D0000000646B94200DA0DE64E
:1019200039460BE6711A01982C308142029C0DDD7C
:101930001BA008F0E3FA641C0A2C00D0F7E5264847
:1019400008F0AEFF0B48406811B0F0BDD017C00ED4
:1019500018180F9951414009C906411805484160BE
:1019600005A008F0CBFA0348406811B0F0BDC046AE
:1019700000080050580000205461726120657374A3
:101980006176656C20636F6E636C7569646121209C
:101990004F6666736574203D2025640D0A000000C3
:1019A0004C6569747572617320696E7374617665D4
:1019B00069732028646966663A202564292E2054BC
:1019C000656E74616E646F206E6F76616D656E74A6
:1019D000652E2E2E0D0A000048AC00087D20000167
:1019E000054948607047C046704700007D200001EF
:1019F000014988607047C04698010020002804D043
:101A0000D8498A69C969026041607047002806D0D8
:101A1000D4498A6A82604A6A4260096A01607047F2
:101A2000D04840687047C046F0B581B0464800F0E5
:101A3000B9FC464808F034FF45A008F031FF4B4898
:101A40004B4901F065F84B4808F02AFF0026304664
:101A500001F01EF901F018FC7D20C400204603F0BF
:101A600037F807F0DFF80125284601F011F901F0F9
:101A70000BFC2746C837384603F02AF801F0AAFDC8
:101A8000022001F005F901F0FFFB384603F020F8D1
:101A9000394808F005FFFFF76FFCFFF739FD374FB6
:101AA0003E627E62BE6236A008F0FAFE032001F0BC
:101AB000EFF801F0E9FB204603F00AF807F086F999
:101AC0007860FEF7D6FE024633A00B4608F016FA01
:101AD000042001F0DDF801F0D7FB204602F0F8FF0A
:101AE000354801F06FFC354801F0CEFD34A008F018
:101AF00005FA01F0F9FE00281CD03BA008F0D0FE4A
:101B0000052001F0C5F801F0BFFB6434204602F067
:101B1000DFFF374806F0DEFE062001F0B9F801F0DD
:101B2000B3FB204602F0D4FF324808F0B9FE082586
:101B3000314800E02B4808F0B3FE284601F0A8F831
:101B400001F0A2FB01B0F0BD2C08002068B700082E
:101B5000312E20434C492F44656275672055415210
:101B6000542E2E2E204F4B0D00000000C0080020E8
:101B70001D290008E7B6000893B7000850010020AF
:101B80002020202E2E2E205461726120636F6E6300
:101B90006C756964612E0D0054656D7065726174B9
:101BA00075726120696E696369616C3A20252E3215
:101BB0006620430D0A000000A00300200C02002054
:101BC000332E20476572656E636961646F722064AD
:101BD0006520436F6E666967757261636F65732E0A
:101BE0002E2E20001FB700085B4F4B5D0D0000003C
:101BF000D4060020CBB70008B4B60008F0B583B017
:101C000000F0E6FC01F040FB00F0C2FF00F022FC17
:101C100007F014F8534E3078012826D1002535708E
:101C2000FFF754FC0446FEF7E5FD70622046FFF71F
:101C3000FDFA04463062B168FEF741FC0127F9075E
:101C400088434949FEF7BAFD002807D1F06801280A
:101C500000DC0027012804DC451C03E0B4602F46AB
:101C600000E0032528203754F56003F035F871783B
:101C700000295CD000F008FF382868D101F0A6FCEC
:101C8000B06101F0ADFC706800242146FEF77AFDDA
:101C9000002819D1B4697F20C0050290002001906E
:101CA00002A801A901F0A4FC2046FEF7AEFD2F49D1
:101CB000FEF70DFC2E49FEF7B1FB0299FEF707FC7B
:101CC0000199FEF7ABFB0446F461B069FEF79DFD98
:101CD0002849FEF739FC284D2946FEF7F8FBFEF7A8
:101CE000AFFD0146254C2046203001F0B3F8F069E5
:101CF0002946FEF7ECFBFEF7A3FD014620463030F7
:101D000001F0A8F8B078401CB070C0B2052820D30C
:101D10000020B07007F05AF870601749FEF7D7FB43
:101D2000FEF78EFD0146204601F026F811E03169EC
:101D3000411AC9087D290ED3306100F01DFF00282B
:101D400009D10120707000F09FFE382896D0002045
:101D5000B0700020707006F027FE01F09DFC03B00B
:101D6000F0BDC04650010020CDCC4C3D86D01CB902
:101D7000CD6CC64300007A440000204130220000B0
:101D8000F0B595B0044632A0214608F0B7F8E0B2AD
:101D90000BA901F03FFC002853D049480BAD294660
:101DA00008F0ACF8474E10223046294601F05EF9A3
:101DB0002420285EFEF730FD0090019104AF0394CB
:101DC0001924414A3846214608F0A8F83846FEF75B
:101DD000DDF93146E03182B20846394601F046F974
:101DE0002620285EFEF718FD009001913846214616
:101DF000354A08F093F83846FEF7C8F93146F03115
:101E000082B20846394601F031F9139B2FA23846B9
:101E10002146039C08F082F83846FEF7B7F9C03631
:101E200082B23046394601F021F9113528480A229C
:101E3000294601F01BF92748214608F05FF815B044
:101E4000F0BD10A0214608F059F815B0F0BDC0460D
:101E50004154545F444953504C41593A2054656EA3
:101E600074616E646F206C6572206F206772616FA1
:101E700020646520696E646963652025642E2E2EBA
:101E80000D0A0000436F6E74726F6C6C65723A20BD
:101E90004552524F20464154414C20616F206C65A1
:101EA00072206461646F7320646F206772616F20B9
:101EB0006E6F20696E646963652025640D0A0000F9
:101EC0005EB800087020000017B9000825750000F2
:101ED000702100001FB8000810B586B0072904D88B
:101EE000464808F0DDFC06B010BD801D891F89B290
:101EF00003AA0B2301F06AF900281FD003A8007879
:101F0000002820D068460024847204810194009443
:101F10000B2101F0A7FB00281DD069468C7203A895
:101F2000FEF73BF900281BD01CA003A96A4607F066
:101F3000E5FF3E2000F0ACFE06B010BD0CA008F09E
:101F4000AFFC06B010BD25A008F0AAFC3E2000F0B2
:101F50009FFE06B010BD3B2000F09AFE06B010BDFB
:101F60001D4808F09DFC172000F092FE06B010BD41
:101F7000417574683A2046616C6861206E6F20700C
:101F8000617273657220726F627573746F20646121
:101F90002073656E68612E0D000000004175746845
:101FA0003A2053656E686120696E636F7272657462
:101FB000612E20446967697461646F3A2027257334
:101FC00027207C20457370657261646F3A20272555
:101FD00073270D0A0000000078BA00084175746884
:101FE0003A2053656E68612076617A696120726576
:101FF0006365626964612E0D00000000A9BA0008E3
:10200000B0B584B0082955D3801D891F89B201AAB3
:102010000B2301F0DBF8002818D001A80078002875
:1020200019D02F4D287800281AD0434808F038FCE2
:102030006C1C01A92046FEF7B0F8002828D03F48C4
:1020400008F02EFC00202870402031E01AA008F093
:1020500027FC04B0B0BD3D4808F022FC04B0B0BD80
:1020600020A008F01DFC01A8FEF790F8032804D872
:1020700029A008F015FC3F201AE0681C01A9FEF712
:102080009AF8244808F00CFC012028701F200FE06B
:102090002B4808F005FC204601F00EFC002801D179
:1020A000294800E0274808F0FBFB00202870172093
:1020B00000F0EEFD04B0B0BD417574683A20466191
:1020C0006C6861206E6F2070617273657220646548
:1020D000206E6F76612073656E68612E0D000000C2
:1020E0008C010020417574683A205265636562690D
:1020F0006461207072696D656972612073656E68D4
:1021000061207061726120616C7465726163616FDE
:102110002E0D000046BA0008417574683A204E6FD3
:1021200076612073656E6861206D7569746F2063D8
:10213000757274612E0D000020BA000803BA000801
:1021400077B90008CBB9000844B90008A7B900085E
:1021500010B50068C169090702D5416A082101620A
:10216000BA4CE06804F078FFE0680122214605F0EF
:102170002FFB10BDF0B581B0B44C6078002800D0C2
:10218000FAE025780C2D33DC082D3ED00A2D33D013
:10219000A6887E2E00D9EFE0FDF7AAFF0068405D1B
:1021A0008006C00E00D1E7E0F7488555701CA0807E
:1021B0001B2003F0A1F9092003F09EF9A2480A2D83
:1021C0000AD1E188491C01402289914204D0E28869
:1021D0009F4B0D269E54E180E188491C01402089D7
:1021E000814200D1C2E0E088994A1554E180BDE007
:1021F0007F2D0AD00D2DCBD1A08800284ED0E249EA
:1022000000220A5401206070B6E0A088002800D1A6
:10221000B2E0401EA0801B2003F06EF9092003F0FD
:102220006BF9E088401C884F38402189884204D0EF
:10223000E188874A08235354E0801B25284603F091
:102240006BF90926304603F067F9284603F054F984
:10225000304603F051F9E088401C3840218988421B
:1022600004D0E1887A4A20235354E0801B25284675
:1022700003F052F90926304603F04EF9284603F0E0
:102280003BF9304603F038F9E088401C384021899A
:1022900088426BD0E188F34A082365E01B2003F0F5
:1022A0002BF9092003F028F9E088401CEC4F384056
:1022B0002189884204D0E188EA4A0D235354E08002
:1022C0001B25284603F028F90926304603F024F997
:1022D000284603F011F9304603F00EF9E088401C5F
:1022E00038402189884204D0E188DE4A0D235354C6
:1022F000E080E088401C38402189884204D0E18891
:10230000D84A0A235354E0801B25284603F004F9D9
:102310000926304603F000F9284603F0EDF8304670
:1023200003F0EAF8E088401C38402189884204D054
:10233000E188CC4A3E235354E0801B25284603F015
:10234000EBF80926304603F0E7F8284603F0D4F806
:10235000304603F0D1F8E088401C3840218988429B
:1023600004D0E188BF4A20235354E0801B2003F0AF
:10237000D3F8092003F0D0F8E0680122214605F0E7
:1023800027FA002807D0E06804F066FEE068012222
:10239000214605F01DFA01B0F0BDC046AF4800214E
:1023A0008170704780B50649C860012205F010FAB7
:1023B000002801D001F007F902A007F09FFD80BDC1
:1023C000FC0000200D0A434C492050726F6E74616E
:1023D0002E20446967697465202748454C502720A2
:1023E0007061726120636F6D616E646F732E0D0A90
:1023F0003E20000070B504461B2003F07DF8092044
:1024000003F07AF896480A2C0BD19449CA88521CDA
:1024100002400B899A4204D0CB88924D0D26EE548F
:10242000CA808E49CA88521C02400889824203D061
:10243000C8888C4B1C54CA801B2003F06DF80920FF
:1024400003F06AF870BDC046FF030000FC000020E6
:10245000D4090020F0B581B0494E7078012800D031
:102460008CE048A008F01CFAFDF742FE0546006823
:10247000454C2778C15DC90706D06778C15DC9079B
:10248000A41C0029F5D1641E20212046FDF774FE0E
:1024900000281AD000210170811C2A684D1E28785E
:1024A000135CDB0716D00878135CDB0711D0487883
:1024B000135CDB0746D08878135CDB07091D002B13
:1024C000ECD18D1E002807D007E00025002F07D192
:1024D0004AE00D46002800D105462778002F43D05A
:1024E0002A492046FDF770FE002829D029492046B8
:1024F000FDF76AFE264F002828D027492046FDF721
:1025000063FE002824D025492046FDF75DFE002803
:1025100020D023492046FDF757FE00281CD0214932
:102520002046FDF751FE002818D01F492046FDF730
:102530004BFE002814D01DA0214607F0DFFC13E05D
:10254000134F0EE04D1C0028C6D0C6E7083708E040
:10255000103706E0183704E0203702E0283700E0A3
:10256000303779682846884707488021FDF7ECFD19
:1025700000207070B08014A007F0C0FC01B0F0BD66
:10258000FC0000200D000000540900209DB600084A
:10259000A0AB000885B6000893B6000898B60008FE
:1025A000A2B60008A7B600088BB60008436F6D619D
:1025B0006E646F20646573636F6E68656369646FD2
:1025C0003A20222573222E000D0A3E200000000032
:1025D00070B5224CA07800283ED1E088218988423D
:1025E0003AD01B2002F088FF092002F085FFA07876
:1025F000012806D11B2002F08FFF092002F08CFF7A
:1026000070BD0120A0702089E188884201D1002599
:1026100012E000211248134A238925896D1C0540C8
:1026200025816518D35C2B7423894D1CE688B34241
:1026300002D03F292946EFD31B2002F06DFF09206D
:1026400002F06AFFE06821461031AAB205F000F9F5
:10265000002801D00020A07070BDC046FC00002002
:10266000FF030000D409002070B5002822D00446E2
:102670002021FDF781FD002820D000210170861C5B
:10268000FDF736FD0168751E28780A5CD20718D060
:1026900030780A5CD20713D070780A5CD2073BD03E
:1026A000B0780A5CD207361D002AECD1B51E00288E
:1026B00009D009E02DA007F021FC70BD002503E042
:1026C0003546002800D105461A492046FDF77CFD15
:1026D000002817D019492046FDF776FD164E002830
:1026E00015D017492046FDF76FFD002818D0154971
:1026F0002046FDF769FD002817D013A0214607F0FA
:10270000FDFB70BD0C4E71682846884770BD0836C9
:1027100071682846884770BD751C0028D3D0D3E760
:10272000103671682846884770BD1836716828468B
:10273000884770BD87B60008D8AB0008ACB6000863
:102740005EB60008B0B60008537562636F6D616EC7
:10275000646F204457494E20646573636F6E6865EB
:102760006369646F3A202225732200005375626307
:102770006F6D616E646F204457494E2066616C74C2
:10278000616E646F2E20557365202748454C502795
:102790002E00000080B582B06846FFF72FF908A030
:1027A00008F07EF800990CA007F0A8FB0198FEF74E
:1027B00060F802460FA00B4607F0A0FB02B080BDF8
:1027C0004461646F73206465204672657175656E3F
:1027D0006369613A0D00000020202D2050756C7354
:1027E0006F732028656D203173293A20256C750D93
:1027F0000A00000020202D20457363616C61204198
:10280000202863616C63293A20252E32660D0A0068
:1028100010B584B001AC2046FFF7F8F80EA008F020
:102820003FF80198FEF725F8024610A00B4607F086
:1028300065FB207A002801D112A100E010A112A0AE
:1028400007F05CFB0298FEF714F8024613A00B4653
:1028500007F054FB04B010BD4461646F73206461E1
:102860002042616C616E63613A0D000020202D20D2
:102870005065736F3A20252E326620670D0A0000DE
:1028800053494D004E414F0020202D204573746167
:1028900076656C3A2025730D0A00000020202D205B
:1028A00041444320436F756E747320286D656469DD
:1028B000616E61293A20252E30660D0A0000000065
:1028C00080B5FFF7ADF8FDF7D4FF024602A00B4636
:1028D00007F014FB80BDC04654656D70657261746D
:1028E00075726120696E7465726E6120646F204D2F
:1028F00043553A20252E326620430D0A0000000081
:1029000080B5024807F0CCFF80BDC0468FB30008F9
:1029100080B52E2000F0BCF980BD000010B506295E
:1029200072D302785A2A6FD14278A52A6CD1C27824
:10293000832A69D1427903791B029A18082992B235
:1029400014D30023344CA2420ED0344CA2420BD0FC
:10295000334CA24208D08378DC1C8C4206D8C318C2
:102960009C785B781B021B192E4C63802E4B9A427D
:102970000EDC304B9A421DDD81208001824234D032
:102980002D4882423DD02D4882423DD134A039E0CD
:10299000264B9A4217DD8120C001824228D00520B3
:1029A0000003824231D0224882422DD1384838215A
:1029B000018010BD224B9A420ED0174B9A4223D170
:1029C000FFF78AFA10BD154B9A420BD0144B9A426E
:1029D0001AD1FFF715FB10BD02201249085E00F066
:1029E0009DFC10BD06F09CF810BD05F00BFB10BD62
:1029F0000C480178012907D10221405E05F03CFB1B
:102A000010BD10A007F07AFA10BD214801883829BE
:102A1000FAD10821018010BD302000000F300000E5
:102A200060300000880100200E3000007F40000070
:102A3000907000003F200000502000006020000047
:102A400020200000426F74616F205072696E742004
:102A50005072657373696F6E61646F0A0D000000D8
:102A6000426F74616F2044657363617274612041C9
:102A70006D6F73747261205072657373696F6E61EC
:102A8000646F0A0D00000000014800887047C046CE
:102A90005000002080B5024801F0C2FE80BDC04653
:102AA0008C02002080B5034801F0BAFE024801F014
:102AB000B7FE80BD30020020E802002080B5024849
:102AC00001F0AEFE80BDC0464403002080B5006822
:102AD0000E21016202F000F9DC4948610020887093
:102AE000487080BD10B54A1E3F2A0AD80068054AC2
:102AF000904206D1D54C21810120607002F0ECF8A3
:102B0000A06110BD00440040D04800210170704712
:102B1000F0B581B00546CD4F002038707870B88090
:102B2000F880B870FD60396178613C461C344026FD
:102B300020463146FDF708FBC5488021FDF704FB20
:102B40000C483146FDF700FB28462146324604F08A
:102B5000B7F900280BD0F86804F07EFAF868402234
:102B6000214604F0ADF9002801D000F02CFD01B0A1
:102B7000F0BDC0460C0F0020F3480178002901D0B9
:102B8000012070478188C088081A411E884170471B
:102B900070B590B002F0A0F8EB4E7169002907D033
:102BA0007169411A64295FD3002171610121B170FB
:102BB000B17801291CD10020B0707070F06804F069
:102BC0004BFAF06834461C344022214604F078F970
:102BD000002849D0F06804F03FFAF068402221460E
:102BE00004F06EF900283FD000F0EDFC10B070BD8D
:102BF0007178012938D1B169401A142834D372B6DA
:102C0000348935461C35684629462246FDF783FA45
:102C100000207070308162B6F0684022294604F0CE
:102C20004FF900280BD0F06804F016FAF068402243
:102C3000294604F045F9002801D000F0C4FC6B4699
:102C4000987859781A78062C10D15A2A0ED1A529CD
:102C50000CD103280AD1DD78822D07D11D794F2DA3
:102C600004D15B794B2B01D110B070BD042CFBD388
:102C70005A2AF9D1A529F7D1C01CC1B28C42F3D38D
:102C80003269002AF0D06846904710B070BDC04647
:102C9000F0B581B004461C2002F02EFC0B2002F09F
:102CA0002BFCF0488188C288914207D2C188828873
:102CB000D24389188DB20A2D07D24EE08188C2888E
:102CC000511A7F318DB20A2D47D3210A0091828893
:102CD000E5495A268E548288571C7F2217408780E8
:102CE0008788A523CB5583885B1C1340838083880A
:102CF0000727CF5483885B1C1340838083888227F7
:102D0000CF5483885B1C1340838083880027CF5473
:102D100083885B1C1340838083888427CF548388F7
:102D20005B1C134083808388CE5483885B1C1340D4
:102D3000838083880126CE5483885B1C1340838064
:102D40008388009ECE5483885B1C134083808388D5
:102D5000CC548188491C114081801C2002F0DCFB8E
:102D60000B2002F0D9FB092D02D8002001B0F0BDE4
:102D7000012001B0F0BDC046F0B583B00C46054659
:102D80001C2002F0B9FB0B2002F0B6FBB54881888D
:102D9000C288914207D2C1888288D24389188EB2F4
:102DA000082E07D243E08188C288511A7F318EB243
:102DB000082E3CD3A1B22A0A0192090A0291828804
:102DC000A9495A238B548288531C7F221340838045
:102DD0008388A527CF5483885B1C13408380838816
:102DE0000527CF5483885B1C134083808388822708
:102DF000CF5483885B1C134083808388019FCF540A
:102E000083885B1C134083808388CD5483885B1C3C
:102E1000134083808388029DCD5483885B1C1340BC
:102E200083808388CC548188491C114081801C2078
:102E300002F072FB0B2002F06FFB072E02D800207D
:102E400003B0F0BD012003B0F0BDC046600000201B
:102E50004C0F0020F0B585B00C4605461C2002F052
:102E60004BFB0B2002F048FBD6488188C288914278
:102E700007D2C1888288D24389188EB20A2E07D21F
:102E800054E08188C288511A7F318EB20A2E4DD308
:102E9000210A0491210C0391210E0291290A01912A
:102EA0008388C9495A27CF5483885F1C7F231F40DA
:102EB00087808788A522CA558288521C1A40828042
:102EC000828807278F548288521C1A408280828809
:102ED00082278F548288521C1A4082808288019FE8
:102EE0008F548288521C1A40828082888D54828836
:102EF000521C1A4082808288029D8D548288521C06
:102F00001A4082808288039D8D548288521C1A4008
:102F100082808288049D8D548288521C1A4082804F
:102F200082888C548188491C194081801C2002F0C1
:102F3000F3FA0B2002F0F0FA092E02D8002005B0B7
:102F4000F0BD012005B0F0BD60000020F0B583B0F9
:102F50000026002900D182E0054600287FD0EC4FF2
:102F6000F86800287BD00C461C2002F0C5FA0B2024
:102F700002F0C2FAB888F98888420AD2F888B9887B
:102F8000C943401880B284420AD8012684420AD933
:102F90005FE0B888F988081A7F3080B28442F4D99B
:102FA0000026844255D80196032021460140009115
:102FB000611E032901D2002229E0844300220295E8
:102FC000A85CBB883946D34FF8548888401C7F23BF
:102FD00018408880A818254644788E88BC558C886F
:102FE000641C1C408C8084788E88BC558C88641C42
:102FF0001C408C80C0788C8838550F462C46029D2A
:103000008888401C18408880121D9442D8D1009CAA
:10301000002C019E1DD0A85CBB88BE49C854B8884E
:10302000401C7F231840B880012C12D0A81841788A
:103030002546BC88B74A1155B988491C1940B98042
:10304000022D06D08078B9885054B888401C1840AA
:10305000B8801C2002F060FA0B2002F05DFA3046C6
:1030600003B0F0BD600000204C0F0020F0B593B01D
:103070000026002A00D1A2E0002900D19FE01546D9
:10308000A34FFA68002A00D199E001900291084606
:10309000FDF77CF80446A84200D32C46E31CD9B2C5
:1030A0003D2900D98BE003A9019D4D718222CA7090
:1030B0008B70A52048705A200870280A0871881D56
:1030C00002992246FDF727F81C2002F015FA0B2082
:1030D00002F012FABA88A41DE1B2FB889A420BD220
:1030E000FA88BB88DB43D21892B28A420BD3012004
:1030F00002908A420BD25BE0BA88FB889A1A7F3230
:1031000092B28A42F3D2002002908A4250D3032224
:10311000144001944A1E032A01D2002225E0FC2219
:10312000114000227B4B03ADAC5CBE889C55BC8833
:10313000661C7F242640BE80AD186E78B8881E5469
:10314000B888401C2040B880A878BE889855B888B8
:10315000401C2040B880E878BD885855B888401C8D
:103160002040B880121D9142DDD1019D002D1FD05D
:1031700003A8805CBB886749C854B888401C7F237B
:103180001840B880012D13D003A880184078BC885F
:103190000855B888401C1840B880022D08D003A8F4
:1031A00080188078BA888854B888401C1840B88045
:1031B0001C2002F0B1F90B2002F0AEF9029E30465D
:1031C00013B0F0BD600000204C0F0020F0B583B0BC
:1031D0001C4615460E46521E29469141421E01903C
:1031E00090410840012E01D8002100E0012101405A
:1031F000601E274687410F40012F42D128462146B5
:10320000FCF7A2FF022C38D3B01EA11E884200D3C7
:1032100008460290401C00900122002305E0D01CCB
:103220001B1D121D0099884227D00198C61871787D
:10323000FF2922D0202900D3E954029898421CD0BB
:10324000B178FF2919D0202901D3E81841700298DC
:10325000824212D0F178FF290FD0202901D3E8183B
:103260008170901C0099884207D03179FF2904D0E1
:103270002029D4D3E818C170D1E72819401E0021B5
:103280000170384603B0F0BD70B5214C207800289D
:103290003DD1A088E188884239D01C2002F02CF969
:1032A0000B2002F029F92078012806D11C2002F019
:1032B00033F90B2002F030F970BD01202070E08856
:1032C000A188884201D1002512E000211148124A4C
:1032D000E388C35C5354E3885B1C7F251D40E58075
:1032E000E3884D1CA688B34202D03F292946EFD37C
:1032F0001C2002F011F90B2002F00EF9E068AAB2CE
:10330000054904F0A5FA002801D00020207070BD06
:10331000600000204C0F00200C0F0020B0B50446C8
:10332000102801D00C4800E00A4808252946FFF77C
:103330000DFE102C00D10B252846FFF7A9FC102C00
:1033400003D010A006F0DAFDB0BD04A006F0D6FD53
:10335000B0BDC046A8A90008B0A9000844697370B0
:103360006C61792048616E646C65723A20446573C3
:103370006C696761206261636B6C696768740A0DD0
:1033800000000000446973706C61792048616E64CC
:103390006C65723A2052656C696761206261636B8B
:1033A0006C696768740A0D0001480121017070475B
:1033B000A40100207F498878012801D100228A7069
:1033C0007047C0467B4900224A700A70C8600A6193
:1033D0008A707047774800787047C046F0B585B06E
:1033E0000024002912D0124FFB68002B0ED00D468E
:1033F00003920490A021022264261846334601F06D
:103400000DFD002805D00BA007F04AFA204605B0B4
:10341000F0BDF8680095039901910296A02102235E
:10342000049A01F0A1FD44424441204605B0F0BD9C
:10343000BC000020454550524F4D5F526561643AD3
:1034400020446973706F73697469766F206E616F61
:1034500020657374612070726F6E746F2E0D0000A2
:10346000F0B585B0294D28780124012808D1A87825
:10347000012808D127A007F013FA0020A8702870AF
:10348000204605B0F0BD01F027FC6969401A002113
:1034900005282DD30491AA881F2010402021081A46
:1034A0002F89B842064600D33E46B218AA802B693F
:1034B0009B192B61BE1B2E8187421DD9E8686427AA
:1034C0000297B6B2202E00D30E460093019692B218
:1034D000A021022301F062FE00280FD001460C4813
:1034E00006F00CFD0120A870049C204605B0F0BD3C
:1034F0000C46204605B0F0BD0020C0E72C7001F05E
:10350000EBFB6861049C204605B0F0BDBC000020C8
:1035100069AC0008454550524F4D2028424C4F435E
:103520004B494E475F54455354293A204572726FB8
:103530002064652049324320646574656374616466
:103540006F210D00F0B583B005461A4EF068434276
:1035500043410024002A22D0002920D037781F437D
:10356000FB071CD10024B4703281B58031617470C6
:10357000642302931F232B402027FB1A934200D37E
:10358000134600910193A02102232A4601F006FE72
:10359000002807D00146084806F0B0FC34702046E9
:1035A00003B0F0BD0124347001F096FB7061204639
:1035B00003B0F0BDBC000020B2AC000880B52020F4
:1035C00001F09EFA80BD72B6FEE700000748006871
:1035D000406A704780B5054803F054F880BDC04686
:1035E00002480068002141627047C046E0070020A1
:1035F00010B54A1E0B469341441E0246A2411A4092
:10360000012A04D1B74B5C690460986908601046D0
:1036100010BDC04670B50246072801D3002300E064
:1036200001234C1E0846A041184001280AD1282336
:103630005343AC4AD2181C3238CA38C138CA38C1D0
:1036400078CA78C170BDC046002805D0A54949791F
:10365000072900D300210170411E88417047C046F0
:1036600007207047B0B54C1EA141421E054695414A
:103670000D40012D06D19B4908312246FCF76FFD14
:10368000002101552846B0BD954900224A710A71B2
:1036900008608A717047C046F0B581B0584F3879DC
:1036A000002817D0B979012959D1401E05284AD8D8
:1036B00078440079400087443702616E5478FFF700
:1036C000CFFE00284BD0FFF775FE002800D188E020
:1036D0006C4879E07879012832D1FFF77BFE002829
:1036E0003DD101F0F9FAB968401A6849884236D3E9
:1036F000002078710124BC71386800280DD0794908
:103700004D252A4600F09CFE0646AD00604829463D
:10371000324606F0F3FB734846515E4807F0C0F8A6
:103720003C71B87900281AD02720C20000206D49CA
:10373000FFF708FF002842D00220387101B0F0BD29
:10374000B87900280BD0012078710020B871387149
:1037500001F0C2FAB8604C484C4906F0CFFB01B00A
:10376000F0BD0520C0012721CA005E49FFF7EAFE2F
:10377000002826D00620387101B0F0BD2720C200F5
:10378000104608305749FFF7DDFE00281BD0042003
:10379000387101B0F0BDFFF763FE0028DFD0FFF7FE
:1037A00009FE002816D034480EE0FFF759FE002825
:1037B000D5D0FFF7FFFD00281AD01FA004E036483F
:1037C00002E02B4800E02D4807F06AF80720387126
:1037D00001B0F0BD274807F063F80520387101B04B
:1037E000F0BD274807F05CF80320387101B0F0BD48
:1037F00004A007F055F80020B871387101B0F0BD91
:10380000F000002053746F726167652046534D3A93
:1038100020426C6F636F20424B5032204F4B2E2062
:1038200053616C76616D656E746F20636F6D706C43
:1038300065746F2E0D00000053746F726167652010
:1038400046534D3A204572726F2064652064726958
:1038500076657220616F206573637265766572208C
:10386000426C6F636F20424B50322E0D00000000FF
:103870008BAE000874AF00083FAF00085EAE0008D2
:1038800091AF0008B2AF000811AD00088813000026
:1038900090AD0008E9AE0008B8AE0008014600206F
:1038A000062907D8CE4A9379002B03D10120507105
:1038B000DA4A51717047C046B0B501460020002970
:1038C0000DD0C74CA279002A09D1D44D2846083022
:1038D0000A22FCF744FC012060710021A974B0BDEC
:1038E000F0000020D40D0020F0B587B0BC4800687F
:1038F00000281ED0BBA006F0D3FF2720C60000245E
:10390000C64F204639463246FFF768FD002814D0DE
:103910004D2290003D58B2480068394600F090FDB5
:10392000A8420FD1D64806F0E9FA0124204607B094
:10393000F0BD0024204607B0F0BDB948002106F0D4
:10394000DDFA05E00246B74800212B4606F0D6FA1C
:10395000B5A006F0A5FF30460830B04F39463246D4
:10396000FFF73CFD00280BD04D2290003D589C48AD
:103970000068394600F064FDA84207D1BF4825E041
:1039800005208101A64806F0B9FA06E002460520A6
:103990008101A4482B4606F0B1FAB24806F080FF38
:1039A00005200390C7019D4D384629463246FFF752
:1039B00015FD002812D04D2290002E58884800682E
:1039C000294600F03DFDB0420DD1AB4806F068FF3E
:1039D000012483484471204607B0F0BD9048394621
:1039E00006F08CFA05E002468E483946334606F06A
:1039F00085FA9D4806F054FF281D4D218900FCF7EB
:103A0000A3FB9A480121049129606121A860E96023
:103A10002C827F20C005686128461C30944E316896
:103A200010273A460697FCF79AFB2C202C54284680
:103A30002D3090490A220592FCF76DFBF06A316B3C
:103A40004222A9524021685237202C54B069E863C1
:103A500028464430316C3A46FCF781FB54202C5404
:103A6000284655308349059F3A46FCF754FBF06ED3
:103A7000316F6A22A952682168525F202C54B06DC0
:103A800068668020315828466C30069AFCF767FB40
:103A90007C202C5428467D3076493A46FCF73BFB87
:103AA000B020305892216852AC2030589021685292
:103AB000982030588C21685087202C54C0203158D1
:103AC00028469430069F3A46FCF749FBA4202C5424
:103AD0002846A5306749059AFCF71DFBF0203058B1
:103AE000BA216852EC203058B8216852D82030589A
:103AF000B4216850AF202C54049800023158284655
:103B0000BC303A46FCF72BFBCC202C542846CD3059
:103B10005849059F3A46FCF7FEFA1320000102902F
:103B20003058E22168524B20800001903058E0214B
:103B300068522320C0003058DC216850D7202C5414
:103B40000398800131582846E430069AFCF707FBB9
:103B5000F4202C542846F53046493A46FCF7DBFA67
:103B60001720000130588521490068525B208000F1
:103B700030582121C90068522B20C0003058412103
:103B800089006850FF27EC55432080002818032146
:103B9000C9017158069AFCF7E2FA472080002C54BC
:103BA00038461E3028183349059AFCF7B4FA1B2012
:103BB000000130589921490068526B20800030582C
:103BC000029968523320C000305801996850283754
:103BD000EC55034804994171204607B0F0BDC0463A
:103BE000F0000020454550524F4D204D616E6167F9
:103BF00065723A2056657269666963616E646F200A
:103C0000696E74656772696461646520646F7320AE
:103C10006461646F732E2E2E00000000D40D00200E
:103C20005AAD0008D7AD0008454550524F4D204DC4
:103C3000616E616765723A205072696D6172696F79
:103C400020636F72726F6D7069646F2E2054656EA1
:103C500074616E646F204261636B757020312E2E2B
:103C60002E000000EBAF0008ABB0000873656E6873
:103C7000B8A90008CCBA000868B0000825B0000850
:103C800027AE0008F0B587B0002506955422825C67
:103C9000012A03D10224204607B0F0BD064654365F
:103CA00001243470026893685B0714D407694B6879
:103CB000022B18D104200743994887426DD19748B9
:103CC000C0430B68D9430143906A084090620024C6
:103CD000002B66D4D2E0816D20220A4382653570C4
:103CE000204607B0F0BD059304231F438C4CA74228
:103CF00062D10F683846894B1840936A0343936238
:103D00003802536983438968014086480840184354
:103D100050610024002F00D4B0E0032082058248C7
:103D20000368194611403846804F0490B84200D0CD
:103D300096E07A4F7F1CB94200D391E07A4803683D
:103D400093431943754A5118491C0160794800682A
:103D50007949FCF7A2FD0C214143481C06900698C6
:103D6000002800D18AE00698401E06900698002898
:103D700000D183E00698401E0690069800287DD06A
:103D80000698401E06900698002877D00698401E98
:103D9000069006980028E6D170E00B680024002BFE
:103DA0006CD5FA480168624A93426BD05F4A9342ED
:103DB00064D10122920567E01F27059C27400F244C
:103DC00000940397BC40076E0194A74302970C68C8
:103DD000524F3C42049462D0E4072F4667D1049FBF
:103DE000BC075FD47C075FD43C075FD4FC061F464A
:103DF0005DD4049CA30671D4630671D4230671D4E8
:103E0000E30571D4049B9B0570D4049B5B056FD4C0
:103E1000049B1B056ED4049BDB046DD4049B9B04A4
:103E20006CD4049B5B046BD4049B1B04009F3ED4A6
:103E3000049BDB0366D4049B9B0365D4049B5B0358
:103E400064D4049B1B0363D4049BDB0262D4049BF5
:103E50009B0261D4049B5B02DB1716271F4026E000
:103E6000334F0498B84209D10127BF053B4005D123
:103E7000C64803689343194339430BE03570204625
:103E800007B0F0BD254A521C114003229205036879
:103E90009343591801603570204607B0F0BD6300A8
:103EA000DF0E04E0012702E0022700E00327039C65
:103EB000A740029B1F430766059B9B08C069984269
:103EC0000AD90198C043936A0340049FB800000FC9
:103ED000A0401843906213E7049F11E70527E6E727
:103EE0000627E4E70727E2E70827E0E70927DEE7F8
:103EF0000A27DCE70B27DAE70C27D8E70D27D6E7F8
:103F00000E27D4E71027D2E71127D0E71227CEE7F4
:103F10001327CCE71427CAE71527C8E7FFFF7F0060
:103F20000400008000FFFF7F08270140000200A47A
:103F3000000400A82C000020400D03000068006C65
:103F400070470000F0B589B0044600200890002CAE
:103F500076D00790A06D002807D12546543520461D
:103F600000F016F900202870E06501273D0726685B
:103F7000B068C00026D4B0687F4901402943B160D1
:103F80007E4800687E49FCF788FC4000089008984D
:103F9000002817D00898401E08900898002811D0D3
:103FA0000898401E0890089800280BD00898401EDA
:103FB00008900898002805D00898401E0890089896
:103FC0000028E7D1B068284208D1A06D1021014334
:103FD000A165E06D012107910843E065B068042107
:103FE0000140A26D102002405118A16D2BD1069006
:103FF0000F20C7433A46F33A1140891CA165B168C6
:10400000C9077DD10390049727462037216B4A1EAC
:1040100091410D03A168227E92030A43617EC90388
:104020001143A27E50030843E36803432B4301205E
:10403000C507216900290590029509DAA94308E01E
:10404000012009B0F0BD0143A165384609B0F0BDBB
:1040500041050B43387B45001D433878012809D1C1
:10406000002A11D0A06D20210143A165E06D0599C2
:104070000843E065626A002A0CD0072080010240F4
:10408000A16A1143294306E0059800040543626ACA
:10409000002AF2D12946F0683A4A02400A43F26007
:1040A0000320820763681D461540E16C387F0128B4
:1040B0000ED1206C0090676CA06C019000980743B3
:1040C000019807432F430F43059807433D4600E0FF
:1040D0000D43049F30692C49014029433161029806
:1040E000834203990CD093420AD0059880078342FB
:1040F00006D08804034025490A688243D018086026
:10410000706907229043656B284370617069702164
:104110008843A16B0901014371612169012358059D
:10412000814203D000290BD1B06A07E0B06AE06990
:1041300080001C301C2101408F40206E3843B0624B
:1041400070691040A8420AD10020E065A06D0121ED
:10415000014302208143A165079809B0F0BDA06D1D
:104160000699084302218843A065E06D1843E06585
:10417000184609B0F0BDC046E8FFFF6F2C000020D4
:10418000400D03000102DEFF02FCFF1F0827014073
:1041900080B58AB000210991089107910691059197
:1041A0000491039100680D49884201D00AB080BD96
:1041B0002020029002A801F035FB002801D0FFF773
:1041C00002FA0120000506490A6802430A600968EC
:1041D0000140019101980AB080BDC0460024014011
:1041E00040100240F0B581B00D46044640690828F1
:1041F00001D1082704E02068C068C0073FD1042728
:1042000000F06AFD06462168086838421CD001208B
:104210004202A36D1343A365CA681205920F4AD1E7
:10422000A27E002A47D10A68120744D58A6852073D
:1042300038D4224658324B680C25AB434B60FF25DF
:1042400002351368AB4334E0002D1FD0681C10D139
:1042500008683842DBD108683842D8D1086838424B
:10426000D5D108683842F3D0D1E7216808683842D0
:10427000CDD100F031FD801BA842F6D908E0A06D39
:1042800020210143A165012001B0F0BD00F024FD13
:10429000542000212154A06D04210143A165032075
:1042A00001B0F0BDA26D20231343A36522465C320A
:1042B000E36D03431360227E0020002A01D001B089
:1042C000F0BD0C220A6001B0F0BD000070B50146DF
:1042D000006882680220520711D454228A5C012AA5
:1042E0000DD00C4654340120054620700E46084679
:1042F000FCF732FF002803D000202070284670BD54
:10430000B06D09490140012000020818B065002085
:10431000F06531681C220A6020708A68304B1340B7
:104320001A1D8A6070BDC046FEF0FFFFF0B581B077
:1043300004465420205C012802D1022001B0F0BDC7
:1043400026465436012737702068816849071FD4F4
:1043500081688268D20737D00222114034D1816847
:1043600005220A40012A27D181681D4A0A40911C72
:1043700081600321016000F0AFFC05462068806881
:10438000C00721D000F0A8FC401B0328F6D313E09F
:104390008168890704D48168114A0A40103282601A
:1043A00000F09AFC0546206881684907D0D500F0E6
:1043B00093FC401B0328F6D3A06D10210143A16597
:1043C000E16D5C34384605E0FF200230A16D814389
:1043D00058340020002232703943216001B0F0BD12
:1043E000E8FFFF7F70B503460120CC0720D0114CB9
:1043F0000C40651EAC4103261546F541032D17D828
:104400007D442D796D00AF440B0105090B4C0C4028
:104410000ED105E0084C0C400AD101E0002C07D178
:104420001868416181681823994311438160002015
:1044300070BDC04680FFFF7F00FFFF7F0000FF7F51
:10444000F0B584B00E46022141770468A1680125C9
:104450002943A160016A01291ED002290ED0032937
:1044600028D1002A00D103E10395032511462940F4
:10447000042A00D3D2E033460025DEE057081ED0E0
:10448000039503213B460B4000937B1E032B0296B2
:1044900001971AD2002133E0970814D00395032323
:1044A000394619400091791E03290296019349D299
:1044B00000257AE000214577084604B0F0BD0021D0
:1044C000D2073CD1D4E000219EE08F430021354645
:1044D0006B882E883604F3182360EB88AE88360488
:1044E000F31823606B892E893604F3182360EB8957
:1044F000AE893604F31823601035091D8F42E7D1C9
:10450000009F002F029E14D08B00F1184D88F35AA3
:104510001B045B192360012F0BD0CB888D882D04E1
:10452000EB182360022F04D04B8909890904C918AC
:10453000216001998900039DD20700D198E0715A4A
:10454000218095E09F43002531460E7836064B7852
:104550001B049B198E7836029B19CE789B19236019
:104560000B791B064E793604F3188E7936029B19A7
:10457000CE799B1923600B7A1B064E7A3604F3180A
:104580008E7A36029B19CE7A9B1923600B7B1B0611
:104590004E7B3604F3188E7B36029B19CE7B9B191B
:1045A000236010312D1DAF42CFD1009F002F029EFE
:1045B00026D0A900735C1B0671184D782D04EB18EA
:1045C0008D782D025B19CD785B192360012F17D0F0
:1045D0000B791B064D792D04EB188D792D025B1993
:1045E000CD795B192360022F0AD00B7A1B064D7A16
:1045F0002D04EB188D7A2D025B19C97A59182160A8
:104600001146019B9943039D03231A407A44127972
:10461000520097442C011C24715C27E0AA4300251A
:1046200033463768276077682760B7682760F76880
:10463000276010362D1DAA42F3D1002905D0AA000B
:104640001D469B582360012917D1039D10E0721865
:104650005278715C090289182180046808E0721898
:104660005378715C0902C91821809178217004681F
:1046700021684577084604B0F0BDAA185368236046
:104680000229039DF4D091682160F1E7B0B50125BE
:10469000002814D00446407F002804D10020207751
:1046A000204600F031F8022060772079002808D0F9
:1046B000A168E2682046FFF795FE002808D028464A
:1046C000B0BD20680F494161816818229143816023
:1046D00000256079002801D0216900E0E9432068C5
:1046E000016181686022914362690A438260816846
:1046F00080229143A2690A438260012060772846A4
:10470000B0BDC046B71DC10481B0006808498842E9
:1047100001D001B070470120000306490A68024336
:104720000A60096801400091009801B07047C046D6
:10473000003002403810024070B500282CD00146ED
:1047400024314A78022A29D1046822680E239A4328
:104750002260426C1568314B1D40156025680122AE
:1047600095432560046C1C2525401446AC40D74D6C
:104770002E6826432E60846CC56C6560046D002C29
:1047800005D025681D402560436D806D58604A70D6
:10479000002000220A7070BD012070BD0422C26397
:1047A000012000220A7070BD70B5242101244454F8
:1047B000014624314A78022A2BD103681A680E2454
:1047C000A2431A601C68012294431C60446C256853
:1047D000124B1D402560046C1C2525401446AC403E
:1047E000BA4D2E6826432E60846CC56C6560046DDE
:1047F000002C05D025681D402560436D846D5C60EC
:1048000000240C704A70816B002900D08847204634
:1048100070BD0421C163204670BDC046FFFEFFFF8E
:10482000F0B585B0016C1C240C4004231946A1404E
:10483000A64A121F15680A4603952A405642564159
:10484000049005682A6817461F4078427841304333
:1048500032D002950121022610463040474247419E
:10486000A640039B1E420D46019400D03946049F8A
:104870003C462434002931D008200240564256419B
:104880000198C340180700D53546002D24D1029A5F
:1048900010680E218843106001200146019A914062
:1048A0008A4B1A680A431A60F8630021217060700D
:1048B000796B00290ED10FE02868800602D42868A1
:1048C00098432860814A106808431060049F396B40
:1048D000002901D03846884705B0F0BD029A10681B
:1048E000800605D410680A2188431060012060709A
:1048F000002020707549086830430860F96A002973
:10490000E8D1E9E7F0B587B000284AD0044601466F
:1049100024310220069148702768386834490140E4
:104920003960344E30468030A0643348381814253E
:104930002946FBF7B2FF800081192064059161646C
:10494000FC20384008382946FBF7A7FF1C2202400C
:1049500001210B469340E364A0680490E568264675
:10496000103645CE0196E6690296266A03962843DC
:104970001043019A10430E460299084303990843D5
:1049800039680143049A11433960B1031B488A42D4
:104990000AD1002205990A60626003601546134639
:1049A0001BE0012007B0F0BD6168CFB2059A176027
:1049B0000360491E00220329154613460DD8791EAF
:1049C0008A0082180023D36703250D403346AB408D
:1049D0000B490B607C32BC3005460020E063226549
:1049E0006565A365069908704E7007B0F0BDC046B6
:1049F0000F80FFFF00080240F8FFFDBF840802405F
:104A000044090240F0B583B004462420205C01280C
:104A100002D1022003B0F0BD254624356878012874
:104A200030D10092022068700020E063266832686E
:104A300001270297BA433260A26CE76C5760226D7F
:104A40000192002A02D0626DA76D5760226C1C276C
:104A50001740029ABA401D4F3F6817431B4A176020
:104A60007360A368102B009F3A4600D00A46B260DC
:104A7000102B00D03946F1603168226B002A06D035
:104A80000E2209E002200021297003B0F0BD0422AB
:104A90009143316032680A21114331600299090261
:104AA000626C1368DB0302D513680B431360019B30
:104AB000002B02D01A680A431A603168029A114327
:104AC00031600021297003B0F0BDC04604000240EF
:104AD000B0B5044600F000F90546601C02D0044859
:104AE0000078241800F0F8F8401BA042FAD3B0BDBB
:104AF0000800002080B5202801D1FEF755FC80BDBC
:104B0000B0B50446074D2868204203D02C602046EB
:104B100000F00AF86868204203D06C602046FFF776
:104B2000E9FFB0BD0C18024070470000F0B58AB034
:104B3000069009910B68002B00D1B4E05B48069900
:104B4000814201D0062000E005200B2212070699C1
:104B500089180A22D1410091042900D300900698B7
:104B60002030019000252E46079529460FE01A4374
:104B700062600899491C099803681846C8400835BE
:104B8000B61C079A121D0792002800D18BE0012461
:104B900020460891884003400393EAD00495099980
:104BA0004A6810211143122915D11C21079A11407E
:104BB00005960F2632468A40089BDB089F00019B22
:104BC000DD599543099A12693240059E8A402A436D
:104BD000DA5109994A68032311461940B1400293FA
:104BE000B3403746069E35689D430D4335603E46CB
:104BF000D9430591122A049D15D894402E490C42A0
:104C00000FD0069CA168059B1940099BDB68B34047
:104C10000B43A3601109089B9940636883430B43CE
:104C20006360032AA5D0069BD868059908400999B6
:104C30008968B1400143D960D0009AD51820284036
:104C40000F218140089A029B9A43194CA218136EB7
:104C50008B430099814019431166164802680998F0
:104C60004068C10302D5039B1A4301E0039B9A43AA
:104C700010490A604A68810301D51A4300E09A434B
:104C80000C494A602268C10205D51A432260626855
:104C9000800206D56BE79A4322606268800200D5E5
:104CA00065E79A4364E70AB0F0BDC04600140050BF
:104CB0000018024080180240060006000069084003
:104CC000411E88417047002A02D018228150704747
:104CD0002822815070470000014800687047C04694
:104CE000CC0F0020B0B50246034640335C7802206A
:104CF000202C17D11C78012C14D024205870106857
:104D000002680124A24302602203056895430560FE
:104D100002680A43026001682143016000201870A4
:104D200020215970B0BDB0B50246034640335C78CF
:104D30000220202C17D11C78012C14D0242058706C
:104D4000106802680124A24302600F221202056863
:104D50009543090229430160016821430160002055
:104D6000187020215970B0BDF0B581B0002822D054
:104D7000054640356978002905D10021297004468F
:104D800000F026FB20462421697001680B6801228F
:104D900093430B600F231B0644689C430C618C6893
:104DA0001C4B1C408C608468C668012E06D1D6035B
:104DB00034438C600CE0012001B0F0BD2127BF021C
:104DC0003C438C60022E03D1D4024E68264302E09D
:104DD000D4024E68A6434E604C680F4E26434E6088
:104DE000CC681C40CC60036944691C4383691B0286
:104DF0002343CB60C369046A1C430C600B681343F4
:104E00000B600021416420226A7001630846A9708A
:104E100001B0F0BDFF7FFFFF00800002F0B589B058
:104E20000793054600240894034640335878022728
:104E3000202800D090E028688069000400D58BE02D
:104E40001878012800D187E02420587001200393AE
:104E50000290187004946C64CD480140069205914C
:104E600013E0C46100972024002228462146079BB6
:104E700002F0B4FF00285DD00898401C0890089804
:104E80000898069A904205995ED2E868012834484D
:104E900000D03448401829684860FFF71DFF0746D6
:104EA00028688169202631408269102422408918AF
:104EB0002BD10799491C10D00798002842D0FFF742
:104EC0000BFFC01B079988423ED828688169314092
:104ED000826922408918F2D017E0816931408269E5
:104EE0002240891811D18169314082692240891894
:104EF0000BD18169314082692240891805D18169CD
:104F00003140826922408918E7D08169C906A8D456
:104F1000009720240027284621463A46079B02F0A6
:104F20005DFF002809D0686C0428A5D12868C461F9
:104F30006F64A1E72868C4619EE72868C46103998B
:104F40004C7007E0FFF7C8FE03994E70686C304361
:104F50006864029F04980870384609B0F0BDC046E6
:104F60000020000200280002F0B589B00446064681
:104F7000403675780220202D09D10E9F002F08D0D1
:104F80000F9D002D05D007953578012D06D109B06C
:104F9000F0BD01204102616409B0F0BD03970593A3
:104FA00002920691012008903070FFF795FE0246AC
:104FB0002068816909042FD410990491222171700D
:104FC0004021B17000276764079961850399616288
:104FD0006763F949069B0B400599C9B2090406931A
:104FE000C9184368F54D2B40C918012308935B038A
:104FF000C918416020460499154602F0AFFF002809
:1050000046D10397079520680599012926D1029971
:10501000C9B28162079D31E00898C50302E0816949
:105020002942C9D019212046174602F019FE00284E
:1050300011D1FFF751FEC11B20681A293A46EED361
:1050400081692942EBD0606C202108436064717053
:1050500000203070B070089809B0F0BD0299090ABC
:10506000816220460499079D2A4602F077FF0028B6
:10507000039F0DD121680298C0B28862009540213B
:1050800000222046049B02F0A9FE0028039F03D0C3
:105090003770089809B0F0BD608D000A07D020680D
:1050A0004168C64A1140021DFF203B4B09E0608D5C
:1050B00022685368C1490B40C1B209041943121D4B
:1050C000344B069F19433943116020850120089015
:1050D000400638180590079A049D0FE0608D2085E2
:1050E00021684A68B84B1A40C0B20004059B1843B7
:1050F00010434860079A608D002834D00092042144
:10510000002720463A462B4602F068FE0028A2D12E
:10511000606A2168496A0170608D401E6085606A1E
:10512000401C6062208D401E2085618D0029079AF9
:10513000E1D00004DFD100928021002220462B46DE
:1051400002F04CFE002886D1608D000AC6D0FF20F8
:10515000208521684A689C48024006980243994885
:1051600002434A60C6E72046294602F0B4FE002802
:10517000089800D00BE720682021C1614268934B5A
:105180001340436071703770B770384609B0F0BD96
:10519000FF030000002400020024FF01F0B589B0E5
:1051A0000446074640377D780220202D09D10E9E07
:1051B000002E08D00F9D002D05D007953D78012DBC
:1051C00006D109B0F0BD01204102616409B0F0BD13
:1051D0000396049302920691012005903870FFF720
:1051E0007BFD06462068816909042DD40896109D30
:1051F000212179704021B970002666640799618584
:105200000399616266636C49069A0A400499C9B2BF
:105210000904069289184268684B1340C918684A05
:1052200089184160204607952946089A02F096FEA3
:10523000002845D1039620680499012925D10299B7
:10524000C9B28162089D30E00598C50302E081691A
:105250002942CBD019212046324602F001FD002818
:1052600010D1FFF739FD811B20681A29EFD381691E
:105270002942ECD0606C20210843606479700020E2
:105280003870B870059809B0F0BD0299090A8162BA
:1052900020460799089D2A4602F060FE0028039EDA
:1052A0000ED121680298C0B2886200958021002545
:1052B00020462A46079B02F091FD0028039E03D05A
:1052C0003E70059809B0F0BD039501204606618D3A
:1052D000090A3C4A3C49059006D020680B464168C3
:1052E0001940051DFF2008E0608D226853680B40BF
:1052F000C1B209041943151D3246069B11431943D7
:10530000296020851E430496089A079E0FE0608D51
:10531000208521684A682C4B1A40C0B20004049BC7
:10532000184310434860608D0028089A2FD020460B
:10533000314602F013FE0028A4D12068616A0A7881
:105340008262608D401E6085481C6062208D401E18
:105350002085618D0029E6D00004E4D108980090F2
:10536000802100222046334602F038FD002889D1F2
:10537000608D000ACBD0FF20208521684A68124842
:105380000240069802430F4802434A60CBE720469A
:10539000314602F0A0FD0028059800D011E72068F2
:1053A0002021C1614268094B134043607970039822
:1053B0003870B87009B0F0BDFF030000009800FC21
:1053C000002000010000FF01009C00FC00E800FE3E
:1053D00070B58EB000240D940C940B940A9409942B
:1053E0000894079406940594049403940294006826
:1053F0001649884201D00EB070BD0226019601A860
:1054000000F010FA002801D0FEF7DDF8104D2868F2
:105410003043286028683040009006200D900C949E
:105420000B9412200A90032000020990009809486A
:1054300009A9FFF77BFB01204005A9680143A9608A
:10544000A9680140009100980EB070BD0054004062
:1054500034100240000400501B48007802490A68DA
:10546000101808607047C046CC0F002010B500240B
:10547000204600F009F8002801D0012010BD00F0FE
:1054800027F8204610BD000070B50F4E317801247A
:10549000002916D005467D20C000FBF7FEF9014625
:1054A0000A480068FBF7F9F900F06EFF032D08D8F1
:1054B000002806D10024E0432946224600F038F8AF
:1054C0007560204670BDC046080000202C000020FA
:1054D00082B0D348416801221143416041681140C4
:1054E00001910199110702680A43026000680840AF
:1054F0000090009802B07047002809D41F2108408E
:105500000121814003480160BFF34F8FBFF36F8FCC
:105510007047C04680E100E0002805D41F21084004
:1055200001218140014801607047C04600E100E070
:10553000002805D40322034693430A4A9A1803E03D
:105540000C220240064BD2188007C00E8901C9B256
:105550008140FF23834010689843084310607047E0
:1055600014ED00E000E400E0B0B5B3218A000021B2
:10557000815403685C6D01252C435C65801885604F
:10558000586D022202435A650846B0BDF0B585B099
:1055900000281ED00746A52080003D186878002806
:1055A00004D100202870384600F012F903266E70EE
:1055B000386804F021FC3879002800D1F4E0039524
:1055C000044634400428049706D20022002C37D128
:1055D0005DE0012005B0F0BD0294FC2202403B4694
:1055E000F51E691C3C27D955A91C6427D9550027ED
:1055F0005F629F62DF62DF7501215975DF641F659D
:105600005F655F679F67DF671C463C3461701D758F
:105610001D4664356970E7701C468C346170EF700C
:105620008C215E5427616761A761E770311DA0334B
:10563000741C94420E46D3D1CA1E029C002C26D064
:10564000049B14332825294651435A5459180027DE
:105650000F614F618F61CF7001264E70012C16D003
:10566000511C02962E464E4399559919029E0F6180
:105670004F618F61CF704E70022C08D0911C4D434A
:10568000595559190F614F618F61CF704E700028C5
:10569000049F039D00D187E00322014611400428A6
:1056A00003D20020002959D17EE079239B00FB180A
:1056B000FC2528401C46673C002626701C46783C8A
:1056C00026601C467C3C26601C46803C26601C46AE
:1056D0008D3C26701C46903CD71E27701C468F3C84
:1056E00026701C463F3C26701C46503C26601C46DB
:1056F000543C26601C46583C26601C46653C26707F
:105700001C46173C26701C46283C26601C462C3C38
:1057100026601C46303C26601C463D3C26701C46DC
:10572000683C7D1C25701C46403CBD1C25701E60DD
:105730001C1F26601C46083C26601C46153C267033
:105740001C46183C2270151DA033521C82422A466A
:10575000B0D1E81E049F039D002925D05522920058
:10576000BA18282633464343D054D4180023236163
:105770006361A361E3706370012915D0441C354651
:10578000654354555419039D23616361A361E3701C
:105790006370022908D0801C46439055901903611C
:1057A00043618361C37043700FCF3C780094103F16
:1057B00004F014FB0020787401216970397B012901
:1057C00004D105463846FFF7CFFE284605B0F0BDA8
:1057D00080B58AB000210991089107910691059141
:1057E0000491039100680D49884201D00AB080BD40
:1057F0000820029002A800F015F8002801D0FDF75B
:10580000E2FE0120400306490A6802430A60096873
:105810000140019101980AB080BDC046005C004083
:105820003C100240F0B585B00446007840064C4E6E
:1058300001D4002035E0012001073746203F3A68B7
:1058400003910A40029207D13968039A11433960E3
:105850003968114004910499032101910A023168C9
:10586000114010D0E26991420DD0316800043268D5
:10587000024332603268824332600846394A10403F
:105880003060C8075AD1306836490840E1690143A1
:10589000316000200299002903D13968039A9143AD
:1058A00039602168CA070BD18A0713D48A061CD431
:1058B0000A0725D44A072DD4090636D405B0F0BD11
:1058C0003246083A13680325AB43A5681D431560AB
:1058D0008A07EBD5032212033346083B1D68954324
:1058E000E2682A431A608A06E2D503229207334609
:1058F000083B1D689543A2692A431A600A07D9D557
:1059000001221203331F1D68954362692A431A60FE
:105910004A07D1D5032292033346083B1D689543BD
:1059200022692A431A600906C8D55C3E3168E02224
:10593000914362680A43326005B0F0BDFFF7CCF9CD
:105940000546306880079ED4FFF7C6F9401B7B49A7
:105950008842F6D90198029900299ED0A1E7C04655
:105960005C100240FFFCFFFFF0B583B00D4601461E
:10597000012000296BD0029101906F480068072731
:105980003840854215D96C490868B84328430860F7
:105990006A4CFFF7A1F90646674800683840A842FC
:1059A00007D0FFF799F9801BA042F5D9032003B077
:1059B000F0BD029B186881079E4C10D5410707D5A2
:1059C0007B21090222688A430B21090251182160B8
:1059D0000F21090222688A43D96811432160C00758
:1059E0001AD1554800683840854232D25249086879
:1059F000B84328430860514CFFF76EF906464E48FD
:105A000000683840A84224D0FFF766F9801BA04206
:105A1000F5D9032003B0F0BD2246083A10681C21D6
:105A200088439968014311605968032943D8880065
:105A300001A31B5801989F46495A0008AF5A000815
:105A40009F5A0008A75A00081268520537D403B0BD
:105A5000F0BD029A10784007764C05D538032168CE
:105A60008143106908432060204608380168226895
:105A70009206520F06D0226838200240082A07D129
:105A80006D4842E000688004420F6C48D0403CE022
:105A900022680240202A2AD10120C00335E0126882
:105AA0001202D4D50BE0A26D9207D0D507E01268A0
:105AB0009203CCD503E0606D80070198C7D52068BC
:105AC000B84308432060FFF707F9064620683821ED
:105AD000014002984068C000814282D0FFF7FCF884
