:020000040800F2
:10000000E8100020D500000815660008995C00087B
:1000100000000000000000000000000000000000E0
:10002000000000000000000000000000E56700087C
:100030000000000000000000BD660008F96E000826
:10004000E7000008E7000008E7000008E7000008F4
:10005000E7000008E7000008E7000008E7000008E4
:10006000E7000008E7000008E7000008E7000008D4
:10007000E7000008E7000008E7000008E7000008C4
:10008000E70000080000000000000000E700000892
:1000900000000000E7000008E7000008E700000893
:1000A000E7000008E7000008E70000087D8200087C
:1000B000898200080000000000000000000000002D
:1000C0000348854600F0E0FD00480047F98200083B
:1000D000E81000200448804704480047FEE7FEE798
:1000E000FEE7FEE7FEE7FEE7056F0008C100000837
:1000F00030B5434351435C18010C130C0D465D436E
:100100002C1980B292B20546554351430A0C09049A
:100110004D1962415843010C00044019514130BD52
:1001200000487047C88D000801466139192900D878
:100130002038704703460B439B0703D009E008C9EA
:10014000121F08C0042AFAD203E00B780370401C87
:10015000491C521EF9D27047D2B201E00270401C15
:10016000491EFBD270470022F6E710B513460A4637
:1001700004461946FFF7F0FF204610BD10B50446AF
:1001800005E00B780370401C002B00D0491C521E68
:10019000F7D2204610BDCAB2401E4178401C8A42A8
:1001A00002D00029F9D100207047421C0178401C80
:1001B0000029FBD1801A704710B5002200E0521CC4
:1001C000835C8C5CA34201D1002BF8D1D8B2E1B2A0
:1001D000401A10BD30B504460020034600E05B1C09
:1001E000934203D2E05CCD5C401BF8D030BDF8B543
:1001F0000E460546002400E0641C285D00F038FB34
:100200000746305D00F034FB381A02D1295D002921
:10021000F2D1F8BDF7B5009C0F4600262578641C86
:10022000002D05D0FFF77CFF0068405DC007F5D1C9
:100230002B2D02D02D2D18D0641E39462046029A4F
:1002400000F01CFB002F04D03968A14201D10099B5
:1002500039607105022400290BDA4042002803DDD1
:1002600008F0DAF80460A007FEBD01208002064312
:10027000E3E70028F8DA08F0CFF804600048FEBD94
:10028000FFFFFF7F70B5064608F0C6F80468054614
:100290000A2200213046FFF7BDFF2C6070BD70B50B
:1002A000064608F0B9F8046805460A2200213046DF
:1002B000FFF7B0FF2C6070BDF8B502464A40D40F7E
:1002C00042004B0052085B089A4202D2024608469E
:1002D00011464A0023D0C30D4A00DDB2120EAD1AFA
:1002E000202D35DA49020126490AF6058A19002C23
:1002F00000D0524220214F1B1146B9402A4110180C
:10030000C20D9A4221D0002C17D0012D08DCDA054D
:10031000801AD20F8019D207DBB200F00AFBF8BDB9
:10032000DA05801A012340001B06C01880185A42C3
:100330008018CA0F1043490007E04908C20711435B
:10034000DA05801A80194008801800F0EAFAF8BD32
:1003500061000122511A001BF7E70122D207514028
:10036000AAE70122D2075040A6E7024670B54A40EC
:10037000D30FDB0740002DD04A002AD0010E140E07
:10038000000212020919400A520A8418E5010446C3
:100390005443000A120A2E045043A4194219200C97
:1003A000C543AA18120C0125AD03521C52191204A0
:1003B0007F39240400D0521C104301D44000491E50
:1003C000C2B20C06C0092018401C4008802A02D086
:1003D00003E0002070BD40084000002900DA002042
:1003E000184370BD70B502464A40D50F40004A0020
:1003F000ED0740085208002814D0002A12D0C40D7E
:10040000D30D41020120C0055202490A520AE41AE2
:10041000091812187D34914201D3641C00E0490090
:10042000002C01DA002070BD0023914201D3891A0B
:100430000343400849000028F7D100290AD091421F
:1004400002D10121C90705E0914201D2012101E059
:100450000121C943E005C018401900F062FA70BDDF
:10046000F0B51FB488B00B99099800244840099949
:10047000C00F490049080991C0070B990090490035
:1004800049080B9109990898A64608431CD00B9976
:100490000A98084318D0099801244000420D4800EA
:1004A000410D099824050003000B204309900B9887
:1004B0000003000B20430B9050181C4940180022E9
:1004C00001901446104605E0002001460DB0F0BD35
:1004D000032801DA034600E003239C46C11A0AAE52
:1004E0000AE05F0008ADED5B4F00F75B7D4300273E
:1004F000AA187C41491C5B1E6145F2DD410004AB3A
:100500005A522104120C0A43240C401C0828DFDB39
:10051000019802900099704601910090059B049A01
:100520000799069800F077FAD0E700000DFCFFFF6E
:10053000F0B50C465C4085B0E40FE40703944C0032
:100540000026640859009446490802460296224350
:1005500021D062460A431ED06200570D4A000E03A6
:100560002303550D012402462C492405781B1B0B3F
:10057000360B401823432643614600901C46501A10
:10058000B44103D30098401C009002E092180098F8
:100590005B41002803DA0020014605B0F0BD0020D1
:1005A000012109050746864611E064461D46141BD5
:1005B000B54106D36546521BB341744607430C430D
:1005C000A646CD0740084908284392185B410546D6
:1005D0000D43EAD11046184313D0604619465040E7
:1005E0007140084306D06046101AB34106D201227A
:1005F000002306E000220123DB0702E00122D243B0
:100600005310009874460105381C6141029C039DFB
:100610000019694100F0F2F9BFE70000FD03000096
:100620000122D207002800DB101A002900DB511A32
:10063000814201D201207047002070470122D20779
:10064000002800DB101A002900DB511A814201D377
:1006500001207047002070470122D207002800DBEC
:10066000101A002900DB511A814201D9012070477C
:1006700000207047C217C10F504010B54018CA077C
:100680009623002100F055F910BD10B500229623E5
:10069000114600F04EF910BD3EB5CA17CB0F00242D
:1006A00050405140C0186141DA07054B0293019256
:1006B00000942246234600F0AEF903B030BD00009E
:1006C000330400000EB5054A029200220092134640
:1006D000019200F0A0F903B000BD00003304000057
:1006E000C20F410040020123400ADB05D207090E78
:1006F000C0187F2901DA00207047962903DC962371
:10070000591AC84001E096398840002AF4D0404286
:10071000704710B54100C40F0A0E40020121400A83
:10072000C905E40740187F2A02DA0020014610BDFF
:100730000021962A03DC96239A1AD04002E0963ACA
:1007400000F086F8002CF2D0002240428A41114687
:1007500010BDC20FD207400040080BD0C10D0723C7
:10076000DB01C91840020905400A1143C2084007CD
:1007700011437047002001467047CB0FDB0749004B
:1007800010B5490802460A4307D00A0D0724090399
:10079000E401090B121B002A01DC002010BDC90076
:1007A000440F0C43C100E018D205801800F0B9F8DE
:1007B00010BD70B50446002903D00020202201237B
:1007C00010E0002801D00020C043C046C0460DE024
:1007D0002546D5408D4205D30D469540641B1D46E8
:1007E000954040191546521E002DF1DC214670BD82
:1007F000F0B51FB40646002082B0054640240191A2
:1008000000901BE0019922460F46304600F054FA52
:10081000049A059B801A994110D310461946224626
:1008200000F016F8361A8F41019722460120002168
:10083000009F00F00DF838184D4100902046641ECE
:100840000028DFDC019B00982946324607B0F0BD46
:1008500010B5202A04DB0146203A9140002010BD4B
:10086000914020239C1A0346E3401943904010BD59
:1008700001464139192900D820307047F7B582B0B8
:10088000029C00272078641C15460197302802D06E
:10089000002D15D015E020780127641C782804D09D
:1008A000582802D0002D09D00BE0002D01D0102DCA
:1008B00007D1002710252078641C02E0082500E0FD
:1008C0000A250026009610E00099012769430818C0
:1008D000020C294680B2714300908E18380486427B
:1008E00001D3012001902078641C294600F008FA09
:1008F0000028E9DA0398002805D0002F01D0641EF3
:1009000000E0029C04600198002806D007F084FDF6
:1009100002210160C81E05B0F0BD009930040843F3
:10092000F9E7002904DA401C490001D140084000E1
:10093000704770B40024050C05D11024000402D1C6
:10094000002921D01124050E01D100020834050F21
:1009500001D10001241D850F01D18000A41C0028B5
:1009600001DB4000641C002908D020252E1B0D4609
:10097000F540A14000D001212943084301061B1B7B
:10098000000ADB1D02D5002070BC7047DB0518187B
:1009900080180029F8DA401C4900F5D170BC4008E5
:1009A0004000704770B5002801DC002070BD410098
:1009B00040020126400AF605090E8019CA0701D136
:1009C0004000491E4D10002211463F353346CB40B2
:1009D0009B18D418844201D8001B1A464000491CB9
:1009E0001729F3DD5100814202D20021C94300E002
:1009F0000021E8058018FFF794FF70BD10B5002BAB
:100A000008DA0024401C614192185B411A4301D16D
:100A10004008400010BDF0B51FB482B005460C0080
:100A200003D0084607F0E0FC02E007F0DDFC2030D0
:100A30000246009021462846FFF70AFF049B059ACC
:100A400004460F4618431143084314D01846104378
:100A50001BD0009840210A1A1846059900F02CF97D
:100A600005460E46009A05990498FFF7F1FE0843E3
:100A700005D0012004E02046394607B0F0BD002033
:100A8000C11705430E432C43374300990E98630565
:100A9000401A7905E40A00220C43FD0A0A3002D507
:100AA00000200146E9E70105101969410C9C0D9DE4
:100AB00000196941FFF7A2FFDFE70000F0B5074624
:100AC0000846584087B0C00F049048000E465900B1
:100AD00040084908BC1A884105D2384631461E46AE
:100AE00017460B4602465800400810434CD0300DC4
:100AF000039040055900400D490D0590401A0290A1
:100B0000402872DA18030121000B090508430190FF
:100B100004980092002805D0019952420020884193
:100B200000920190029840210A1A01990098FFF75B
:100B30008FFE05460C466B4607CB00F0CEF8C01979
:100B40007141039A0E0D0023D71756401A467A407A
:100B5000164344D0049A002A2DD0029A012A039AFF
:100B600015DC1205C01A914101263605001C7141A1
:100B7000D20F059ED2070093019202962A46234681
:100B8000FFF749FF07B0F0BD38463146FAE71605D2
:100B9000224A0F46B218C01AB74101210905001CAC
:100BA0004F4100187F41114618187941E20F104358
:100BB0006D19644113E0E2076D0815436408C2072C
:100BC0001443039A01261205C01A91413605001CF0
:100BD0007141CE07400830434908C01851412A46A8
:100BE0002346FFF70BFFCDE7FFE704980122400003
:100BF000C117121A00238B4104983146C417381AC2
:100C0000A141EEE730B40124E407634030BC55E76E
:100C100030B40124E407614030BC4FE70000E0FF3E
:100C20004A0009030123090B1B0519430A4B10B5A0
:100C3000520D9A4202DA0020014610BD064B3433B1
:100C40009A4203DC9A1A00F037F810BD034BD21811
:100C5000FFF7FEFD10BD0000FF030000CDFBFFFF0E
:100C600010B5002904DB0124E40740428C412146F1
:100C7000002B04DB1C460123DB075242A3419942AF
:100C800000D1904210BD00001CB5094800900948F1
:100C9000019005460126009C05E0E36807CC33433C
:100CA0000C3C98471034AC42F7D3FFF70DFA000024
:100CB0001C9900083C99000810B5202A04DB08465E
:100CC000203AD040002110BD0B46D340D040202414
:100CD000A21A91400843194610BD10B5202A06DB20
:100CE000CB170846203A1041C1170B4306E00B46CC
:100CF0001341D0402024A21A91400843194610BD48
:100D00003A2800D23038202302469A43412A01D3A0
:100D100010463738884201D30020C0437047000096
:100D2000F0B581B005460024009400688168C907C9
:100D30001CD181682B4A2F3211420AD0A86D102194
:100D40000143A965E86D01242043E865204601B010
:100D5000F0BD8168234A1140012739438160224850
:100D60000068000205D4687E012825D1204601B024
:100D7000F0BD1E4800681E49FFF71BFD401C009097
:100D800000980028EFD00098401E0090009800289E
:100D9000E9D00098401E009000980028E3D0009809
:100DA000401E009000980028DDD00098401E009062
:100DB00000980028E7D1D6E702F080F9064604E063
:100DC00002F07CF9801B0328B8D228680168C907A3
:100DD000CCD18168C907F3D18168024A11403943F7
:100DE0008160EDE7E8FFFF7F082701402C0000202D
:100DF000400D0300F0B583B05E490A684968401AA7
:100E000086185B49CF6801200023BE4202460EDDF2
:100E10004C68A64205460FDA1543012D10D14D69E5
:100E2000AE4213DC0022BE42034613DA13E01A4638
:100E30004C68A6420546EFDB1D461543012DEED05A
:100E40000D4608350868A74217D043E00122BE428C
:100E5000034600DB1346012B06D1CB699E420EDC14
:100E60000022AE420EDA0EE028460D46103508315B
:100E70003C4607460868A7422CD103B0F0BD0122CA
:100E8000AE4200DB1046029500281BD0A6423BDA9A
:100E9000886809680291FFF760FA0546381BFFF77A
:100EA000E9FB01462846FFF79DFA0546301BFFF790
:100EB000E1FB01462846FFF758FA0299FFF7FCF9D3
:100EC00003B0F0BD0D4618351031029C1F4608686E
:100ED000A742D2D0391B07460846FFF7CBFB02904A
:100EE00028683946FFF739FA0299FFF77BFA054679
:100EF000301BFFF7BFFB01462846FFF736FA39469D
:100F0000FFF7DAF903B0F0BD8869019009691C4662
:100F1000FFF723FA07460298201AFFF7ABFB0146BA
:100F20003846FFF75FFA0546301BFFF7A3FB014683
:100F30002846FFF71AFA0199FFF7BEF903B0F0BD92
:100F4000B0B50A4C012500222046294602F0ADF832
:100F5000284601F0CBFF204629462A4602F0A5F894
:100F600003484068A8490860B0BDC046000400506E
:100F70003000002050000020F0B585B002F09EF84F
:100F80000546C83520214B4802F08AF8012807D1D0
:100F900002F094F8A842F5D90025284605B0F0BD26
:100FA00072B600252C46009505E0019F79000D18CA
:100FB000641C182C4ED00195102101223D4802F0EE
:100FC00074F8009803900398072817D80398401CDA
:100FD00003900398072811D80398401C03900398A6
:100FE00007280BD80398401C03900398072805D8BE
:100FF0000398401C039003980828E7D320212D4F25
:10100000384602F04DF80546102100263846324693
:1010100002F04BF80496691E48424841049907299A
:10102000C3D80499491C049104990729BDD804998F
:10103000491C049104990729B7D80499491C0491C3
:1010400004990729B1D80499491C049104990829E5
:10105000E7D3AAE710210122164802F026F80296EB
:101060000298072817D80298401C02900298072877
:1010700011D80298401C0290029807280BD80298B9
:10108000401C02900298072805D80298401C029044
:1010900002980828E7D310210022064802F005F83C
:1010A000780202D5FF200006054362B6284605B047
:1010B000F0BDC04600080050B0B5FFF75DFF044624
:1010C000FFF75AFF8442254609DA84420ADDFFF71A
:1010D00053FF84420BDAA5420CDD2846B0BD05461D
:1010E0008442F4DC0446FFF747FF8442F3DB044606
:1010F000A542F2DC25462846B0BD0000F0B587B019
:1011000037A007F0F9FD00200190044602943D4805
:10111000461C2024054601980346024603E0641E4F
:101120000E46054638D00396049505930692FFF7C0
:1011300023FF0546FFF720FF0746FFF71DFF064682
:101140000A2001F0D3FEBD42284613DABD4214DD69
:10115000B542069A059B15DAA84200DC2846C1175D
:101160001B184A41039DA84201460FDD049DA84279
:10117000D5DB0FE03846BD42EADC3D46B542069A73
:10118000059BE9DB3546A842E8DDE8E72946049DF2
:10119000A842C4DB2846C2E7091AFF202C3081424E
:1011A000029C0CDD23A007F00FF9641C0A2CADD1C2
:1011B0002E4807F0A1FD1448406807B0F0BDD017D5
:1011C000C00E0021181851414009C90641180E48A7
:1011D00041600EA007F0F8F80B48406807B0F0BD7A
:1011E000546172616E646F2E2E2E2041677561729C
:1011F0006465206573746162696C69646164652EFD
:101200000D000000FFFFFF7F50000020546172615D
:10121000206573746176656C20636F6E636C7569AD
:10122000646121204F6666736574203D2025640D3E
:101230000A0000004C6569747572617320696E73F1
:101240007461766569732028646966663A2025644E
:10125000292E2054656E74616E646F206E6F766106
:101260006D656E74652E2E2E0D0A0000F490000838
:101270007D200001054948607047C0467047000066
:101280007D200001014988607047C046E4000020CD
:10129000002802D00021016041607047B0B50028ED
:1012A00005D0AF490C311CC91CC03CC93CC0B0BD05
:1012B00080B505F093FE80BD70B586B00025019520
:1012C00001AC0B9EA6700A9E66702370059504956E
:1012D000039502956B46DA70987059701D70204620
:1012E000194605F00BFA02A007F006FD06B070BD26
:1012F0004150503A2044617461206520486F72610A
:1013000020617475616C697A616461732E0D0000EF
:1013100080B500F04BFF02A007F0EEFC80BDC04698
:101320004150503A204E6F76612073656E6861209F
:10133000646566696E6964612E0D000010B584B045
:10134000044601A80B2100F0FBFE002807D001A9EC
:101350002046FEF731FF002803D006F087FE04B0D8
:1013600010BD06F093FE04B010BD000080B503A0D0
:1013700007F0C2FC05F09AFD80BDC0464150503ACE
:1013800020436F6D616E646F207061726120696EC1
:1013900069636961722070726F636573736F207225
:1013A0006563656269646F2E0D00000080B5234897
:1013B00000F018F9224807F09FFC224807F09CFC37
:1013C000214800F0D3FC05F08FF9204807F094FC89
:1013D0001F4800F0C5FE1F4806F0F6FF00F012FFA0
:1013E000002801D11E4800E01BA007F085FCFFF794
:1013F000A7FD00F029FD05F015FD1A4807F07CFC5B
:10140000194807F079FCFFF779FE0146174805F007
:101410008DFA174807F070FC05F0E0FDFFF799F929
:10142000024614A00B4606F0CFFF06F011FE19A0ED
:1014300007F062FC26A007F05FFC80BD100A0020C8
:101440005E980008DD980008D0050020C1980008CB
:10145000AC050020F69800085B4F4B5D0D000000C6
:101460001598000889980008BC970008C40B002054
:10147000FD97000854656D70657261747572612026
:10148000696E696369616C3A20252E326620430DCE
:101490000A000000362E20496E746572666163652D
:1014A000206465205573756172696F2E2E2E204958
:1014B0006E696369616E646F2073657175656E63D3
:1014C00069612064652073706C6173682E0D000083
:1014D0000D0A3E3E3E20494E494349414C495A413E
:1014E00043414F20434F4D504C455441203C3C3CE0
:1014F0000D0A0D0010B500F083FB00F095F805F023
:101500009DFC06F0D1FD01F0D9FD154C2168401A73
:1015100064280AD301F0D2FD2060FFF7CDFD01461B
:1015200022460C320F4805F063FA01F0C7FD6168EE
:10153000401A80087D2806D301F0C0FD606000F0ED
:101540007FFC00F087FC01F0B9FDA168401AC008DB
:101550007D2804D301F0B2FDA06006F04BFE10BD63
:10156000B0000020C40B0020B0B58EB01A4DE87852
:1015700080011A490818A978890041580AAC0F223D
:101580002046FEF7FBFD0020E073332000022146D9
:1015900000F0BEFBE87801A900F0A0FD002818D0FB
:1015A000202001AC215E0E4D284600F069FB222070
:1015B000215E2846103000F063FB1C20215E284687
:1015C000203000F05DFB303510342846214600F015
:1015D0009FFB0EB0B0BDC046A8000020648E00087E
:1015E0004041000080B50349086003A006F0ECFE0E
:1015F00080BDC046BC0B00200D0A434C49205072F0
:101600006F6E74612E2044696769746520274845B0
:101610004C5027207061726120636F6D616E646F42
:10162000732E0D0A3E200000F0B581B0454E307893
:10163000012800D084E044A007F05EFBFEF770FDB7
:1016400005460068414C2778C15DC90706D0677818
:10165000C15DC907A41C0029F5D1641E20212046C4
:10166000FEF799FD00281AD000210170811C2A681C
:101670004D1E2878135CDB0716D00878135CDB0757
:1016800011D04878135CDB0740D08878135CDB0707
:10169000091D002BECD18D1E002807D007E0002586
:1016A000002F07D142E00D46002800D105462778DB
:1016B000002F3BD026492046FEF799FD002823D075
:1016C00025492046FEF793FD224F002822D02349CA
:1016D0002046FEF78CFD00281ED021492046FEF74B
:1016E00086FD00281AD01F492046FEF780FD0028FD
:1016F00016D01D492046FEF77AFD002812D01BA007
:10170000214606F061FE11E0124F0CE04D1C00284E
:10171000CCD0CCE7083706E0103704E0183702E0F9
:10172000203700E028377968284688470748802115
:10173000FEF719FD0020307070802E4806F044FE40
:1017400001B0F0BDA40000200D000000380B002007
:101750009997000854900008899700088F9700080F
:10176000949700089E970008A3970008436F6D6147
:101770006E646F20646573636F6E68656369646F20
:101780003A20222573222E0070B5184C21780029AA
:1017900026D10C2812DC08281DD00A2812D0658812
:1017A0007E2D1DD80646FEF7BBFC0068805D8006D6
:1017B000C00E15D00E484655681C10E07F280AD090
:1017C0000D28ECD1608800280BD0094900220A546A
:1017D0000120207070BD6088002801D0401E60800C
:1017E00070BD044806F0F0FD70BDC046A4000020A6
:1017F000380B00205B970008F0B583B00646452003
:1018000087000025284631463A4600F0C3FA0124F5
:10181000002813D0002E4BD027480068002847D05E
:10182000112102940C01315901914422314601F0F9
:101830006BF93051029C0199884239D038460C30FE
:1018400031463A4600F0A6FA002813D0002E2FD0D9
:101850001948006800282BD0112102940C0131593D
:1018600001914422314601F04FF93051029C019917
:1018700088421DD00920800131463A4600F08AFA9C
:10188000002811D0002E13D00B48006800280FD07C
:10189000112102940C0137594422314601F034F9E8
:1018A0003051029CB84203D004A007F025FA2C4620
:1018B000204603B0F0BDC046B80B0020454550524D
:1018C0004F4D204D616E616765723A204552524F0F
:1018D000204352495449434F21204E656E68756D2F
:1018E00020626C6F636F2076616C69646F20656E37
:1018F000636F6E747261646F2E00000070B5002813
:1019000022D004462021FEF746FC002820D00021EA
:101910000170861CFEF704FC0168751E28780A5CBD
:10192000D20718D030780A5CD20713D070780A5CDE
:10193000D2073BD0B0780A5CD207361D002AECD122
:10194000B51E002809D009E02DA006F03DFD70BDB0
:10195000002503E03546002800D105461A492046F7
:10196000FEF745FC002817D019492046FEF73FFC3A
:10197000164E002815D017492046FEF738FC0028DF
:1019800018D015492046FEF732FC002817D013A0C6
:10199000214606F019FD70BD0C4E71682846884737
:1019A00070BD083671682846884770BD751C0028D0
:1019B000D3D0D3E7103671682846884770BD1836F3
:1019C00071682846884770BD8B970008849000088E
:1019D000A897000870970008AC97000853756263D9
:1019E0006F6D616E646F204457494E206465736368
:1019F0006F6E68656369646F3A2022257322000068
:101A0000537562636F6D616E646F204457494E2059
:101A100066616C74616E646F2E2055736520274873
:101A2000454C50272E00000080B582B06846FFF775
:101A30002FFC08A007F060F900990CA006F0C4FC88
:101A40000198FEF786FE024610A00B4606F0BCFC8D
:101A500002B080BD4461646F732064652046726586
:101A60007175656E6369613A0D00000020202D20BC
:101A700050756C736F732028656D203530306D7331
:101A8000293A20256C750D0A0000000020202D2029
:101A9000457363616C6120413A20252E32660D0A40
:101AA0000000000010B588B001AC2046FFF7F6FB3F
:101AB00012A007F021F90298FEF74BFE024614A08F
:101AC0000B4606F081FC207E002801D016A100E024
:101AD00014A116A006F078FC0498FEF73AFE024620
:101AE00017A00B4606F070FC0198FEF732FE024686
:101AF00018A00B4606F068FC08B010BD4461646F86
:101B0000732064612042616C616E63613A0D000074
:101B100020202D205065736F3A20252E32662067D5
:101B20000D0A00004E414F0053494D0020202D204A
:101B30004573746176656C3A2025730D0A000000C8
:101B400020202D205369676D613A20252E326620B2
:101B5000670D0A0020202D2041444320436F756EFD
:101B600074732028617667293A20252E31660D0A84
:101B70000000000080B5FFF79BFBFEF7EAFD024680
:101B800002A00B4606F020FC80BDC04654656D7077
:101B90006572617475726120696E7465726E612020
:101BA000646F204D43553A20252E326620430D0A9E
:101BB0000000000080B5024807F09EF880BDC046D6
:101BC000EB94000880B56849488001200870486897
:101BD0000C31402203F011FA002801D000F02EF958
:101BE00080BDC04680B5604B586099600C33402280
:101BF000194603F002FA002801D000F01FF980BD59
:101C000070B590B0584E3078012819D172B67488EA
:101C100031460C316D4628462246FEF78BFA0020ED
:101C2000307062B6032C0BD328785A2808D1687814
:101C3000A52805D1B268002A02D0684621469047FF
:101C400010B070BD80B584B001A948720122CA717C
:101C50005A228A7184234B7100230B718223CB702B
:101C600007238B70A5234B700A70000A08723E4848
:101C700040680A22642303F0ADFD04B080BDC04675
:101C800080B582B00A466946CA7148718223CB701A
:101C900005238B70A5234B705A230B70120A8A718F
:101CA000000A0871304840680822642303F092FD5E
:101CB00002B080BD80B584B00A4601A94A7248715D
:101CC0008223CB7007238B70A5234B705A230B7094
:101CD000130A0B72130CCB71120E8A71000A087171
:101CE000214840680A22642303F074FD04B080BDDB
:101CF00080B50A46002909D00146002806D01A48B6
:101D00004068002802D0642303F064FD80BDC04613
:101D1000F0B589B0074601910846FEF746FA064637
:101D200002AC6771380A20718220E0701720A07021
:101D3000A52060705A2020701425142E00D32E4642
:101D4000A71D384601993246FEF7F4F9B819A91BC8
:101D5000FF22FEF701FA0448406819226423214655
:101D600003F038FD09B0F0BD58000020324908608A
:101D70007047C04680B530480068002808D0A021D0
:101D80000122642301F03CFA01464042484180BDF3
:101D9000002080BDB0B584B005460020002910D0D9
:101DA000254B1C68002C0CD06420009101920290FD
:101DB000A021022320462A4601F0C8FA01464042EB
:101DC000484104B0B0BDC046F0B585B0064600201D
:101DD000049100292BD018490968002927D01446FE
:101DE0000120002A23D003900027134800686421B3
:101DF0000291B9B2049A511800911F21314020225A
:101E0000551AE11B89B28D4200D30D460195B2B23D
:101E1000A021022301F0B4FB00280AD1052001F023
:101E200065F8AE19EF19B8B2A042DED3039805B039
:101E3000F0BD002005B0F0BDC00B002072B6FEE77B
:101E400007480068406A704780B5054802F0DAFD2F
:101E500080BDC04602480068002141627047C0460C
:101E6000C4090020F0B587B087480068002800D179
:101E700007E145208100854C2046FEF774F984A0D7
:101E800006F03AFF90480027277101210491216054
:101E90006121A060E1602782A774204614308B4E38
:101EA00031680F252A46FEF769F92320059027544B
:101EB0002E202754864987486162A0628648A08503
:101EC000F06A316BE186A086B06920632046383025
:101ED000316C2A46FEF752F947202754F06E316FD5
:101EE0005A22A15258216052522027547848A064A7
:101EF0007848E0642046483077490181B06D6065DC
:101F00008020315820465C302A46FEF737F96B2096
:101F100006902754B02030587E216052AC203058B3
:101F20007C216052762027546948E0666948206722
:101F300020466C306849018198203058A067C02045
:101F400003903158204680302A46FEF717F990203A
:101F50005F4921508F202754F0203058A221605231
:101F6000EC203058A0216052D820029030589C219B
:101F700060509A2027542046903056494160564977
:101F800001810498000231582046A4302A46019568
:101F9000FEF7F4F8B4204E492150B3202754132003
:101FA00000013058C62160524B2080003058C421B7
:101FB00060520598C000305803996050BE202754E5
:101FC0002046B430434941604349018105208001E6
:101FD00031582046C8302A46FEF7D0F83C4D0298CA
:101FE0002550D7202754172000013058EA2160528D
:101FF0005B2080003058E82160522B20C000305810
:10200000E4216050E22027542046D8303149416015
:10201000314901810320C00131582046EC30019A3A
:10202000FEF7ACF8FC202550FB2027541B200001B4
:10203000305887214900605206988000305843216B
:10204000890060523320C00030582121C9006050FF
:102050008320400027542046FC301E4941601E4921
:10206000018109480068002806D04422214600F07A
:102070004BFD112109016050044804F0B5FB07B085
:10208000F0BD002007B0F0BDB80B0020F00000202C
:10209000454550524F4D204D616E616765723A2043
:1020A000436172726567616E646F20636F6E66690B
:1020B00067757261636F6573206465206661627223
:1020C0006963612E2E2E000073656E68648E0008B1
:1020D00032322F30362F32303238000080B503468E
:1020E0000020062B07D8002905D024225343D8B25C
:1020F0001430FFF74FFE80BD70B5C6B00024002835
:102100001AD0744E3168002916D005464520820049
:10211000002401A92046FFF73DFE00280CD03068BE
:10212000002806D0459E01A9442200F0EDFCB042F3
:1021300002D1029828700124204646B070BDC046E6
:1021400080B50A4601460020002907D0002A05D0A4
:102150000B2A00D30B220820FFF71CFE80BD0000D5
:102160005C4908607047C046F0B581B00646594FDB
:1021700038680025002814D00B4C2046FFF73CFBA4
:1021800000280ED026713868002806D04422214647
:1021900000F0BAFC112109016050034804F024FB4F
:1021A0000546284601B0F0BD04020020F0B581B01C
:1021B0000025002820D0474F396800291CD006464A
:1021C0000F4C2046FFF718FB002815D0204608309A
:1021D0000A223146FDF7D2FF0020A074386800289B
:1021E00006D04422214600F08FFC112109016050E5
:1021F000034804F0F9FA0546284601B0F0BDC04690
:1022000018030020F0B581B0324E3068002839D074
:1022100031A006F071FD4520840000203C4D294688
:102220002246FFF7B7FD002813D0306800280AD0F7
:1022300011210F01EE594422294600F065FCE851B6
:10224000B042244E05D136A006F0BEF8012001B000
:10225000F0BD20460C302E4D29462246FFF79AFD50
:10226000002812D0306800280AD011210E01AF5981
:102270004422294600F048FCA851164EB84204D129
:10228000264819E0002001B0F0BD09208001204D52
:1022900029462246FFF77EFD002814D0306800282A
:1022A00009D011210C012E594422294600F02CFCA2
:1022B0002851B04207D1184806F01EFD144804F01A
:1022C00093FA01B0F0BD134806F016FDFFF7CAFD02
:1022D00001B0F0BDB80B0020454550524F4D204D88
:1022E000616E616765723A205665726966696361FD
:1022F0006E646F20696E74656772696461646520DD
:10230000646F73206461646F732E2E2E00000000D2
:102310002C040020AF9100085C9100081591000882
:10232000454550524F4D204D616E616765723A20B0
:10233000496E74656772696461646520646F7320B7
:102340006461646F73204F4B210A0D00F0B587B0B4
:10235000002506955422825C012A03D102242046DE
:1023600007B0F0BD06465436012434700268936805
:102370005B0714D407694B68022B18D1042007436C
:10238000994887426DD19748C0430B68D9430143B0
:10239000906A084090620024002B66D4D2E0816DE0
:1023A00020220A4382653570204607B0F0BD0593B0
:1023B00004231F438C4CA74262D10F683846894BD7
:1023C0001840936A034393623802536983438968D0
:1023D000014086480840184350610024002F00D473
:1023E000B0E0032082058248036819461140384650
:1023F000804F0490B84200D096E07A4F7F1CB942DB
:1024000000D391E07A48036893431943754A511801
:10241000491C0160794800687949FEF7CAF90C2126
:102420004143481C06900698002800D18AE006988F
:10243000401E06900698002800D183E00698401EB2
:102440000690069800287DD00698401E06900698B3
:10245000002877D00698401E069006980028E6D1FE
:1024600070E00B680024002B6CD5FA480168624AC2
:1024700093426BD05F4A934264D10122920567E098
:102480001F27059C27400F2400940397BC40076E2C
:102490000194A74302970C68524F3C42049462D0C7
:1024A000E4072F4667D1049FBC075FD47C075FD445
:1024B0003C075FD4FC061F465DD4049CA30671D480
:1024C000630671D4230671D4E30571D4049B9B0584
:1024D00070D4049B5B056FD4049B1B056ED4049BD6
:1024E000DB046DD4049B9B046CD4049B5B046BD411
:1024F000049B1B04009F3ED4049BDB0366D4049B17
:102500009B0365D4049B5B0364D4049B1B0363D4CB
:10251000049BDB0262D4049B9B0261D4049B5B029C
:10252000DB1716271F4026E0334F0498B84209D125
:102530000127BF053B4005D1C648036893431943B3
:1025400039430BE03570204607B0F0BD254A521CD8
:1025500011400322920503689343591801603570B6
:10256000204607B0F0BD6300DF0E04E0012702E063
:10257000022700E00327039CA740029B1F43076636
:10258000059B9B08C06998420AD90198C043936A89
:102590000340049FB800000FA0401843906213E767
:1025A000049F11E70527E6E70627E4E70727E2E7A8
:1025B0000827E0E70927DEE70A27DCE70B27DAE749
:1025C0000C27D8E70D27D6E70E27D4E71027D2E748
:1025D0001127D0E71227CEE71327CCE71427CAE745
:1025E0001527C8E7FFFF7F000400008000FFFF7F82
:1025F00008270140000200A4000400A82C000020CD
:10260000400D03000068006C70470000F0B589B011
:10261000044600200890002C76D00790A06D00287A
:1026200007D125465435204600F016F900202870C1
:10263000E06501273D072668B068C00026D4B06871
:102640007F4901402943B1607E4800687E49FEF71A
:10265000B0F8400008900898002817D00898401E4D
:1026600008900898002811D00898401E08900898F3
:1026700000280BD00898401E08900898002805D024
:102680000898401E089008980028E7D1B0682842B2
:1026900008D1A06D10210143A165E06D01210791D2
:1026A0000843E065B06804210140A26D102002409B
:1026B0005118A16D2BD106900F20C7433A46F33A2B
:1026C0001140891CA165B168C9077DD103900497A9
:1026D00027462037216B4A1E91410D03A168227EB7
:1026E00092030A43617EC9031143A27E500308434B
:1026F000E36803432B430120C507216900290590A6
:10270000029509DAA94308E0012009B0F0BD0143B0
:10271000A165384609B0F0BD41050B43387B450043
:102720001D433878012809D1002A11D0A06D20213D
:102730000143A165E06D05990843E065626A002ADE
:102740000CD0072080010240A16A1143294306E012
:10275000059800040543626A002AF2D12946F06810
:102760003A4A02400A43F2600320820763681D462A
:102770001540E16C387F01280ED1206C0090676C09
:10278000A06C019000980743019807432F430F4323
:10279000059807433D4600E00D43049F30692C49EE
:1027A0000140294331610298834203990CD093423E
:1027B0000AD005988007834206D088040340254943
:1027C0000A688243D0180860706907229043656BDD
:1027D00028437061706970218843A16B090101432E
:1027E0007161216901235805814203D000290BD171
:1027F000B06A07E0B06AE06980001C301C2101402B
:102800008F40206E3843B06270691040A8420AD1F0
:102810000020E065A06D0121014302208143A165F4
:10282000079809B0F0BDA06D0699084302218843BE
:10283000A065E06D1843E065184609B0F0BDC046DC
:10284000E8FFFF6F2C000020400D03000102DEFFB7
:1028500002FCFF1F0827014080B58AB000210991C2
:1028600008910791069105910491039100680D4923
:10287000884201D00AB080BD2020029002A801F059
:10288000B1F9002801D0FFF7D9FA01200005064967
:102890000A6802430A6009680140019101980AB080
:1028A00080BDC0460024014040100240F0B581B018
:1028B0000D4604464069082801D1082704E0206835
:1028C000C068C0073FD1042700F0F8FB0646216826
:1028D000086838421CD001204202A36D1343A3654F
:1028E000CA681205920F4AD1A27E002A47D10A680F
:1028F000120744D58A68520738D4224658324B68AA
:102900000C25AB434B60FF2502351368AB4334E025
:10291000002D1FD0681C10D108683842DBD1086830
:102920003842D8D108683842D5D108683842F3D047
:10293000D1E7216808683842CDD100F0BFFB801B89
:10294000A842F6D908E0A06D20210143A16501202D
:1029500001B0F0BD00F0B2FB542000212154A06D65
:1029600004210143A165032001B0F0BDA26D202325
:102970001343A36522465C32E36D03431360227E5A
:102980000020002A01D001B0F0BD0C220A6001B085
:10299000F0BD000070B50146006882680220520751
:1029A00011D454228A5C012A0DD00C4654340120E3
:1029B000054620700E460846FEF7B2F9002803D0FF
:1029C00000202070284670BDB06D094901400120EB
:1029D00000020818B0650020F06531681C220A600A
:1029E00020708A68304B13401A1D8A6070BDC04643
:1029F000FEF0FFFFF0B581B004465420205C0128B2
:102A000002D1022001B0F0BD2646543601273770AE
:102A10002068816849071FD481688268D20737D04F
:102A20000222114034D1816805220A40012A27D1AF
:102A300081681D4A0A40911C81600321016000F0F9
:102A40003DFB054620688068C00721D000F036FBBA
:102A5000401B0328F6D313E08168890704D48168FA
:102A6000114A0A401032826000F028FB05462068B7
:102A700081684907D0D500F021FB401B0328F6D31D
:102A8000A06D10210143A165E16D5C34384605E07D
:102A9000FF200230A16D81435834002000223270A3
:102AA0003943216001B0F0BDE8FFFF7F70B50346F8
:102AB0000120CC0720D0114C0C40651EAC410326F0
:102AC0001546F541032D17D87D442D796D00AF448F
:102AD0000B0105090B4C0C400ED105E0084C0C40D5
:102AE0000AD101E0002C07D11868416181681823E0
:102AF000994311438160002070BDC04680FFFF7F75
:102B000000FFFF7F0000FF7FF0B584B00E4602217A
:102B100041770468A16801252943A160016A012960
:102B20001ED002290ED0032928D1002A00D103E1AA
:102B30000395032511462940042A00D3D2E03346E9
:102B40000025DEE057081ED0039503213B460B40CD
:102B500000937B1E032B029601971AD2002133E0CB
:102B6000970814D003950323394619400091791E24
:102B700003290296019349D200257AE00021457786
:102B8000084604B0F0BD0021D2073CD1D4E00021BA
:102B90009EE08F43002135466B882E883604F3185B
:102BA0002360EB88AE883604F31823606B892E8986
:102BB0003604F3182360EB89AE893604F3182360DA
:102BC0001035091D8F42E7D1009F002F029E14D0BF
:102BD0008B00F1184D88F35A1B045B192360012FF9
:102BE0000BD0CB888D882D04EB182360022F04D0E6
:102BF0004B8909890904C918216001998900039D3D
:102C0000D20700D198E0715A218095E09F430025BA
:102C100031460E7836064B781B049B198E783602A7
:102C20009B19CE789B1923600B791B064E793604CD
:102C3000F3188E7936029B19CE799B1923600B7A93
:102C40001B064E7A3604F3188E7A36029B19CE7A1A
:102C50009B1923600B7B1B064E7B3604F3188E7B7F
:102C600036029B19CE7B9B19236010312D1DAF427C
:102C7000CFD1009F002F029E26D0A900735C1B06B7
:102C800071184D782D04EB188D782D025B19CD78D5
:102C90005B192360012F17D00B791B064D792D048A
:102CA000EB188D792D025B19CD795B192360022F0A
:102CB0000AD00B7A1B064D7A2D04EB188D7A2D0263
:102CC0005B19C97A591821601146019B9943039DEC
:102CD00003231A407A441279520097442C011C2491
:102CE000715C27E0AA430025334637682760776880
:102CF0002760B7682760F768276010362D1DAA4245
:102D0000F3D1002905D0AA001D469B582360012954
:102D100017D1039D10E072185278715C090289186E
:102D20002180046808E072185378715C0902C918A0
:102D3000218091782170046821684577084604B0A5
:102D4000F0BDAA18536823600229039DF4D091684E
:102D50002160F1E7B0B50125002814D00446407F7A
:102D6000002804D100202077204600F031F802200E
:102D700060772079002808D0A168E2682046FFF734
:102D800095FE002808D02846B0BD20680F49416153
:102D9000816818229143816000256079002801D064
:102DA000216900E0E9432068016181686022914364
:102DB00062690A438260816880229143A2690A4362
:102DC0008260012060772846B0BDC046B71DC104AF
:102DD00081B000680849884201D001B070470120E5
:102DE000000306490A6802430A600968014000912D
:102DF000009801B07047C0460030024038100240D1
:102E000070B500282CD0014624314A78022A29D1F5
:102E1000046822680E239A432260426C1568314B85
:102E20001D4015602568012295432560046C1C2512
:102E300025401446AC402C4D2E6826432E60846CF1
:102E4000C56C6560046D002C05D025681D402560AB
:102E5000436D806D58604A70002000220A7070BD7A
:102E6000012070BD0422C263012000220A7070BDDF
:102E700070B5242101244454014624314A78022AA1
:102E80002BD103681A680E24A2431A601C68012221
:102E900094431C60446C2568124B1D402560046CF3
:102EA0001C2525401446AC400F4D2E6826432E604D
:102EB000846CC56C6560046D002C05D025681D40D0
:102EC0002560436D846D5C6000240C704A70816BDA
:102ED000002900D08847204670BD0421C1632046E8
:102EE00070BDC046FFFEFFFF04000240B0B50446BF
:102EF00000F0E4F80546601C02D00448007824186D
:102F000000F0DCF8401BA042FAD3B0BD080000205E
:102F1000F0B58AB0069009910B68002B00D1B4E09F
:102F20005B480699814201D0062000E005200B2273
:102F30001207069989180A22D1410091042900D369
:102F4000009006982030019000252E4607952946CE
:102F50000FE01A4362600899491C099803681846F3
:102F6000C8400835B61C079A121D0792002800D1E8
:102F70008BE0012420460891884003400393EAD067
:102F8000049509994A6810211143122915D11C2171
:102F9000079A114005960F2632468A40089BDB08A7
:102FA0009F00019BDD599543099A12693240059EA5
:102FB0008A402A43DA5109994A6803231146194085
:102FC000B1400293B3403746069E35689D430D439A
:102FD00035603E46D9430591122A049D15D8944088
:102FE0002E490C420FD0069CA168059B1940099BF5
:102FF000DB68B3400B43A3601109089B99406368E9
:1030000083430B436360032AA5D0069BD8680599C8
:10301000084009998968B1400143D960D0009AD528
:10302000182028400F218140089A029B9A43194C8E
:10303000A218136E8B4300998140194311661648FC
:10304000026809984068C10302D5039B1A4301E056
:10305000039B9A4310490A604A68810301D51A43C9
:1030600000E09A430C494A602268C10205D51A4320
:1030700022606268800206D56BE79A43226062682C
:10308000800200D565E79A4364E70AB0F0BDC04608
:10309000001400500018024080180240060006008C
:1030A00000690840411E88417047002A02D018225A
:1030B0008150704728228150704700000148006805
:1030C0007047C046E00C0020B0B5024603464033CE
:1030D0005C780220202C17D11C78012C14D02420DD
:1030E0005870106802680124A24302602203056838
:1030F0009543056002680A4302600168214301604C
:103100000020187020215970B0BDB0B502460346AA
:1031100040335C780220202C17D11C78012C14D06D
:1031200024205870106802680124A24302600F2214
:103130001202056895430902294301600168214391
:1031400001600020187020215970B0BDF0B581B029
:10315000002822D0054640356978002905D1002194
:103160002970044600F026FB20462421697001687E
:103170000B68012293430B600F231B0644689C439A
:103180000C618C681C4B1C408C608468C668012EE6
:1031900006D1D60334438C600CE0012001B0F0BDB1
:1031A0002127BF023C438C60022E03D1D4024E681B
:1031B000264302E0D4024E68A6434E604C680F4E90
:1031C00026434E60CC681C40CC60036944691C43B4
:1031D00083691B022343CB60C369046A1C430C60F0
:1031E0000B6813430B600021416420226A70016365
:1031F0000846A97001B0F0BDFF7FFFFF008000020C
:10320000F0B589B00793054600240894034640337F
:1032100058780227202800D090E0286880690004B0
:1032200000D58BE01878012800D187E02420587061
:10323000012003930290187004946C64CD480140FF
:103240000692059113E0C4610097202400222846CD
:103250002146079B02F0E0FD00285DD00898401C45
:10326000089008980898069A904205995ED2E868F6
:103270000128344800D03448401829684860FFF7D6
:103280001DFF074628688169202631408269102485
:10329000224089182BD10799491C10D00798002883
:1032A00042D0FFF70BFFC01B079988423ED8286821
:1032B00081693140826922408918F2D017E0816922
:1032C000314082692240891811D181693140826977
:1032D000224089180BD181693140826922408918C6
:1032E00005D181693140826922408918E7D081691E
:1032F000C906A8D4009720240027284621463A462C
:10330000079B02F089FD002809D0686C0428A5D12C
:103310002868C4616F64A1E72868C4619EE72868D3
:10332000C46103994C7007E0FFF7C8FE03994E7023
:10333000686C30436864029F04980870384609B08E
:10334000F0BDC0460020000200280002F0B589B0A0
:1033500004460646403675780220202D09D10E9F7E
:10336000002F08D00F9D002D05D007953578012D31
:1033700006D109B0F0BD01204102616409B0F0BD81
:103380000397059302920691012008903070FFF791
:1033900095FE02462068816909042FD41099049192
:1033A000222171704021B1700027676407996185FF
:1033B000039961626763F949069B0B400599C9B29D
:1033C00009040693C9184368F54D2B40C918012319
:1033D00008935B03C918416020460499154602F022
:1033E000DBFD002846D10397079520680599012940
:1033F00026D10299C9B28162079D31E00898C503C0
:1034000002E081692942C9D019212046174602F0FD
:1034100045FC002811D1FFF751FEC11B20681A2975
:103420003A46EED381692942EBD0606C20210843F3
:103430006064717000203070B070089809B0F0BD01
:103440000299090A816220460499079D2A4602F0E2
:10345000A3FD0028039F0DD121680298C0B28862A5
:103460000095402100222046049B02F0D5FC002854
:10347000039F03D03770089809B0F0BD608D000A33
:1034800007D020684168C64A1140021DFF203B4B0F
:1034900009E0608D22685368C1490B40C1B209043C
:1034A0001943121D344B069F19433943116020857F
:1034B00001200890400638180590079A049D0FE0F7
:1034C000608D208521684A68B84B1A40C0B200045C
:1034D000059B184310434860079A608D002834D03C
:1034E00000920421002720463A462B4602F094FC25
:1034F0000028A2D1606A2168496A0170608D401E6F
:103500006085606A401C6062208D401E2085618D50
:103510000029079AE1D00004DFD100928021002227
:1035200020462B4602F078FC002886D1608D000AE8
:10353000C6D0FF20208521684A689C480240069832
:103540000243994802434A60C6E72046294602F0F2
:10355000E0FC0028089800D00BE720682021C1611A
:103560004268934B1340436071703770B7703846B0
:1035700009B0F0BDFF030000002400020024FF0199
:10358000F0B589B00446074640377D780220202DEB
:1035900009D10E9E002E08D00F9D002D05D0079555
:1035A0003D78012D06D109B0F0BD012041026164D2
:1035B00009B0F0BD03960493029206910120059094
:1035C0003870FFF77BFD06462068816909042DD419
:1035D0000896109D212179704021B97000266664FB
:1035E000079961850399616266636C49069A0A408E
:1035F0000499C9B20904069289184268684B1340BD
:10360000C918684A89184160204607952946089AD2
:1036100002F0C2FC002845D10396206804990129D4
:1036200025D10299C9B28162089D30E00598C50391
:1036300002E081692942CBD019212046324602F0AE
:103640002DFB002810D1FFF739FD811B20681A29B6
:10365000EFD381692942ECD0606C2021084360647B
:10366000797000203870B870059809B0F0BD0299E3
:10367000090A816220460799089D2A4602F08CFCBF
:103680000028039E0ED121680298C0B2886200957E
:103690008021002520462A46079B02F0BDFB00281A
:1036A000039E03D03E70059809B0F0BD039501203C
:1036B0004606618D090A3C4A3C49059006D02068BF
:1036C0000B4641681940051DFF2008E0608D226807
:1036D00053680B40C1B209041943151D3246069BBD
:1036E00011431943296020851E430496089A079EBA
:1036F0000FE0608D208521684A682C4B1A40C0B2CB
:103700000004049B184310434860608D0028089A09
:103710002FD02046314602F03FFC0028A4D120687B
:10372000616A0A788262608D401E6085481C606212
:10373000208D401E2085618D0029E6D00004E4D153
:1037400008980090802100222046334602F064FB56
:10375000002889D1608D000ACBD0FF202085216808
:103760004A6812480240069802430F4802434A60E2
:10377000CBE72046314602F0CCFB0028059800D06C
:1037800011E720682021C1614268094B1340436062
:10379000797003983870B87009B0F0BDFF0300006D
:1037A000009800FC002000010000FF01009C00FCCC
:1037B00000E800FE70B58EB000240D940C940B94BC
:1037C0000A94099408940794069405940494039425
:1037D000029400681649884201D00EB070BD0226DE
:1037E000019601A800F0FEF9002801D0FEF726FBA3
:1037F000104D28683043286028683040009006202B
:103800000D900C940B9412200A9003200002099052
:103810000098094809A9FFF77BFB01204005A9682A
:103820000143A960A9680140009100980EB070BDE5
:103830000054004034100240000400501A48007840
:1038400002490A68101808607047C046E00C002062
:1038500080B5032000F008F8002801D0012080BDC9
:1038600000F026F8002080BD70B50F4E317801249D
:10387000002916D005467D20C000FCF79AFF0146BE
:103880000A480068FCF795FF00F05EFF032D08D89A
:10389000002806D10024E0432946224600F028F8FB
:1038A0007560204670BDC046080000202C00002036
:1038B00082B0CB4841680122114341604168114008
:1038C00001910199110702680A43026000680840EB
:1038D0000090009802B07047002805D41F210840CE
:1038E00001218140014801607047C04600E100E0CD
:1038F000002805D40322034693430A4A9A1803E09A
:103900000C220240064BD2188007C00E8901C9B2B2
:103910008140FF238340106898430843106070473C
:1039200014ED00E000E400E0B0B5B3218A0000210E
:10393000815403685C6D01252C435C6580188560AB
:10394000586D022202435A650846B0BDF0B585B0F5
:1039500000281ED00746A52080003D186878002862
:1039600004D100202870384600F012F903266E704A
:10397000386804F09DFC3879002800D1F4E0039504
:10398000044634400428049706D20022002C37D184
:103990005DE0012005B0F0BD0294FC2202403B46F0
:1039A000F51E691C3C27D955A91C6427D955002749
:1039B0005F629F62DF62DF7501215975DF641F65F9
:1039C0005F655F679F67DF671C463C3461701D75EC
:1039D0001D4664356970E7701C468C346170EF7069
:1039E0008C215E5427616761A761E770311DA033A8
:1039F000741C94420E46D3D1CA1E029C002C26D0C1
:103A0000049B14332825294651435A54591800273A
:103A10000F614F618F61CF7001264E70012C16D05F
:103A2000511C02962E464E4399559919029E0F61DC
:103A30004F618F61CF704E70022C08D0911C4D43A6
:103A4000595559190F614F618F61CF704E70002821
:103A5000049F039D00D187E0032201461140042802
:103A600003D20020002959D17EE079239B00FB1866
:103A7000FC2528401C46673C002626701C46783CE6
:103A800026601C467C3C26601C46803C26601C460A
:103A90008D3C26701C46903CD71E27701C468F3CE0
:103AA00026701C463F3C26701C46503C26601C4637
:103AB000543C26601C46583C26601C46653C2670DB
:103AC0001C46173C26701C46283C26601C462C3C95
:103AD00026601C46303C26601C463D3C26701C4639
:103AE000683C7D1C25701C46403CBD1C25701E603A
:103AF0001C1F26601C46083C26601C46153C267090
:103B00001C46183C2270151DA033521C82422A46C6
:103B1000B0D1E81E049F039D002925D055229200B4
:103B2000BA18282633464343D054D41800232361BF
:103B30006361A361E3706370012915D0441C3546AD
:103B4000654354555419039D23616361A361E37078
:103B50006370022908D0801C464390559019036178
:103B600043618361C37043700FCF3C780094103F72
:103B700004F090FB0020787401216970397B0129E1
:103B800004D105463846FFF7CFFE284605B0F0BD04
:103B900080B58AB00021099108910791069105919D
:103BA0000491039100680D49884201D00AB080BD9C
:103BB0000820029002A800F015F8002801D0FEF7B6
:103BC0003DF90120400306490A6802430A6009687A
:103BD0000140019101980AB080BDC046005C0040E0
:103BE0003C100240F0B585B00446007840064C4ECB
:103BF00001D4002035E0012001073746203F3A6814
:103C000003910A40029207D13968039A114339603F
:103C10003968114004910499032101910A02316825
:103C2000114010D0E26991420DD031680004326831
:103C3000024332603268824332600846394A10409B
:103C40003060C8075AD1306836490840E1690143FD
:103C5000316000200299002903D13968039A914309
:103C600039602168CA070BD18A0713D48A061CD48D
:103C70000A0725D44A072DD4090636D405B0F0BD6D
:103C80003246083A13680325AB43A5681D43156007
:103C90008A07EBD5032212033346083B1D68954380
:103CA000E2682A431A608A06E2D503229207334665
:103CB000083B1D689543A2692A431A600A07D9D5B3
:103CC00001221203331F1D68954362692A431A605B
:103CD0004A07D1D5032292033346083B1D6895431A
:103CE00022692A431A600906C8D55C3E3168E02281
:103CF000914362680A43326005B0F0BDFFF7DEF918
:103D00000546306880079ED4FFF7D8F9401B7B49F1
:103D10008842F6D90198029900299ED0A1E7C046B1
:103D20005C100240FFFCFFFFF0B583B00D4601467A
:103D3000012000296BD0029101906F48006807278D
:103D40003840854215D96C490868B8432843086053
:103D50006A4CFFF7B3F90646674800683840A84246
:103D600007D0FFF7ABF9801BA042F5D9032003B0C1
:103D7000F0BD029B186881079E4C10D5410707D5FE
:103D80007B21090222688A430B2109025118216014
:103D90000F21090222688A43D96811432160C007B4
:103DA0001AD1554800683840854232D252490868D5
:103DB000B84328430860514CFFF780F906464E4847
:103DC00000683840A84224D0FFF778F9801BA04251
:103DD000F5D9032003B0F0BD2246083A10681C2133
:103DE00088439968014311605968032943D88800C2
:103DF00001A31B5801989F46093E00086F3E00082A
:103E00005F3E0008673E00081268520537D403B0D1
:103E1000F0BD029A10784007764C05D5380321682A
:103E200081431069084320602046083801682268F1
:103E30009206520F06D0226838200240082A07D185
:103E40006D4842E000688004420F6C48D0403CE07E
:103E500022680240202A2AD10120C00335E01268DE
:103E60001202D4D50BE0A26D9207D0D507E01268FC
:103E70009203CCD503E0606D80070198C7D5206818
:103E8000B84308432060FFF719F906462068382137
:103E9000014002984068C000814282D0FFF70EF9CD
:103EA000801B16498842F1D9032003B0F0BD226877
:103EB0000240182A02D17D20000206E0226802405A
:103EC000102A01D0002000E04C48C906490F491CC7
:103ED000FCF76FFC216889093C220A402A4989586D
:103EE0001F220A40D040F1490860F1480068FFF7FE
:103EF000BBFC03B0F0BDC0460020024088130000A8
:103F000010B53C4C20460838016822689206520FD2
:103F100006D0226838200240082A07D136481AE025
:103F200000688004420FE048D04014E0226802405C
:103F3000202A02D10120C0030DE022680240182A85
:103F400002D17D20000206E022680240102A01D042
:103F5000002000E0D448C906490F491CFCF729FCA1
:103F6000216889093C220A40074989581F221140CB
:103F7000C840CE4908602168890A1C230B400349C8
:103F8000C9581140C84010BDD88D0008188E0008CF
:103F900080B518480246083A116803689B065B0F13
:103FA00006D0036838221340082B07D112481AE0C4
:103FB00010688004420FBC48D04014E003681340EE
:103FC000202B02D10120C0030DE003681340182B01
:103FD00002D17D20000206E000681040102801D0C8
:103FE000002000E0B048C906490F491CFCF7E1FB7E
:103FF00080BDC04608100240001BB700006CDC0208
:10400000F0B581B004460120002C00D148E10090B9
:104010002078C007A34E08D0B068382202406168FB
:10402000082A4BD1002900D190E02078800721D4C4
:104030002078000709D5B06838220240A169182A03
:1040400000D086E0002900D180E0207840070AD522
:10405000B06838220240A168202A00D08DE00029F3
:10406000009800D11CE120780025C00637D42846EE
:1040700001B0F0BDE268B0688006400F47D03068FC
:1040800001218F02002A00D184E00722D20290434E
:104090002269024332600802316801433160FFF750
:1040A0000DF805463068384200D09BE0FFF706F86F
:1040B000401B0228F6D9032001B0F0BD306801236F
:1040C0005F041A04914207D005252D04A94272D13C
:1040D00099040843306030681043306073E0306802
:1040E0000121CF05E2698905002A00D183E0084358
:1040F0003060FEF7E3FF044630683842B7D1FEF780
:10410000DDFF001B0228F7D9032001B0F0BD002A13
:104110001CD07F200002716881436069000208435F
:1041200070600720C0023168814320690843306015
:1041300030688004400F5C49C1405C4801605C48C5
:104140000068FFF791FB002800D171E7009801B0EB
:10415000F0BD306E00295ED0012108433066FEF7C5
:10416000ADFF0546306E800700D56EE7FEF7A6FF6F
:10417000411B03200229F5D992E0F06D012905D0F9
:10418000052959D104210843F065F06D012101434F
:10419000F1655AE0090288433060FEF78FFF05465B
:1041A0003068384200D143E7FEF788FF411B032007
:1041B0000229F5D974E09043306098043268824354
:1041C0003260002950D0FEF779FF0546306838424A
:1041D00000D02AE7FEF772FF401B6428F6D90320BF
:1041E00001B0F0BD7F200002716881436069000268
:1041F000084370601CE788433060FEF75FFF0446A9
:104200003068384200D132E7FEF758FF011B032027
:104210000329F5D344E0012188433066FEF74EFFC1
:104220000546306E800700D40FE7FEF747FF411BBD
:1042300003200229F5D933E001229043F065F06DA7
:1042400004229043F06500291CD01A4FFEF736FF78
:104250000546F06D800700D505E7FEF72FFF411BEF
:104260000320B942F5D91BE0FEF728FF0546306868
:10427000384200D1D9E6FEF721FF411B0320642913
:10428000F5D90DE00B4FFEF719FF0546F06D8007DD
:1042900000D4E8E6FEF712FF411B0320B942F5D92E
:1042A00001B0F0BD00100240006CDC022C000020C8
:1042B0000C00002088130000B0B500684568280C89
:1042C000C8703F242C408C70EB04DB0E4B702D0427
:1042D0006D0F0D70002A01D00020B0BD0522D24321
:1042E000250955432C198C701C095443E3184B7055
:1042F000C3B21B0953431818C8700020B0BD00009A
:10430000B0B5006883684B600369124C1C408C6038
:1043100003687F20184088705C02E40FCC705C0456
:10432000640E4C709B029B0E0B70002A01D0002083
:10433000B0BD0522D24305095543281888702009CD
:1043400050430019487018095043C01808700020E5
:10435000B0BDC046FF7F0000F0B581B000282ED070
:104360000446064624367078002804D100203070B8
:10437000204600F05DF8022070702068C168C90610
:104380004FD4CA21416253214162EC4F3868400644
:104390001ED43868802101433960FEF78FFE054640
:1043A0003868400614D4FEF789FE3A68402111406F
:1043B000401BE34A904205D20029F4D008E00120D6
:1043C00001B0F0BD002903D103207070396815E0F9
:1043D000F86816490140F960606821690143A069E5
:1043E0000843F9680143F960E068A16809040143E2
:1043F0007960204602F098F9002804D02168FF2255
:104400004A6201B0F0BD07204007F9688143E069C6
:10441000226A0A43024360691043F8602068FF2162
:10442000416201207070002001B0F0BDBFFF8FFF1E
:1044300010B58AB000210891079106910591049169
:10444000039100680F49884201D00AB010BD402096
:10445000029001242002099002A8FFF7C3FB002864
:1044600001D0FDF7EBFCE00307490A6A02430A6248
:10447000A0020A6802430A6009680140019101989C
:104480000AB010BD002800403C100240F0B585B0D5
:104490002423C35C012B02D1022005B0F0BD0346EA
:1044A000243302245C70012400941C70002A0493BD
:1044B00007D0CA7813044A781202D7188A78029271
:1044C0003DE04D78EA0603D5EF2215400A354D70E0
:1044D000CA7800260A2A0FD30A3AD3B2CD245C4305
:1044E000E30A0A245C43121B1B0110331343DAB2A4
:1044F0000A2D06D233460EE033461343DAB20A2DB4
:10450000F8D30A3DEBB2CD245C43E30A0A245C43B2
:104510002D1B1B01103312042B43DBB21F028D78BD
:104520000A2D09D30A3DEBB2CD245C43E30A0A24E9
:104530005C432D1B1E01103617432E430296039039
:104540000068CA22426253224262087801907B4E80
:104550003068400623D43068802101433160FEF783
:10456000ADFD05463068400619D4754CFEF7A6FD32
:10457000326840211140401BA04202D20029F5D0F0
:104580000DE000290BD10320049B5870316803997A
:104590000968FF224A620021197005B0F0BD029837
:1045A000C0B2074301984003C0218F430743039CD7
:1045B00020684760204602F0B7F82168FF224A626F
:1045C0000028049BE7D10098587000200021197042
:1045D00005B0F0BDF0B585B004462420205C01286C
:1045E00002D1022005B0F0BD019202912246243290
:1045F000022050702068CA2141625321416201208B
:104600000492039010704D4E3068400622D43068FA
:10461000802101433160FEF751FD074630684006B6
:1046200018D4474DFEF74AFD326840211140C01BA7
:10463000A84202D20029F5D00CE000290AD10320BB
:10464000049B587031682168FF224A62002119706A
:1046500005B0F0BD2068826940211140019A002A0E
:1046600005D00029029F16D10021F97015E000291C
:10467000029F01D10021F9703A7800210A2A16D34D
:104680000A3AD3B2CD255D43EB0A0A255D43521B9E
:104690001B0110330CE0F9788905039D3A78120468
:1046A0007B781B029A18BB78D3180B432AE00B4681
:1046B0001343DAB213047A780A2A0AD30A3AD5B233
:1046C000CD266E43F50A0A266E43921B2D01103546
:1046D00000E00D461543EAB212021A43BB780A2BDA
:1046E00009D30A3BD9B2CD254D43E90A0A254D43EA
:1046F0005B1B09011031039D1943C9B20A43F978C4
:104700008B0513430F4919400160A90482698A434C
:104710008261F9683A690A438169114381612046DF
:1047200002F002F82168FF224A620028049B8DD122
:104730005D7000200021197005B0F0BD0C2800400C
:10474000E90300007F7F7F00401E010E01D00120A1
:1047500070470749074A5060074803680B40032128
:104760008907591801600020906007211160704787
:10477000FFFFFF0010E000E020ED00E0F0B53C227C
:10478000825C012A01D10220F0BD02463C323F2367
:104790001B02CC689C430F239B028D689D432543DD
:1047A0004B681D4C1C402C430B681C4D1D40254381
:1047B0000B691B4C1C402C434B692343194C1C4078
:1047C0000B6B194D1D402543CB692B438C69240489
:1047D000164D25401D4303689C48834204D02C4657
:1047E000002010705C64F0BD114805400E46203674
:1047F00051CEC96A36050F4F37402F4311256D063C
:10480000A843384301256D07AC4304430C43002003
:1048100010705C64F0BDC046FF87F0EFFF8FF0EFD3
:10482000FF9FF0EFFFBFF0EFFFFFF0EF0000FFEFA3
:10483000FFFF0FDC0000F0DC70B53C22825C012A37
:1048400001D1022070BD02463C3202235370006841
:10485000456883687D4CA04201D02E4604E00F26B7
:104860003605B5434E682E437025AE430D6835437B
:1048700045600125AE07B04204D0A04202D0744C7E
:10488000A04204D18024A343896819438160002099
:104890001070557070BDC04670B5002828D0054610
:1048A0003C356978002905D100212970044600F0C3
:1048B00061F82046022169700268166801218C07A0
:1048C000A24205D0614B9A4202D0614B9A4211D16B
:1048D00070239E4383683343244EB2420EDCA242CF
:1048E00015D05B4CA24212D0214CA2420FD03AE02C
:1048F000012070BD33461D4EB242F0DD534CA24242
:1049000005D03D4CA24202D03C4CA2422BD1032404
:104910002402A34304691C43C368D36243689362BF
:1049200083694A4EB24205D0334EB24202D0334E72
:10493000B24201D140691063106804260643166034
:104940005161802084431C4314602973A970E9706D
:1049500029716971A971E97129726972A972E97283
:104960006970002070BD1C46D6E7C046FF2B014091
:104970000020004010B586B00021059104910391FC
:104980000291019102681C48824229D01B48824250
:1049900023D0012083079A422CD1194A131F1C6887
:1049A00004431C601B6803400093009B0C3A13688F
:1049B00003431360126802400092032005900491A3
:1049C000039102200290202001900098052000070A
:1049D00001A9FEF79DFA06B010BD0120400401E0D8
:1049E0000120800406490A6802430A600968014000
:1049F0000091009806B010BD0048014000440140FD
:104A00004010024010B53D21415C01291CD10146F6
:104A10003D3102220A70016801229007814205D0CF
:104A2000E048814202D00A48814208D18868094B97
:104A300003400020062B06D01404A34203D00868CC
:104A400010430860002010BD012010BD002C014063
:104A50000004004007000100F0B582B03C23C35CB5
:104A6000012B02D1022002B0F0BD03463C330224E8
:104A7000E241052A00D9ABE07A441279520097440A
:104A800002744057248A0268106A156A0126B543E9
:104A90001562A0438E68064350680C6801949569BE
:104AA000FA4FBA4206D0FA4CA24203D0F94CA242C5
:104AB00000D014E10C24A643CC680427BC43F34F78
:104AC0003443BA4200D00DE112E10268146AB748DB
:104AD0007330156A0540156257688D6801950D6839
:104AE0000095566DE94DAA4206D0E94DAA4203D081
:104AF000E84DAA4200D0A4E00740486905023D43C2
:104B0000A0E00268106A01242502166AAE4316620C
:104B10006402A0438C682702074350680C68019424
:104B2000D569DA4CA24258D03E46A24261D166E035
:104B30000268156A01242003166A864316625068CB
:104B40008E6801960E680096D769D04EB24206D0A4
:104B5000CF4EB24203D0CF4EB24200D0A4E0A60363
:104B6000B0434E69B60106439FE00268106A146ABA
:104B70001025AC4314622024A0438C68270107430E
:104B800050680C6801949469F64DAA4240D03E46A4
:104B9000AA4247D14CE00268156A01242005166A32
:104BA0008643166250688E6801960E680096576DAF
:104BB000EC4EB24206D0EC4EB24203D0EB4EB242C3
:104BC00000D0CAE0A604B0434E69B6020643C5E071
:104BD00001200021197002B0F0BD0326B602B743D0
:104BE000744CFF3CCE6836022640DE4C3E43A24267
:104BF00005D0DD4CA24202D0DC4CA2423ED10324BF
:104C00002403A0434C698F6927433C01044336E0E9
:104C1000C026B743CE6836014025AE43D14D3E4352
:104C2000AA4205D0D04DAA4202D0D04DAA4267D1A7
:104C30000325AD02A8434D698F692F43BD0005438D
:104C40005FE03D46104654305560584DED1C2E40F7
:104C5000009D2E4356654D68956501256D04AC4356
:104C6000019D2D0425431562546D08252543556586
:104C7000546D0425AC43546509698AE00446104626
:104C80001C305460494C2540019C2543D5614C683B
:104C9000D4631662D46908252543D561D4690425F7
:104CA000AC43D461096974E0064610461C30566076
:104CB0003F4E3740009E36023E43D6614E68166432
:104CC0006603B543019E36032E431662E502D6699C
:104CD0002E43D661A402D569A543D56157E0344679
:104CE000BA4205D0A04EB24202D0A04EB2421ED16E
:104CF00003263602B0434E698F6906433E4317E0F0
:104D00000546104618305560294D2C40019D2D0256
:104D1000254395614C68946316620124E502966907
:104D20002E439661A4029569A54395612FE006463E
:104D30001046183056601D4E3540019E3543956132
:104D40004D685563146294690825254395619469FB
:104D50000425AC43946109691BE0064610465430B3
:104D60005660114E3740009E36023E4356654E68EF
:104D7000D6656605B543019E36052E431662E502EB
:104D8000566D2E435665A402556DA54355650969B8
:104D9000090202680A43026000200021197002B073
:104DA000F0BDC046002C0140FF8FFFFE8CFFFEFFD0
:104DB000FF8CFFFEFFFBFFFF70B5002828D00546E3
:104DC0003C356978002905D100212970044600F09E
:104DD00065F82046022169700268166801218C0777
:104DE000A24205D05F4B9A4202D0614B9A4211D148
:104DF00070239E4383683343594EB2420EDCA24275
:104E000015D05B4CA24212D0234CA2420FD03AE004
:104E1000012070BD3346524EB242F0DD514CA242E9
:104E200005D0514CA24202D0504CA2422BD10324B7
:104E30002402A34304691C43C368D362436893629A
:104E40008369484EB24205D0474EB24202D0474E27
:104E5000B24201D14069106310680426064316600F
:104E60005161802084431C4314602973A970E97048
:104E700029716971A971E97129726972A972E9725E
:104E80006970002070BD1C46D6E7C046002C01406A
:104E900000480140004401400020004070470000ED
:104EA000B0B502463E32002909D00C1F0223DC4176
:104EB000042C0AD34325455D012D0BD014E0137853
:104EC000012B11D10223137017E025463F35455DB4
:104ED000012D09D1032C0FD87C4424796400A74408
:104EE00001090507537008E00120B0BDD37004E04C
:104EF000137102E0937000E053711F2211400122F0
:104F000013468B400168086A98430862086A184390
:104F10000862134881420FDD1248814205D0124BCE
:104F2000994202D0114B994215D1D3034C6C1C43CA
:104F30004C6481420FD105E09007814202D00C48B9
:104F4000814208D188680B4B03400020062B06D015
:104F50001404A34203D00868104308600020B0BDC9
:104F6000FF2B0140002C014000480140004401405B
:104F7000000400400700010070B53C22825C012A59
:104F800001D1022070BD04463C340222627001252A
:104F90002570064601F0BEFF0028284603D00021F8
:104FA0002170657070BD3068C16840229143C16056
:104FB00001218903C2688A43C26000200021217058
:104FC000657070BDB0B58421415C012901D102201A
:104FD000B0BD0146843124224A6002681368146817
:104FE0000125AC4314606C07A343136000224266A2
:104FF00010460A7020224A60B0BD70B503468C206E
:10500000185820280FD1012000290BD0002A09D0E0
:10501000012004039D68A54207D1CC0705D01C6977
:10502000002C02D170BD022070BDD86600251D671E
:105030001C460646184602F08BFE3046E16E0129FA
:10504000F0D1206810210162EFF31080012282F379
:105050001088226813680B43136080F31088284679
:1050600070BD000080B50068034A904200D080BD4A
:105070000846FCF7A7FD80BD0044004070470000D3
:10508000F0B583B0054668352A7F012A02D1022097
:1050900003B0F0BD064688362422326007683A68BD
:1050A00002923A680124A2433A6007225206BB6882
:1050B00093430B43BB60406E0028204615D0B86870
:1050C0000190B868400F2E49095C2E4A105CC00060
:1050D000FBF76FFB044601980001400F2849095C6B
:1050E000284A105CC000FBF764FB28806C800298A3
:1050F0003860002028772021316003B0F0BDC04621
:10510000F0B583B0054668352A7F012A02D1022016
:1051100003B0F0BD064688362422326007683A683C
:1051200002923A680124A2433A6007225207BB6800
:1051300093430B43BB60406E0028204615D0B868EF
:105140000190B868400F0E49095C0E4A105CC0001F
:10515000FBF72FFB044601980001400F0849095C4A
:10516000084A105CC000FBF724FB28806C80029882
:105170003860002028772021316003B0F0BDC046A0
:105180004A9000084290000870477047704700003E
:10519000F0B589B00368DF69202501210691CE02B0
:1051A00032462F323A4019680890044680340593FD
:1051B0009B68202A0495079710D1084628400122B1
:1051C00012071A4080181F4616D00898416F002910
:1051D00000D158E10898884709B0F0BD30460F303B
:1051E00007421F4608D0CF480840069A1207551CB0
:1051F0003D40281800D091E0039410260846304026
:1052000042424241079D28463040444244411443B3
:105210000898C06E401E421E9041204337D00124A2
:105220000126B2053A4050425041EA022246059B0F
:1052300000D50246002A00D1A6E0280606D5802027
:105240000840F2051740C01900D0BDE140230A46CE
:105250001A40504250416A06224600D50246002AB2
:1052600000D14AE1B2070A40504250412A02224688
:1052700000D50246002A00D1B1E1002900DAB3E1ED
:10528000E80100D5B4E1002C00D0FCE0B4E1089CBA
:105290005C34059806628068400600D57BE0618832
:1052A00022886088002800D1EDE08A4200D1EAE03F
:1052B000EFF310800790012383F310880920450144
:1052C0000898374606683468AC433460079C84F31A
:1052D0001088EFF31084079483F310880568AE6894
:1052E000C84C3440AC60079C84F31088049C039D38
:1052F000EC6000244467C466EFF3108483F31088E5
:1053000003681D68BD431D6084F310880223036792
:10531000511A89B2FFF7A6FE09B0F0BD00920394BE
:105320000798069B184042424241180201910840EA
:10533000444244411443059B05D101201862039C5B
:1053400022690243226101203C46029004406042EF
:10535000604107998A07069A00D50246002A06D1BD
:10536000022018620398016904220A430261604224
:10537000604107994A07069A5ED4002A039C5FD0D1
:105380000798000765D46EE0300518620898FFF7AB
:10539000FCFE09B0F0BD22880398006800684368ED
:1053A00099B2002900D19CE0914200D399E063803A
:1053B0000068800635D4EFF31082012181F3108854
:1053C000924B20330898056837462E681E402E60A1
:1053D00082F31088EFF3108281F3108803689D68D0
:1053E0008D439D6082F31088EFF3108281F3108863
:1053F00003689D684026B5439D6082F31088039B37
:10540000049ADA600022C266EFF3108281F31088FA
:1054100000680168B943016082F310881868FDF7DD
:10542000EFFC02210898016721886288891A89B2F5
:10543000FFF718FE09B0F0BD0246002A039C9FD179
:1054400004201862206902220243226107980007A3
:1054500009D50198049A1040054304D00820186229
:105460002269024322610298820601990A40504251
:105470005041079A324208D106980028049A09D070
:10548000206900280DD109B0F0BD069006980028CB
:10549000049AF5D11E62206910432061206900281A
:1054A000F1D0079810400DD01140009807400F43ED
:1054B00008D00898416F002904D0089C20468847EE
:1054C0002368039C206928220240986840210840F4
:1054D000801829D10898FFF759FE0020206109B0F3
:1054E000F0BD8A42CFD100688006CCD50222089850
:1054F0000267FFF7B7FD09B0F0BDEFF3108186F347
:1055000010880898026814689C43146081F310881E
:10551000002181670399049A8A6000F023FA09B098
:10552000F0BDC04620010004EFF31080029E86F318
:10553000108809225201089B1C6825689543256044
:1055400080F31088EFF3108086F310881A6894684F
:105550002C4D2540956080F31088D86E01280CD121
:10556000EFF31082029880F31088089800680368AF
:105570001024A343036082F31088039C0498E06026
:105580000020089AD066506710688068400621D5D0
:10559000EFF31082029880F31088089800688368FF
:1055A0008B43836082F310882168002912D016484B
:1055B00088630846FDF75CFC002800D163E720689B
:1055C000816B884709B0F0BD0898816F002900D031
:1055D00000E658E70898FFF7D9FD09B0F0BD089834
:1055E000FFF7D2FD09B0F0BD0026E80100D44AE67D
:1055F0003446002C00D046E70898FFF73FFD09B07D
:10560000F0BDC046FEFFFFEFB1750008DFFEFFFFF3
:10561000B0B500281ED004460546843568680028C9
:1056200004D100202870204600F02AF82420686069
:10563000206801680125A9430160A06A002802D002
:10564000204601F0E3FE204602F0C0FA002803D015
:105650002846B0BD0120B0BD0920C00221684A68BB
:1056600082434A6088682A22904388600868012241
:1056700002430A60204601F033FF05462846B0BDCC
:10568000B0B58EB000240D940C940B940A94099438
:105690000894079406940594049403940294019446
:1056A0000068254988421FD04749884242D10125D8
:1056B000019501A8FEF796FA002801D0FCF7BEFB81
:1056C000A8031E49CA680243CA60CA680240009221
:1056D00000980868284308600868284000900098EF
:1056E0001B250420032112E001204104134A936882
:1056F0000B43936093680B4000930099116801433A
:10570000116011680140009100991C250C210D9039
:105710000C940B9402200A9009910520000709A916
:10572000FDF7F6FB284621462246FEF7E1F828461B
:10573000FEF7D2F80EB0B0BD004400403410024075
:10574000F0B581B08C23C358202B12D1012400293D
:105750000CD0002A0AD001231C038568A5420CD175
:10576000CC070AD00469002C07D11C46204601B0A2
:10577000F0BD0224204601B0F0BD0024C4660568D7
:105780006D682D020AD5EFF3108583F310889B0610
:10579000066837681F43376085F3108802F0D8FA2F
:1057A000204601B0F0BD000010B5006806498842EF
:1057B00000D010BD054C2078FBF7E6FF044801221D
:1057C0002146FFF7BDFF10BD003801404405002011
:1057D000100A0020F0B585B00746882038582028E8
:1057E00010D1012000290BD0002A09D00120040388
:1057F000BD68A54209D1CD0707D03D69002D04D170
:1058000005B0F0BD022005B0F0BD019302913D4608
:10581000543539468831002003908860212000915A
:1058200008601646FDF74AFC04906E802E80B8682A
:10583000A04202D1386900285ED0029C019E039AE2
:105840003968688800285ED0701C454B2ED0002E29
:1058500049D00392C869000608D4FDF72FFC0499CB
:10586000401AB04267D839680868F3E7002C03D0C3
:1058700020788862641C07E0039A1088384B18402F
:105880008862921C039200246888401E68806888A1
:105890000028DFD137E0108818408862921C00246D
:1058A0006888401E6880688800282CD0C869000677
:1058B00008D4C869000605D4C869000602D4C869BE
:1058C0000006F3D5002CE6D020788862641CE7E758
:1058D000108818408862921C00246888401E6880E6
:1058E000688800280FD0C869000622D5002CEFD0A8
:1058F00020788862641CF0E70024029A019E3968CF
:1059000068880028A0D1CA690020520614D4002E4D
:105910000FD0721C15D1009BCA6952060DD4CA69FA
:1059200052060AD4CA69520607D4CA695206F3D588
:1059300003E0FDF7C3FB0320009B2021196005B0A5
:10594000F0BD0446FDF7BAFB0499401AB042F2D804
:1059500038680168C0694006F4D52046ECE7C046C7
:10596000FF01000070470000B0B500281BD02021C7
:105970000446FAF710FC002819D00021017010220B
:1059800005462046FAF746FC84B2681CFAF77AFC12
:1059900005B220462946FCF773F907A0294622469E
:1059A00002F012FDB0BD0DA002F00EFDB0BD0A4820
:1059B00002F00AFDB0BDC046457363726576656E40
:1059C000646F2028696E7431362920256420656D46
:1059D00020307825303458006097000855736F3AAE
:1059E000204457494E20494E54203C616464725F04
:1059F0006865783E203C76616C6F723E0000000066
:105A0000B0B500281BD020210446FAF7C4FB0028BB
:105A100019D000210170102205462046FAF7FAFB42
:105A200084B2681CFAF73BFC054620462946FCF781
:105A300041F907A02946224602F0C6FCB0BD0EA0DF
:105A400002F0C2FCB0BD0B4802F0BEFCB0BDC046C7
:105A5000457363726576656E646F2028696E743372
:105A6000322920256C6420656D203078253034582B
:105A7000000000006097000855736F3A20445749B2
:105A80004E20494E543332203C616464725F686535
:105A9000783E203C76616C6F723E000010B50028A5
:105AA0000AD00446FAF7EEFB80B2FCF7CBF804A06C
:105AB000214602F089FC10BD0BA002F085FC10BD50
:105AC000436F6D616E646F20656E766961646F3AD5
:105AD000204D7564617220706172612074656C6123
